:100000000C94DD0C0C940E0D0C940E0D0C940E0D36
:100010000C940E0D0C940E0D0C940E0D0C940E0DF4
:100020000C940E0D0C940E0D0C94FB470C940E0DBD
:100030000C940E0D0C940E0D0C940E0D0C940E0DD4
:100040000C940E0D0C946B4C0C940E0D0C940E0D28
:100050000C940E0D0C940E0D0C940E0D0C94B7B662
:100060000C940E0D0C940E0D0C940E0D0C940E0DA4
:100070000C940E0D0C940E0D0C940E0D0C940E0D94
:100080000C94334D0C946D4A0C940E0D0C94CE4987
:100090000C940E0D0C940E0D0C940E0D0C940E0D74
:1000A0000C940E0D0C940E0D0C940E0D0C940E0D64
:1000B0000C940E0D0C940E0D0C940E0D0C94FB462E
:1000C0000C940E0D0C940E0D0C940E0D0C940E0D44
:1000D0000C940E0D0C940E0D0C940E0D0C940E0D34
:1000E0000C940E0D0C941B230C940FD40C94B0B0F4
:1000F0000C94E0650C9473D30C9471B00C94BC65B3
:100100000C94A3CE0C94634B0C94259A0C947AB067
:100110000C948C4B0C9422240C94D9220C947D9139
:100120000C944D150C946E4B0C94C8CE0C94862CEC
:100130000C94AECE0C9406130C948C2C0C94982C2E
:100140000C947FB00C94A7D40C948F2C0C947FD576
:100150000C9475B00C9454D10C94D5CE0C9487911A
:100160000C94C2D00C94CBCE0C94B4CE0C9403D18E
:100170000C94E9130C94A5920C94C8D00C945222C0
:100180000C940E990C944A920C94E8120C94492603
:100190000C9416D10C94C6D00C948D920C94922C85
:1001A0000C9452260C94952C0C949CCE0C94C51255
:1001B0000C945E990C94E5D10C9473910C947A2371
:1001C0000C945FB00C9467240C9483B00C94D34BC4
:1001D0000C9494990C947D2C0C94AAB40C94A113B7
:1001E0000C94832C0C94B81A0C943AB00C9487D5C8
:1001F0000C9428990C94CB130C943D4B0C94EF6504
:100200000C949BD00C948AD30C948A920C945D131A
:100210000C947BB00C94B8CC0C94E7230C943CD198
:100220000C94121A0C9463B00C942A1A0C944F2656
:100230000C9479220C9496220C9409910C94789148
:100240000C9478920C945E260C94B8C90C94F91214
:100250000C94D8250C94D8CE0C947B920C94B1CEEF
:100260000C94EE220C94BECE0C949B230C94812013
:100270000C94C1CE0C9429650C94CC230C94D71407
:100280000C94159A0C9457910C94B1CC0C9459B0D1
:100290000C9498D40C941B130C944FB00C94AED4C3
:1002A0000C94B1920C9490920C9467B00C94EC6501
:1002B0000C94E0230C9482D30C944CB00C9440B07A
:1002C0000C946E910C94814B0C94D2CE0C94C86516
:1002D0000C94324B0C94E4D40C94A6230C94C0D010
:1002E0000C944C260C9484200C9491910C948C9139
:1002F0000C94ACD50C9482910C94B7CE0C9448B06D
:100300000C946DB00C9444B00C94D2990C949ED083
:100310000C9455260C9455B00C94D4650C94999279
:100320000C94892C0C940F4C0C9470D554494D4569
:100330005220415247004241442054494D45520009
:10034000554E44455252554E004241442057415665
:100350000042414420524154450038424954204F04
:100360004E4C59004D4F4E4F204F4E4C590050436C
:100370004D204F4E4C59004E4F2044415441004EA9
:100380004F20464D54004241442052494646004EBB
:100390004F542057415645004E4F5420524946462F
:1003A00000494F204552524F52004F50454E204574
:1003B00052524F520042414420415247004F4B009D
:1003C00053442043415244204552524F5200494E1B
:1003D000534552542043415244004E4F5420494EFD
:1003E0004954004F4B00534420434152442045524E
:1003F000524F52004F4B004E414D4520544F4F201D
:100400004C4F4E470046494C45204F50454E2046E4
:1004100041494C004F4B0042414420504154480058
:1004200046494C4520435245415445204641494C9C
:10043000004F4B004241442050415448004F4B0074
:100440004E4F542044495200444952204641494CA1
:10045000004D4B444952204641494C004241442002
:100460004449524543544F5259004F4B0052454363
:10047000204E414D45532046554C4C004449522096
:100480004641494C0046494C45205245414420468E
:1004900041494C00424144204152470046494C45A5
:1004A000205752495445204641494C00424144207E
:1004B00041524700505245414C4C4F432046414920
:1004C0004C004F4B0046494C45205452554E43205A
:1004D0004641494C004F4B0046494C452053594E2C
:1004E00043204641494C0046494C45205345454B25
:1004F000204641494C0046494C452052454D4F56F7
:100500004520455252004F4B004241442050415437
:10051000480052454E414D45204641494C004F4B05
:100520000046494C452045584953545300424144E4
:100530002052454E414D4500574149542E2E2E0024
:1005400052454C4541534520414C4C004144433AAF
:10055000253475005741495420494E505554005098
:100560005245535320252D313073004544474520D3
:10057000524541440045444745204649464F0055B1
:100580004C2057414954003E08D3CEE5210000D30A
:10059000E47ED3E077237CFE1020F43A4BD4324B38
:1005A0000A3A4CD4321205214DD4110211010D002A
:1005B000EDB0E17CFED428122A0411D921001222C8
:1005C0000411CD2A00D3E4C39AE9CD2A00D3E4C3B1
:1005D00024010000000000000000000000000000F6
:1005E000003E08D3CECD3E07360197575FCD0803B6
:1005F000CDBE02D3E21AD3E01213CB6228F53EC37C
:10060000321F06215C112220062A08117D321205B4
:100610007C324B0A2A0A11220211CDF80401CF06BE
:10062000ED71D3E2DAAAE9210A11C308EDC53A1047
:1006300011EE0C32101101CF06ED79C1C9313938F4
:10064000371102E0F31AE62028FB137B121B01008E
:10065000041ACB6728FBE620B1074F7B13121B1A45
:10066000CB6720FBE620B1074F137B121B10E27112
:1006700023D90B79B0D920D64F04D9C31102E0F3A6
:100680001AE62028FB137B121BC50100041ACB6756
:1006900028FBE620B1074F7B13121B1ACB6720FB08
:1006A000E620B1074F137B121B10E271C10B2379B7
:1006B000B020D60601D9C31102E0DD2103E0AF3D31
:1006C00020FDF31AE62028FBDD360003C5010004F7
:1006D0001ACB6728FBE620B1074FDD3600021ACBA4
:1006E0006720FBE620B1074FDD36000310E271C141
:1006F0000B2379B020D600E1E93E08D3CE1102E009
:10070000DD2103E0AF3D20FDF31AE62028FBDD36B6
:100710000003C50100041ACB6728FBE620B1074F90
:10072000DD3600021ACB6720FBE620B1074FDD362D
:10073000000310E271C10B2379B020D6010001D96A
:10074000E1E93E08D3CECD3E07360197575FCD088D
:1007500003CDBE02D3E21AD3E01213CB6228F53EDA
:1007600008D3E01102E0F37B13121B1AE62028FBEA
:10077000137B121B0100041ACB6728FBE620B1078C
:100780004F7B13121B1ACB6720FBE620B1074F13D8
:100790007B121B10E27123D90B79B0D920D64F04FC
:1007A000D9C3554C205345454B00554C2053454526
:1007B0004B00554C20415247004D5A462053484F5C
:1007C0005254004D5A462052454144004D5A46204D
:1007D0004649464F004D5A46204C454E4754480026
:1007E0004D5A542053484F5254004D5A54205245AC
:1007F0004144004D5A5420484541444552004D5A09
:10080000462053484F5254004D5A462052454144C9
:10081000004D5A46204C454E475448004D5A5420EE
:1008200053484F5254004D5A542052454144004DB4
:100830005A5420484541444552000000000007FA40
:1008400000FA00F401F401C8180000C818000028DC
:10085000281414020000000001000000078800882E
:100860000015011501E72B0000E72B0000282814D4
:10087000140200000000020000000771007100CCAB
:1008800000CC001A3B00001A3B0000282814140278
:10089000000000000300010007F0000801D001EE95
:1008A00001F0550000F82A00002828141402000066
:1008B0000000040004000950005000A000A000C87F
:1008C0001800007C15000028281414020000000005
:1008D000050002000F70005000B000A000C8180012
:1008E000007C1500002828141402000000000600F7
:1008F00002000F70006000E000C000C81800007C1B
:10090000150000282814140200000000070002004F
:100910000F900070000001E000C81800007C150076
:1009200000282814140200000000080003000F70C3
:10093000007000CC00CC00C81800001A3B00002852
:100940002814140200000000090003000F9000901A
:100950000020012001C8180000E72B0000282814FF
:100960001402000000000A0000000770005000B0F0
:1009700000A000F82A00007C1500002828141402AA
:100980000000000054555242205345454B004D5A3B
:10099000462053544154450050574D20504950452E
:1009A000004D5A46205354415445004D5A37205269
:1009B0004546494C4C004D5A4620554E4445520040
:1009C000454447452046495253540054415020461F
:1009D00049464F00554E44455252554E00544150E1
:1009E000204649464F004D5A462053544152540028
:1009F000554C205354415254004D5A3720534545CD
:100A00004B00554C372041434B00554C3720415249
:100A10004D00554C2053484F525400554C205245E0
:100A2000414400554C205741495400554C205348EF
:100A30004F525400554C205245414400554C2041E2
:100A40005247004D5A3720524546494C4C00504CB5
:100A50004159204552524F5200400336032C035453
:100A6000494D455200000000001000800000AA001F
:100A7000389B71BD03B503AA03A10398038F0386B6
:100A8000037F0377036E0364035A0351034903573B
:100A90004156204552524F52004E4F20574156204A
:100AA000494E464F00454D50545920574156004538
:100AB0004D50545920454447450045444745204F33
:100AC00050454E004544474520415247004D5A4944
:100AD0003100313A3200313A3300313A3400544374
:100AE00000313A3200313A3300313A3400494300A0
:100AF000313A3300313A31004D5A37303000313A13
:100B00003400313A3300313A3200313A31004E4F3D
:100B1000524D414C00535045454400554C5F4D5A91
:100B200037303000554C5F4D5A38303000554C004E
:100B300054595045004C445220424C4F434B005BAB
:100B400096A59D9AB75D004D5A46205345454B00EA
:100B50004D5A46205345454B004D5A462054494D69
:100B600045004C445220484541444552004D5A46A8
:100B70002053484F5254004D5A46204F50454E0086
:100B80004D5A46204152470054415020524541445D
:100B90000054415020464C4147005441502054528B
:100BA000554E4300544150204C454E475448005444
:100BB0004150205245414400544150204C454E473D
:100BC000544800454D505459205441500054415010
:100BD000204F50454E005441502041524700424161
:100BE0004420464F524D41540054415020545255D8
:100BF0004E4300544150205245414400544150203E
:100C00004649464F0054415020524541440054410A
:100C100050205452554E4300544150204649464FAF
:100C20000054415020464C414700544150205452FA
:100C3000554E4300544150204C454E4754480054B3
:100C40004150204C454E4754480054415020524595
:100C5000414400544150204649464F0045444745D1
:100C6000204552524F52005041544820544F4F207B
:100C70004C4F4E470025732F524543253034752E77
:100C80004C45500025732F524543253034752E4C6A
:100C90003136004544474520575249544500535486
:100CA000414745204552524F520042414420544F43
:100CB0004B454E005041544348205752495445003B
:100CC0005041544348204C4F535400424144205417
:100CD0004F4B454E0042414420544F4B454E00423D
:100CE000414420544F4B454E005041544820544FEE
:100CF0004F204C4F4E470025732F5245432530342B
:100D0000752E4D5A46004D5A4620575249544500BB
:100D10004D5A4620434845434B53554D004D5A4686
:100D200020434845434B53554D00544320434845C9
:100D3000434B53554D005443204C4F4144455200C2
:100D40004D5A49310A545950453D54430A53504570
:100D500045443D313A340A004D5A49310A545950FC
:100D6000453D4E4F524D414C0A53504545443D314F
:100D70003A340A004D5A49310A545950453D4D5AAA
:100D80003730300A53504545443D313A310A004D21
:100D90005A49310A545950453D4E4F524D414C0A23
:100DA00053504545443D313A330A004D5A49310AC2
:100DB000545950453D4E4F524D414C0A53504545B4
:100DC000443D313A320A004D5A49310A545950458E
:100DD0003D54430A53504545443D313A320A004D93
:100DE0005A49310A545950453D54430A53504545D8
:100DF000443D313A330A004D5A49310A545950455D
:100E00003D49430A53504545443D313A320A004D6D
:100E10005A49310A545950453D49430A53504545B2
:100E2000443D313A330A004D5A49310A545950452C
:100E30003D49430A53504545443D313A340A004D3B
:100E40005A49310A545950453D4D5A3730300A53AA
:100E5000504545443D313A330A004D5A49310A5410
:100E60005950453D554C5F4D5A3730300A004D5A68
:100E700049310A545950453D554C5F4D5A38303030
:100E80000A004D5A49310A545950453D554C0A0003
:100E90004D5A49310A545950453D4E4F524D414CDF
:100EA0000A53504545443D313A310A0045525200FB
:100EB00050415500504C5900524459005443203180
:100EC0003A34004E524C20313A34004D5A372031DA
:100ED0003A31004E524C20313A33004E524C2031C0
:100EE0003A3200544320313A3200544320313A33ED
:100EF00000494320313A3200494320313A33004916
:100F00004320313A34004D5A3720313A33004E52A3
:100F10004C20313A3100434D5420313A3400434D96
:100F20005420313A3300434D5420313A3200434D7E
:100F30005420313A310053494E20313A340053495C
:100F40004E20313A330053494E20313A3200534952
:100F50004E20313A31000020202020202020202067
:100F600020202000202020202020202020202020A1
:100F70002020202020202021222324252627282944
:100F80002A2B2C2D2E2F3031323334353637383949
:100F90003A3B3C3D3E3F4041424344454647484939
:100FA0004A4B4C4D4E4F5051525354555657585929
:100FB0005A5B5C5D5E5F20202020202020202020C6
:100FC0002020202020202020202020202020202021
:100FD0002020202020202020202020202020202011
:100FE00020202020202020206520202074676820D9
:100FF00062786472706371617A77737569204F6B80
:1010000066762075426A6E20556D2020206F6C41F7
:101010006F612079202020202020202020202020E7
:1010200020202020202020202020202020202020C0
:1010300020202020202020202020202020202020B0
:1010400020202020202020202020202020202020A0
:10105000202020202020524543204552524F52004C
:101060004D5A4620535441525400505245414C4C25
:101070004F43204641494C004D5A4620435245417A
:1010800054450053442043415244204552524F524C
:101090000045444745205354415254005052454165
:1010A0004C4C4F43204641494C0045444745204362
:1010B0005245415445005344204341524420455237
:1010C000524F52005245432054494D4552204552FB
:1010D0005200505245414C4C4F43204641494C0030
:1010E00057415620435245415445204552520042F3
:1010F000414420524543205241544500534420432B
:10110000415244204552524F520052454320464FCF
:10111000524D4154005245432050415553450052D1
:10112000454320524553554D450025732F25735F88
:10113000253032752E4C45500025732F25735F25C1
:101140003032752E4D5A460025732F25735F25309A
:1011500032752E4C31360025732F25735F253032C2
:10116000752E5741560025732F25732E4C45500080
:1011700025732F25732E4D5A460025732F25732E68
:101180004C31360025732F25732E57415600574199
:101190005620434C4F53452045525200574156204C
:1011A00050414420455252005441494C2057524925
:1011B00054452045525200524543204F5645524611
:1011C0004C4F57004544474520434C4F534500453D
:1011D000444745204F564552464C4F5700900E000D
:1011E00000820E6E0E5A0E3F0E270E0F0EF70DDF09
:1011F0000DC70DAB0D8F0D740D580D400D4D5A469A
:1012000020434C4F5345004D5A46205752495445B0
:10121000004D5A4620494E434F4D504C45544500D1
:101220004D5A46204445434F4445004D5A462053AD
:1012300045454B004D5A46204F564552464C4F5758
:101240000045444745204F564552464C4F570050A5
:1012500041544820544F4F204C4F4E470025732F88
:10126000524543253034752E57415600574156207C
:10127000484541444552204552520057415620545A
:101280004F4F204249470057415620575249544535
:101290002045525200444952204641494C004E4F8D
:1012A00020454E545259004F4B0053442043415265
:1012B00044204552524F5200494E53455254204308
:1012C000415244004F4B00454D505459004F4B0084
:1012D0004E4F20454E54525900504C4541534520E5
:1012E0005741495400534420494E4954004F4B0044
:1012F0004E4F20454E5452590042414420415247DE
:10130000004E4F20454E545259004E4F20454E54EA
:101310005259002E2E2F00484C4800554C004633A1
:10132000480046334C0054430049430049434C00B5
:101330005537480055374C00484C4C004E4C48003F
:101340004E4C4C00B80EB40EB00EAC0E25732025DA
:101350003032753A253032752F253032753A2530C6
:1013600032750025732020202020202020253033B6
:101370007525252000257320252D3373202020205E
:1013800025303375252520005041555345440055DF
:101390004E535550504F525445440045525220250B
:1013A0002E31327300554E4B4E4F574E000E0F00EC
:1013B00000000000000000060FFF0EF80EF10EEA1C
:1013C0000EE30EDB0ED30ECB0EC30EBC0E00004E92
:1013D0000F460F3E0F360F2E0F260F1E0F160F3221
:1013E000326B0034346B00524543005356442000A6
:1013F000524543204552524F5200524543204341EB
:101400004E43454C4C45440046494C452044454CD0
:101410004554454400504C4541534520574149549B
:10142000005741495400534156494E47200050410E
:1014300055202530326C753A2530326C7500524596
:1014400043202530326C753A2530326C750050419E
:10145000555345442020202020202020204D005797
:10146000414954205349474E414C002054430020E9
:10147000494300204D5A3730300020554C204D5AFA
:101480003730300020554C204D5A38303000205530
:101490004C00204155544F00204E4F524D414C00BE
:1014A00020313A340020313A330020313A320020E2
:1014B000313A310020323530302042640020323160
:1014C0003030204264002031383030204264002027
:1014D00031343030204264004D5A46004C45502093
:1014E00035307573004C31362031367573005741F5
:1014F000562032326B487A005741562034346B48BC
:101500007A004D414E55414C004155544F004D4FCE
:10151000544F520052454C4541534520414C4C00DC
:1015200043414C204E4F4E450053415645440043E5
:10153000414C4942524154494F4E004E4F54205362
:101540004156454400454550524F4D204552524F5B
:1015500052005553494E472044454641554C54008E
:1015600043414C20494E56414C494400504C41594E
:10157000005245434F52440053544F500052455778
:10158000494E4400464657440043414C494252416B
:1015900054494F4E004B4559504144002F5245434A
:1015A0004F5244494E475300494E534552542043ED
:1015B00041524400494E5345525420434152440045
:1015C0005041544820544F4F204C4F4E47004649FD
:1015D0004C452053454C4543544544004E414D45F0
:1015E00020544F4F204C4F4E4700454D50545920EA
:1015F000444952002E544150002E574156002E4C63
:101600003136002E4C4550002E4D3132002E4D5AB1
:1016100054002E4D5A460052454320464F524D41EC
:101620005400454D505459005245434F52443D5289
:10163000455452590053442043415244204552528C
:101640004F5200494E534552542043415244005298
:1016500045434F52443D52455452592020202000CA
:10166000202020202020202020202020202020207A
:1016700000981492148E1484147A1473146F146BDB
:1016800014202D2D00AF14AA14A514A014CF14C635
:1016900014BD14B4143E54415020535045454400E9
:1016A0003E5350454544003E4C4F41444552002076
:1016B0004D4F544F5200204D414E55414C003E502D
:1016C0004C4159204354524C00204F464600204F75
:1016D0004E003E57415620494E56455254003F0059
:1016E000F814EE14E514DC14D8140E1509150215BF
:1016F0003E524543204D4F4445004F4646004F4E15
:10170000003E4155544F4E414D45003E5245432009
:10171000545950450020253375252500253375255E
:101720002520454550524F4D20455252003E4241E2
:10173000434B4C494748540052414D202575204D9C
:10174000494E25750041424F55542076302E39625E
:101750000020494E5445524E414C002045585445B6
:10176000524E414C003E434D5420534F5552434539
:101770000000002100240027002A002D0030003343
:101780000001010000040107010A010000220025F8
:101790000028002B002E003100340002010000055B
:1017A0000108010B01F0F0F0F3F0F5F0F0F0F0F0CB
:1017B000F0F0F0F0F0F0C1C2C3C4C5C6F0F0F0F034
:1017C000F0F0F0F0F0006162636465666768696B71
:1017D0006A2F2A2E2D202122232425262728294F2F
:1017E0002C512B5749550102030405060708090A25
:1017F0000B0C0D0E0F101112131415161718191AC1
:101800005259545045C7C8C9CACBCCCDCECFDFE75B
:10181000E8E9EAECEDD0D1D2D3D4D5D6D7D8D9DA0D
:10182000DBDCDDDEC080BD9DB1B5B9B49EB2B6BA19
:10183000BE9FB3B7BBBFA385A4A5A69487889C828F
:10184000988492908391819A97939589A1AF8B8682
:1018500096A2ABAA8A8EB0AD8DA7A8A98F8CAEAC8C
:101860009BA099BCB8403B3A703C715A3D43563FEF
:101870001E4A1C5D3E5C1F5F5E377B7F367A7E337F
:101880004B4C1D6C5B7841353474303875394D6F75
:101890006E3277767273477C53314E6D48467D4485
:1018A0001B587942604D5A46204552524F52004EC5
:1018B0004F20454E545259004F4B00444952204648
:1018C00041494C004E4F5420444952000000200032
:1018D0002300260029002C002F0032000001000008
:1018E00003010601090105050505070508080808A3
:1018F000020202020A0A08080404040401010101A8
:1019000001010101030303030303030304070707A2
:101910000C0C0C0C0C0C0C0C020202020606060647
:10192000060606060B0B0B0B0B0B0B0B0102102014
:101930002008081020401020408002010201080405
:101940000201010204081020408080402010080499
:1019500002018004020180402010080402010804F2
:101960000201010204081020408001020408102036
:10197000408000000A0B02090C0D0E080703040149
:101980000000000000000000000000000000000057
:101990000000000000000000000000000000121124
:1019A0001000000000000000000000000000000027
:1019B0000000000000000000B8C911241FBECFEFD6
:1019C000D1E2DEBFCDBF00E00CBF13E0A0E0B2E08B
:1019D000E0E5FBEB01E00BBF02C007900D92AA31DE
:1019E000B107D9F727E1AAE1B3E001C01D92A738FA
:1019F000B207E1F71CE0CDEDDCE000E006C0219786
:101A00000109802FFE010E9406DCCC3DD10780E059
:101A10000807A9F70E9408CA0C94A6DD0C940000E0
:101A20008091CB0491E089278093CB041092CC0461
:101A30001092A5031092A4031092A0031092A10388
:101A40001092A2031092A30310929F0310929E0380
:101A500010929D0310929C0310929B0308958F9205
:101A60009F92AF92BF92CF92DF92EF92FF92CF936D
:101A7000DF939091D104292F30E0F901E652FB4F1A
:101A80004081411165C0A901440F551FDA01A55BD2
:101A9000B04FCD91DC9111978090D6049090D704EF
:101AA000A090D804B090D904750164016FEFC61AF4
:101AB000D60AE60AF60ABE016F5F7F4F2097F9F457
:101AC000220F331F220F331FF901E855FC4F80828C
:101AD0009182A282B38291113DC021E030E0309327
:101AE0004C0F20934B0F8093290DC092D604D092B7
:101AF000D704E092D804F092D90481E01EC029E214
:101B00003DE0992311F02BE831E1455B504FDA01BC
:101B10006D937C93C20FD31F8883C092D604D0925A
:101B2000D704E092D804F092D90481E061157240A4
:101B300021F4808398279093D104DF91CF91FF9077
:101B4000EF90DF90CF90BF90AF909F908F900895CF
:101B500080E0F3CF21E030E02D933C9380938B1114
:101B6000C4CF2091290230912A028217930710F0E6
:101B700090E080E010922001109221012091290232
:101B800030912A02215031093093290120932801F4
:101B9000909325018093240182E08ABB8091730099
:101BA0008260809373008091280288608093210175
:101BB00008952091910330919203409191035091A7
:101BC00092036091930370919403461B570B4F3F10
:101BD000574069F0F901F770EA5DFA4F80832F5F93
:101BE0003F4F309392032093910381E0089580E06A
:101BF000089580919603882349F08295807F0E9402
:101C0000D90D882321F010929603089581E008955C
:101C100082E08ABB0E94F90D811102C080E0089524
:101C200082E00E94D90D8823C9F391E09093970335
:101C30000895CF93DF93EC01D19910C080912401D6
:101C40009091250199838883109225011092240197
:101C500082E08ABB81E0DF91CF9108950E94080E57
:101C60008823C9F3EBCFCF9320919703C091C90488
:101C700030919503830F911D37FD9A95222309F426
:101C80006BC0CC2309F44AC09C012E5F3F4F37FD47
:101C90000DC03695279536952795A9014F5F5F4F63
:101CA0004138510530F080E0CF9108952FEF3FEF9C
:101CB000F4CF2F3F320779F1A901440F551F440F8C
:101CC000551F841B8093950340919103509192037B
:101CD0008091930390919403841B950B8150984FAE
:101CE000029708F38091910390919203FC01F770A1
:101CF000EA5DFA4F33E03083FC013196F770EA5D1C
:101D0000FA4F20830296909392038093910310924E
:101D1000970381E0C9CF4CEF5FEFD3CFAC014E5CAE
:101D20005F4F57FD14C030E020E04436510544F0C9
:101D3000445651092F5F3F4F20383105B1F7B3CFDB
:101D400064E6629FA001639F500D1124BACF2FEF6C
:101D50003FEF4CE95FEFB5CF1816190614F081E09C
:101D600090E09C01CC2309F445C02E5F3F4F36958F
:101D700027953695279521153105C9F1203831056C
:101D800008F091CFC22F220F220F821B8093950360
:101D9000C03108F445C00E94F90D882309F483CFAF
:101DA00040919103509192032091930330919403B9
:101DB000241B350B2150384F2230310508F473CFE6
:101DC0002091910330919203F901F770EA5DFA4F87
:101DD00091E09083F9013196F770EA5DFA4FC08384
:101DE0002E5F3F4F30939203209391035DCF21E00C
:101DF00030E0C8CF2E5C3F4F2436310530F02456FA
:101E00003109CF5FC038C1F74ECFC11101C0C1E069
:101E100024E6C29F80191124B9CFC093960379CFCD
:101E2000809196038823C9F340E1849FC001112467
:101E30008C2B0E94D90D882309F435CF109296037C
:101E400033CF9FB7F894809190039FBF90E008959F
:101E50009093740380937303109272031092710332
:101E600060936A0340931E026093700380E880933E
:101E7000260281E090E090931D0280931C028AE488
:101E800096E0611102C080EC9FE09093690380931B
:101E9000680308958091700390912602892329F0A8
:101EA00080916403909165030895809166039091F9
:101EB00067030895009711F481E090E020919A0063
:101EC00030919B00820F931F90939B0080939A0008
:101ED00008958091830390918403892BB9F08091B8
:101EE00083039091840301979093840380938303E9
:101EF00080912002909121029093800380937F0330
:101F000080E69AEE0E945A0F81E008958091810345
:101F100090918203892BD1F080918103909182036B
:101F2000109282031092810380322EE4920749F4CA
:101F300020912402309125023093800320937F0367
:101F4000E1CF2091220230912302F6CF109280033C
:101F500010927F0380E00895009711F481E090E0F3
:101F60002091940030919500820F931F90939B00D5
:101F700080939A0008954FB7F89420918E03309182
:101F80008F0380918C0390918D034FBF821B930B25
:101F900008950F931F93409185035091860360919C
:101FA000870370918803B0E0A0E08A019B0100954F
:101FB000109520953095081719072A073B0770F4EC
:101FC0008FEF9FEFDC018093850390938603A093AE
:101FD0008703B09388031F910F910895840F951F75
:101FE000A61FB71FF0CFCF92DF92EF92FF920F9311
:101FF0001F93C0907503D0907603E0907703F09024
:102000007803970186010095109520953095061765
:1020100017072807390790F48FEF9FEFDC018093B3
:10202000750390937603A0937703B09378031F9181
:102030000F91FF90EF90DF90CF900895DC01CB01DE
:102040008C0D9D1DAE1DBF1DEACFE82F8BEF8E0FAF
:10205000833048F4E550FF0BEE0FFF1FE75AF54FB2
:102060008591949108958FE59AE008958091921357
:10207000909193138B30910529F00C9731F487EEF2
:102080009BE208958AE19BE308958CE795E108952A
:102090008091000181FD03C081E08093FA0F0895D3
:1020A0009093FD0F8093FC0F1092300310922F033A
:1020B00010922E0310922D031092250310922603E6
:1020C00010922703109228031092240310922303E6
:1020D0001092220310922B0310922A031092EE0FFB
:1020E0001092ED0F1092EC0F1092FB0F1092FA0F5E
:1020F0001092F90F1092F80F1092F70F1092F60F3E
:102100001092F40F1092F30F1092F20F1092EF0F43
:10211000019711F410922C0308952091FC0F309137
:10212000FD0F23303105C1F52091921330919313A7
:102130002930310599F040F426503109223031051B
:1021400050F420E03AE00CC02B30310511F148F199
:102150002C303105D9F020E03BE002C020E03EE029
:10216000FC01318320838091FC0F9091FD0F039738
:1021700061F580919213909193138A30910551F1FA
:1021800098F40997C9F080E09AE018C020E032E1A5
:10219000E7CF20EC3CE0E4CF20910402309105022F
:1021A000DFCF20E030E1DCCF8B30910559F00C9788
:1021B00051F780E092E102C080E09CE0FB01918356
:1021C0008083089580EC9CE0F9CF80910602909185
:1021D0000702F4CF80E09EE0F1CF2091FC0F309118
:1021E000FD0F2330310581F5209192133091931327
:1021F0002A30310519F1F8F4265031092230310521
:1022000000F120E037E0FC01318320838091FC0F56
:102210009091FD0F039741F5809192139091931344
:102220008C309105B0F48A30910518F50997B1F01A
:1022300080E095E015C02C30310519F720E039E039
:10224000E2CF20E035E0DFCF2091000230910102A3
:10225000DACF0C9769F780E099E002C080E096E061
:10226000FB01918380830895809102029091030283
:10227000F7CF80E097E0F4CF4FB7F8942091580360
:102280003091590380915603909157034FBF821BA1
:10229000930B0895E0E9F0E080818F7C8083E1E793
:1022A000F0E080818B7F808308955B9A0895809110
:1022B0008B13882359F02091921330919313285057
:1022C000310981E02330310508F080E008958091E4
:1022D0008B13882359F02091921330919313265039
:1022E000310981E02230310508F080E008958091C5
:1022F0008B13882359F0209192133091931324501B
:10230000310981E02230310508F080E008958091A4
:102310008B13882359F020919213309193132350FB
:10232000310981E02330310508F080E008958823E9
:1023300011F0749A089574980895EFE9F3E180E03C
:102340009191992311F09D3059F4E82FF0E0E15676
:10235000FC4E882349F09291903231F48150F9CFAC
:102360008F5F813169F7F1CF08959C012B503109BE
:1023700081E02330310508F080E0089580918B13CF
:10238000882389F02091921330919313A90148502A
:1023900051094330510538F0C9010E94B51181112E
:1023A00002C00C946711089580918B13882331F03B
:1023B00080919213909193130C94B51180E008953D
:1023C0004F925F926F927F928F929F92AF92BF9245
:1023D000CF92DF92EF92FF92CF93DF93EC012A012D
:1023E0003B0180910F0290911002C130D10549F05C
:1023F00080910D0290910E02C330D10511F40E941C
:1024000036106C01F12CE12C64E170E0C130D10593
:1024100011F468E270E04B01B12CA12C880C991CDE
:10242000AA1CBB1CA9E0B0E0A30192010E941DDC24
:102430006C5E7F4F8F4F9F4FC60ED71EE81EF91E52
:102440000E94D411882329F0229722E630E02297B7
:1024500010F022E030E0C80CD91CEA1CFB1CC701BC
:10246000B601620F731F811D911DDF91CF91FF9007
:10247000EF90DF90CF90BF90AF909F908F907F9024
:102480006F905F904F9008952F923F924F925F927E
:102490006F927F928F929F92AF92BF92CF92DF9274
:1024A000EF92FF920F931F93CF93DF93CDB7DEB7D9
:1024B00065970FB6F894DEBF0FBECDBF9C838B83AC
:1024C0007A8369833A01098B1A8B2B8B3C8BAD8AFB
:1024D00000910F021091100258E2A52EB12C019725
:1024E00061F00B811C810330110509F049C00E9485
:1024F00036108C0144E1A42EB12C980150E040E04C
:102500002D833E834F835887C501B0E0A0E0280F9C
:10251000391F4A1F5B1F29873A874B875C87280F23
:10252000391F4A1F5B1F2D873E874F87588B190124
:102530002A0132E0230E311C411C511CA9E0B0E0FD
:102540009601A7010E941DDCAB01BC01E981FA8163
:102550003197ED30F10508F03CC18827ED54FD4E70
:102560008F4F0C9406DCC512E812F91206131B13E8
:102570001B131B135D135D135D13A113E913CB1321
:1025800000910D0210910E02B5CFB80166197709BE
:102590006016710610F070E060E090E080E06596F3
:1025A0000FB6F894DEBF0FBECDBFDF91CF911F9164
:1025B0000F91FF90EF90DF90CF90BF90AF909F90E2
:1025C0008F907F906F905F904F903F902F900895E5
:1025D0006A147B0458F4A618B7086D817E818F8138
:1025E00098856A0D7B1D811D911DD9CFB12CA12C21
:1025F000F4CF6A147B0438F4A618B70869857A8585
:102600008B859C85EECFB12CA12CF8CF82E090E099
:102610008619970942E06416710410F090E080E09A
:102620000D851E852F853889080F191F211D311D25
:10263000C901B801B4CF4601570129893A894B89AC
:102640005C89281539054A055B0510F449015A01D2
:10265000A9E0B0E0A50194010E941DDC29813A8126
:102660002650310922303105F0F489288A288B2838
:10267000D1F0AB01BC01495051096109710989814F
:102680009A810697A9F428E030E00D89201B3109D2
:10269000C901B0E0A0E08A019B01080F191F2A1FA1
:1026A0003B1FC901B801620D731D841D951D77CFB5
:1026B00088E090E0A0E0B0E0EECF72016101C40ECE
:1026C000D51EE61EF71E482D12E0181508F442E04C
:1026D00050E09A01A9E0B0E00E940EDC29813A8125
:1026E0002950310922303105C0F48820B1F09A0117
:1026F000215031090E940EDC29813A8129303105AF
:10270000D1F438E0832E912C0D89801A9108B12CD8
:10271000A12C680D791D8A1D9B1D633171058105F2
:10272000910520F062E170E080E090E06C0D7D1D8D
:102730008E1D9F1D34CF28E0822E912CA12CB12C10
:10274000E8CF6A017B0112E1C10ED11CE11CF11C32
:102750000E94D4118823C9F08B819C810297029733
:10276000A0F482E690E06816790690F4861997093D
:10277000C20CD31CE41CF51CA7019601280F391FBD
:10278000411D511DCA01B9010ACF82E090E0EBCF93
:1027900090E080E0EDCFA601B7018B819C8165962A
:1027A0000FB6F894DEBF0FBECDBFDF91CF911F9162
:1027B0000F91FF90EF90DF90CF90BF90AF909F90E0
:1027C0008F907F906F905F904F903F902F900C94E0
:1027D000E01160E070E0CB01E2CE0E94D4118823CA
:1027E00059F02091FC0F3091FD0F2250310981E00A
:1027F0002230310508F080E0089580918B13882302
:10280000A1F080919213909193139C01285031096B
:102810002330310548F00E94B511811105C00E9496
:10282000671191E08927089580E00895282F30E00E
:102830009091E60F992339F01092E40F1092E30F74
:10284000922F882708958C3490F02B54310940E260
:1028500053E0249FC001259F900D349F900D1124BB
:102860009093E40F8093E30F80E69AEE0895109220
:10287000E40F1092E30F40E253E0249FC001259F34
:10288000900D349F900D112408954FB7F894209126
:10289000EA0F3091EB0F8091E80F9091E90F4FBF55
:1028A000821B930B0895FC01608171818281938169
:1028B00008950F931F93F801A0911B14B0911C145D
:1028C000AB2B19F590931C1480931B1460931D146B
:1028D00020931E1430931F144093201450932114FE
:1028E00082899389909323148093221484899589F3
:1028F00090932514809324148481958190932714B8
:10290000809326148689809328141F910F9108952F
:10291000CF92DF92EF92FF926B01F12CE12C33E02A
:10292000CC0CDD1CEE1CFF1C3A95D1F7DC01129695
:10293000ED91FC91309791F1AF0170E060E0D7012B
:10294000C601880F991FAA1FBB1F84179507A607EA
:10295000B70720F19F01A3E0B0E00E940EDC6C15E8
:102960007D058E059F05D0F0A4E1B0E0A70196019A
:102970000E941DDC6B017C019F01ADE1B0E00E9473
:102980000EDC21E0C616D706E806F90608F420E0BA
:10299000822FFF90EF90DF90CF9008952FEFF8CF28
:1029A0009FB7F894809155039FBF90E00895AF9230
:1029B000BF92CF92DF92EF92FF920F931F93DC01B1
:1029C000DC96ED91FC91DD97309731F1808140E00C
:1029D00050E0BA0183FF0CC0408D518D628D738D24
:1029E00080899189A289B389481B590B6A0B7B0B9B
:1029F0004115B0E85B076105710520F04FEF5FE717
:102A000060E070E0CA011F910F91FF90EF90DF909E
:102A1000CF90BF90AF900895DE96ED91FC9180E04D
:102A200090E0309781F384A583FF23C02085318512
:102A3000428553856485758586859785A080B1809C
:102A4000C280D380E480F580068117810E9432DD48
:102A5000F22FE32F2F3F3F474105510561057105D7
:102A60008105910519F010F0FFEFEFE78F2F9E2FF2
:102A7000CACF20E030E040E050E060E070E080E06D
:102A800090E0E6CF9091A910662321F0892B8093E6
:102A9000A910089580958923FACF90E080E00895E9
:102AA0005B9A81E080931102089580FF05C0749ABB
:102AB00081E080937B140895749810927B1408959C
:102AC000982F8091E50F811105C081E019162CF037
:102AD00080E003C081E01916DCF30C945515EF92E9
:102AE000FF920F931F93CF93DF93DC01892B49F45F
:102AF00090E080E0DF91CF911F910F91FF90EF90D8
:102B0000089580918B13882399F3409196135091E7
:102B100097136417750760F3009192131091931344
:102B2000C8010197029708F0C4C00230110509F0EE
:102B3000BBC08091941390919513480F591F8DEE4F
:102B40008C9383E711968C93119712964C9312975E
:102B500013965C93139781E314968C931497CA0190
:102B6000429615968C93159716969C93169787E028
:102B700090E0E9EFF6E0ED01C80FD91F2DEF36E048
:102B80006491699331962E173F07D1F79C012C5F12
:102B90003F4F60919213709193136230710581F4ED
:102BA000EFE5F7E0ED01C20FD31F23E637E06491B4
:102BB000699331962E173F07D1F79C01285F3F4F4D
:102BC000ED01C20FD31F81E088839091981380910B
:102BD0009913F9013196EA0FFB1F9083818381E2FB
:102BE0008B8390919A1380919B13F9013496EA0F8D
:102BF000FB1F9083818381E18E8390919C13809150
:102C00009D13F9013796EA0FFB1F9083818385EDB1
:102C1000898787EBE82E86E0F82EC9010A968A0F8D
:102C20009B1F66EF76E0F7011491FC011193CF0131
:102C3000FFEFEF1AFF0A6E157F05A9F789EDFE0178
:102C4000E75BFF4F808391E031969083319610824D
:102C5000319690833196808331961082B901605B02
:102C60007F4F81EE319680838091921390919313E0
:102C7000029799F46A0F7B1F8DEEFB018083CF5A78
:102C8000DF4F8BE78883F901EE5AFF4FEA0FFB1FF6
:102C900040835183B9016C5A7F4FCB010196A60F37
:102CA000B71F29EE2C9326CF50E040E090E080E063
:102CB00060CF0330110509F0D6C080918F138111C8
:102CC00040C0E2E4F7E0CD014D96ED012491299357
:102CD00031968C179D07D1F781E05D968C935D97B7
:102CE00090919813809199135E969C935E975F964E
:102CF0008C935F9781E290968C93909790919A1322
:102D000080919B1391969C93919792968C93929716
:102D1000ECE7F6E0ED01A396CD01825A9F4F249196
:102D2000299331968C179D07D1F730919C132091F0
:102D30009D13FC013083A15ABF4F2C9380E690E095
:102D4000D9CE91E29C938DE111968C93119781E1FC
:102D500012968C93129713968C93139714961C9239
:102D6000149780EC15968C93159785ED16968C9399
:102D7000169721E017962C93179783E518968C9356
:102D8000189719961C9219978DEE1A968C931A978C
:102D900080EB1B968C931B9789EC1C968C931C974D
:102DA0005EE31D965C931D9748E01E964C931E971C
:102DB00033ED1F963C931F978EEC50968C93509753
:102DC0008DEC51968C93519752965C93529757E0A5
:102DD00053965C93539754968C93549755964C9373
:102DE000559743E056964C93569757968C93579722
:102DF0008EEB58968C93589782E059968C935997FE
:102E00005A963C935A9780EE5B968C935B975C96B0
:102E10002C935C9720919813809199135D962C9335
:102E20005D975E968C935E9789ED5F968C935F9726
:102E300090969C93909790919A1380919B13919662
:102E40009C93919792968C939297E1E4F6E0ED0132
:102E5000A396CD01825A9F4F2491299331968C17C6
:102E60009D07D1F762CFC8010897039760F4E1EEA0
:102E7000F5E0CD01805A9F4F24912D9331968A170A
:102E80009B07D1F75BCFED01C8010E94B5118823E4
:102E900009F447C0E7E8F5E0DE01CE01865A9F4F0E
:102EA00024912D9331968A179B07D1F78091921325
:102EB000909193138C30910581F10D9781F586E106
:102EC000FE01E55BFF4F8083319680919E138083E6
:102ED00090919813809199133196908331968083C5
:102EE00090919A1380919B133196908331968083B1
:102EF00090919C1380919D1331969083319680839D
:102F0000DE01AD5ABF4F97E0E6EBF3E101900D9281
:102F10009A95E1F78AE590E0EDCD89E2D1CF8BE19A
:102F2000CFCF045011090230110508F091C00E9462
:102F30009D11209194133091951340919A135091C3
:102F40009B1361E54115504108F463E5620F732F4F
:102F5000711D9EE3988396E199839DEC9A8392E19B
:102F60009B831C8291E19D836E837F839FED988775
:102F700020919A1330919B1309E010E02115304104
:102F800030F493ED998790EE9A870BE010E0DE0124
:102F9000A00FB11F91E09C934091981390919913C9
:102FA000F8013196EC0FFD1F4083918399ED139644
:102FB0009C93139791E214969C93149740919A13C3
:102FC00090919B13F8013596EC0FFD1F4083918380
:102FD00023E637E0A801495F5F4F4C0F5D1F61EAB0
:102FE00077E0F9019491FA019193AF012F5F3F4F80
:102FF00062177307B1F7AB5BBF4F93EC9C934091A3
:103000009C1390919D13F801EA5BFF4FEC0FFD1F9D
:1030100040839183085B1F4FE82EF12CA7016FE9D5
:1030200073E1CE01800F911F0E9465DD98012E0D86
:103030003F1DC20FD31F8DE088838091961390911E
:1030400097132F5F3F4F2817390709F051CD52CD05
:1030500081E08883909198138091991399838A8352
:1030600081E28B8390919A1380919B139C838D8333
:1030700081E18E8390919C1380919D139F8388871B
:1030800085ED89878091921390919313DE011A96B2
:10309000EDEFF6E00297D1F484918D93319687E0BD
:1030A000E134F807C9F7FE01E25BFF4F8DEE808344
:1030B00031968BE780833196108231961082CE5AFA
:1030C000DF4F89EE888383E590E014CD84918D9362
:1030D000319697E0E234F907C9F78FE490E00ACD22
:1030E000CF93DF93CDB7DEB72E970FB6F894DEBF40
:1030F0000FBECDBF2FEF260F283628F5883021E1EF
:10310000920759F5FE0133968CE0DF011D928A95F6
:10311000E9F783EC898388E08A8381E18B83DE0190
:103120001196AE01415F5F4F2D9190E080E08D30B0
:10313000910569F1FC01EB55F84E3491231327C03A
:10314000E4912E1751F180E02E960FB6F894DEBF71
:103150000FBECDBFDF91CF9108958115904C99F7A7
:1031600081E2898388E08A8381E18B838C831D825D
:1031700080EC8E8391E09F83688719869DEE9A8705
:1031800090EB9B8793EC9C871D868E87C8CF01961A
:10319000811531E0930759F6D6CF4A175B0709F03E
:1031A000C3CF81E0D1CFCF92DF92EF92FF920F9306
:1031B0001F938091CE0F882389F10E940BB6009156
:1031C000CF0F1091D00F2091D10F3091D20FDC0191
:1031D000CB01801B910BA20BB30B0091D30F10916D
:1031E000D40F2091D50F3091D60F68017901C0948A
:1031F000D094E094F094C816D906EA06FB06A8F02D
:10320000080F191F2A1F3B1F0093D30F1093D40FD1
:103210002093D50F3093D60F1092CE0F1F910F91A0
:10322000FF90EF90DF90CF9008950FEF1FEF980180
:10323000EBCF0E94D3188091231090912410A0917D
:103240002510B09126100097A105B10541F080939B
:10325000D30F9093D40FA093D50FB093D60F0895AA
:103260008091CE0F81110DC00E940BB66093CF0FDD
:103270007093D00F8093D10F9093D20F81E0809301
:10328000CE0F0895CF92DF92EF92FF921F93CF93CC
:10329000DF93182FD62FC42F0E948DB56B017C01B0
:1032A0008091030181701817B1F10E948DB56C19DE
:1032B0007D098E099F09613472448F40910580F326
:1032C00085E58093CA138CE48093CB1387E38093C6
:1032D000CC1380919213909193130597D1F08CE4C5
:1032E0008093CD1380E28093CE13D093CF13C3701D
:1032F000C05DC093D0138093D11388E00E9439B38E
:1033000080E0DF91CF911F91FF90EF90DF90CF9001
:10331000089588E4E5CF81E0F4CF4F925F926F92F9
:103320007F928F929F92AF92BF92CF92DF92EF9255
:10333000FF920F931F93CF93DF935C014B016A01C0
:103340002901CB010E94B7D8EC013C018FEF681A2C
:10335000780AF5018081882309F450C08501F801BD
:1033600081918D3009F446C08A3009F443C0882326
:1033700009F444C078015701F7018191882321F0B5
:103380008D3011F08A30C1F5E01AF10A6E147F0415
:1033900000F7AE01B401C8010E9498D8892BC9F684
:1033A000F801EC0FFD1F80818D3399F6C095D09503
:1033B000EC0EFD1EE414F50408F5B801660D771D4A
:1033C000A701C6010E9465DDEC0CFD1CF70110820F
:1033D00081E0DF91CF911F910F91FF90EF90DF90EF
:1033E000CF90BF90AF909F908F907F906F905F90A5
:1033F0004F9008958F01B3CF7F01BDCF80E0E9CF1B
:10340000FC0180A991A9009721F030E020E00C9404
:10341000A9BD82A993A9009711F00C942F858FEF75
:103420009FEF0895CF93DF931F92CDB7DEB741E0B2
:1034300050E0BE016F5F7F4F0C960E94001A01970B
:1034400031F4898190E00F90DF91CF9108958FEF53
:103450009FEFF9CF4F925F926F927F928F929F92E0
:10346000AF92BF92CF92DF92EF92FF920F931F9392
:10347000CF93DF931F92CDB7DEB7FC0104AD15AD3E
:1034800001151105A9F1F80180889188A288B388F7
:10349000C484D584E684F78430E020E041E050E045
:1034A000BE016F5F7F4FC8010E94A9BD0197E9F47B
:1034B000898190E0F801808A918AA28AB38AC486C1
:1034C000D586E686F7860F90DF91CF911F910F91F9
:1034D000FF90EF90DF90CF90BF90AF909F908F9034
:1034E0007F906F905F904F9008958FEF9FEFE2CFA6
:1034F00006AD17AD8FEF9FEF0115110521F3F80110
:10350000408051806280738084809580A680B780DF
:10351000C08CD18CE28CF38C41E050E0BE016F5F37
:103520007F4FC8010E942F85019781F4898190E027
:10353000F801408251826282738284829582A682DF
:10354000B782C08ED18EE28EF38EBDCF8FEF9FEF0C
:10355000EFCFFC0180A991A9009711F00C94B9BBA1
:1035600082A993A9009711F00C945F8080E00895E0
:103570000C960C94A91A0E94E2B0892B79F081E094
:103580008093A9100E940BB670931B0360931A03DB
:103590008091A910877E8093A910089587E0F0CFCD
:1035A0002F923F924F925F926F927F928F929F9253
:1035B000AF92BF92CF92DF92EF92FF920F931F9341
:1035C000CF93DF93CDB7DEB76E970FB6F894DEBF1B
:1035D0000FBECDBF7E876D875E8B4D8BDC01D09695
:1035E0000D90BC91A02DBA87A987109709F4E1C06E
:1035F00012968C9181FF1BC083FD21C08D889E880F
:10360000A40170E060E0E985FA8580899189A2894A
:10361000B38980959095A095B0955F01FCE0AF0EC1
:10362000B11C84179507A607B70708F0D6C4E9852B
:10363000FA858181816081831E8A1D8A9FC0A98548
:10364000BA8558964D915D916D917C915B97CD01B6
:103650000E944ABC8111D2CFEACF95010E94E5BAFF
:1036600087FDE5CF811106C089859A850E949A78E9
:103670008823E9F2A985BA851696ED91FC911797F2
:103680001C964D915D916D917C911F97425051090F
:1036900061097109848104C0440F551F661F771F9B
:1036A0008A95D2F781899289A389B489480F591FD5
:1036B0006A1F7B1FFDC4E985FA85848D958DA68DD3
:1036C000B78D0097A105B10589F4CF010E949A78C2
:1036D000882309F4ACCFE985FA8584859585A6858C
:1036E000B785848F958FA68FB78FB8C4E985FA8583
:1036F00084879587A687B787B1C421E03AC494012F
:10370000232F332726950281011B110B2017310728
:1037100008F489012801542C4424550CC416D506FC
:10372000E606F70698F0DB01CA01800F911FA11D84
:10373000B11DC816D906EA06FB0640F414A28FEFA5
:103740009FEFDC0187A390A7A1A7B2A72D853E8597
:10375000C3010E941AB828C4E985FA85808D918D2D
:10376000A28DB38D8C159D05AE05BF0538F4C08EB6
:10377000D18EE28EF38E8281806882838D899E89CC
:103780006E960FB6F894DEBF0FBECDBFDF91CF911E
:103790001F910F91FF90EF90DF90CF90BF90AF906F
:1037A0009F908F907F906F905F904F903F902F9061
:1037B0000895DC01D2960D90BC91A02DBE8FAD8FE7
:1037C000109709F439CF9E968C9181FF73C183FDC8
:1037D00052C1ED8DFE8DF081F983AD8DBE8D1196B8
:1037E000BC91B987ED8DFE8DF281FB87AD8DBE8DCD
:1037F0001396BC91BC87ED8DFE8DF481FF87AD8D56
:10380000BE8D1596BC91B88BED8DFE8DF681F98B32
:10381000AD8DBE8D1796BC91BA8BED8DFE8D408817
:10382000518862887388848895882688378829819A
:1038300039854B855C856F85788989899B2F5201F5
:103840006301740181010E943BDD11F008F03BC16E
:103850001B861C861F86188A198A1A8A1F8A188E48
:103860008D889E889A8689862D8D3E8D285E3F4F55
:103870003C8F2B8FAD8DBE8D2C9011963C90119767
:1038800012964C90129713965C90139714966C9026
:10389000149715967C90159716968C9016971796F8
:1038A0009C901797E985FA85EF2B09F40AC3909647
:1038B000ED91FC91DF01AC5DBD4FCD90DD90ED90C1
:1038C000FC90320121014C205D206E207F2092016E
:1038D00031703C8B2B8B411451046104710409F04D
:1038E00056C0AD8DBE8D5896CD90DD90ED90FC907C
:1038F0005B97C114D104E104F10409F423C19E963D
:103900008C919E9786FF0EC15C968D909D90AD9098
:10391000BC905F9718962C91189719963C9119971F
:103920001A964C911A971B965C911B971C966C915A
:103930001C971D967C911D971E968C911E971F9625
:103940009C91AFEF0E9426DDE15DFD4F0081075F96
:103950000E9402DD29833A834B835C836D837E83DF
:103960008F83988729813A814B815C81820E931ED7
:10397000A41EB51EC814D904EA04FB0408F4C4C08C
:103980008D8D9E8D0E94CE7D882309F493C0AD8DD0
:10399000BE8D9096ED91FC91DF01A15DBD4F3C90F5
:1039A0007301620119E0F694E794D794C7941A95CD
:1039B000D1F7AD8DBE8D58964D905D906D907C90F9
:1039C0005B97B2E04B1A510861087108032C04C0E0
:1039D000440C551C661C771C0A94D2F74C0C5D1CD9
:1039E0006E1C7F1CCF01885E9D4FDC014D915D9167
:1039F0006D917C91440E551E661E771E8B889C88A7
:103A0000892809F0C1C089849A84811422E0920631
:103A100008F4BAC02B853C854F85588969897A8915
:103A20008F89988DA0E00E9444DD09F0ADC04381EC
:103A300054816581768181819281811434E093067D
:103A400008F0E9C1441655066606770641F410826F
:103A50004FEF5FEFBA0143835483658376832D85EF
:103A60003E85B301A2010E949CB8882319F1212C44
:103A700082E0382E11C1AD8DBE8D18960C9118972D
:103A800019961C9119971A962C911A971B963C918E
:103A90001B971C964C911C971D965C911D971E962A
:103AA0006C911E971F967C911F97CD010E947A7E84
:103AB00081118FCEAD8DBE8D9D968C919D9781602D
:103AC0009D968C93B9CD82019301A401B1018D8D96
:103AD0009E8D0E947A7E882369F3298139854B85E2
:103AE0005C856F85788989899A895201630174019F
:103AF00081010E9432DD2B873C874F87588B698B71
:103B00007A8B8F8B988FACCE3FEFC31AD30AE30A20
:103B1000F30AAD8DBE8D5896CD92DD92ED92FC925A
:103B20005B9735CF2B8D3C8DB701A601CF010E944D
:103B3000387B082E000C990B97FDBCCF892B09F41C
:103B40001FCF25CFED8DFE8D848D958DA68DB78DE4
:103B50000097A105B10589F4CF010E94CE7D88238D
:103B600009F4A8CFED8DFE8D808D918DA28DB38D42
:103B7000848F958FA68FB78F0ACFED8DFE8D808FA6
:103B8000918FA28FB38F03CF212CB2E03B2E8B8875
:103B90009C8828183908892809F02EC1AD8DBE8D62
:103BA0002C9111963C91119712964C911297139665
:103BB0005C91139714966C91149715967C911597B8
:103BC0005096AC9050975196BC9051975296CC908D
:103BD00052975396DC9053975496EC905497559681
:103BE000FC90559756960C91569757961C9157975F
:103BF00016968C91169717969C910E943BDD08F4BF
:103C0000FBC025E0B301A201CF010E9426BA0097B4
:103C100009F450CFEB89FC89E80FF91F2B853C850F
:103C20004F85588969897A898F89988DA0E00E948B
:103C300044DD09F4E3C04101B12CA12CC12CD12CED
:103C4000760129829A82AB82BC82CD82DE82EF82AB
:103C5000F8865101C12CD12CE12CF12C00E010E0B0
:103C60000E943BDD10F4222E332EA10170E060E0B3
:103C7000CF010E946EDD8B899C89820D931D811579
:103C8000924051F4AD8DBE8D90968D919C910E9485
:103C9000F0B8882309F40ECF910150E040E060E0D5
:103CA00070E0CB0129823A834B835C836D837E83F2
:103CB0008F83988740E050E060E070E080E090E023
:103CC000AD8DBE8DAC901196BC9011971296CC9094
:103CD00012971396DC9013971496EC901497159600
:103CE000FC90159716960C91169717961C9117979E
:103CF0000E941DDD722E832E942E652E562E472E89
:103D0000F82FE92F2C9311963C93119712964C9310
:103D1000129713965C93139714966C9314971596B9
:103D20007C93159716968C93169717969C932B85D4
:103D30003C854F85588969897A898F89988DA0E05B
:103D40000E9444DD09F4B0C0A980BA80C12CD12CF6
:103D5000E12CF12C00E010E00E9432DD2B873C8743
:103D60004F87588B698B7A8B8F8B988FAD8DBE8DDB
:103D70005096AC9050975196BC9051975296CC90DB
:103D800052975396DC9053975496EC9054975596CF
:103D9000FC90559756960C91569757961C915797AD
:103DA000272D382D492D562D652D742D8F2F9E2FA3
:103DB0000E943BDD09F008F45DCD9E968C919E97A4
:103DC00080689E968C939E9750967C9250975196C1
:103DD0008C92519752969C92529753966C9253970D
:103DE00054965C92549755964C9255975696FC93E0
:103DF00056975796EC933ECD21E004CF89849A8460
:103E00008214930408F41401A1016D857E85CF010D
:103E10000E9465DD30CF09851A85012F112706958F
:103E200030E020E0812C912C5401839404C0880C54
:103E3000991CAA1CBB1C3A94D2F789829A82AB8245
:103E4000BC828C189D08AE08BF08081519052A0504
:103E50003B0510F44801590195018401A9E0000FC8
:103E6000111F221F331FAA95D1F718018401441591
:103E700055056605770588F0840C951CA61CB71CB3
:103E8000481559056A057B0540F410822FEF3FEF76
:103E9000A90123833483458356832D853E85B30151
:103EA000A2010E941AB8F5CEAD84BE84A20CB31C48
:103EB000BE86AD8629853A85221933093A87298736
:103EC00055CFED8DFE8D20853185428553856485E6
:103ED00075858685978551016201730184010E9471
:103EE0003BDD08F04BCC20863186428653866486C3
:103EF00075868686978686A5806886A73FCCFC0156
:103F00004250510961097109848104C0440F551F51
:103F1000661F771F8A95D2F781899289A389B48910
:103F2000480F591F6A1F7B1F80E092E0861997098E
:103F300024018815990508F42C016114710409F015
:103F4000DCCBA985BA8550960D911D912D913C91A0
:103F500053975896CD90DD90ED90FC905B970C15A3
:103F60001D052E053F0520F412968C9185FFC5CBCB
:103F700025E0CF0184960E9426BA009709F457CB1A
:103F8000A2016D857E85860D971D0E9465DD640CFE
:103F9000751C6114B2E07B0651F4E985FA858681CF
:103FA000978184960E94F0B8882309F440CBE98574
:103FB000FA8580899189A289B389840D951DA11DF7
:103FC000B11D808B918BA28BB38B2D853E85240DEB
:103FD000351D3E872D8784189508E985FA85C088A8
:103FE000D188E288F3888114910409F4B5CB8681E5
:103FF0009781DC0113961C91B701A60129E0769503
:104000006795579547952A95D1F714233601B1E066
:104010007B22111123C044855585668577856114FF
:10402000710409F06CCF411551056105710509F462
:1040300042CB228126FF11CB208C318C428C538CB9
:10404000C214D304E404F50408F007CB4F5F5F4FBC
:104050006F4F7F4F4487558766877787A985BA85D5
:104060001696ED91FC9117971C964D915D916D916F
:104070007C911F974250510961097109848104C0E4
:10408000440F551F661F771F8A95D2F78189928941
:10409000A389B489840F951FA61FB71FAC01BD016A
:1040A000410F511D611D711D6114710409F03CCF58
:1040B0008114B2E09B0608F437CFC7A0D0A4E1A4D6
:1040C000F2A465A076A0811424E0920608F017CB34
:1040D0004C155D056E057F0541F414A28FEF9FEF2F
:1040E000DC0187A390A7A1A7B2A72D853E85C301B8
:1040F0000E949CB8882309F49ACA412C02E0502EF1
:1041000056CF0C960C94D01ACF93DF931F92CDB755
:10411000DEB7698341E050E0BE016F5F7F4F0C96D0
:104120000E94D01A0F90DF91CF910895AC0161E108
:1041300070E08AEC93E10C949CC9CF92DF92EF92ED
:10414000FF92CF93C82F0E948DB56B017C018091A7
:1041500003018170C817B1F00E948DB56C197D09FB
:104160008E099F096132714A8740910580F38FE77C
:1041700095E00E94962080E0CF91FF90EF90DF9035
:10418000CF90089581E0F8CF1F93CF93DF93809570
:10419000C82FCC0FC11DCC0FC11D14E080E00E94C0
:1041A0009D208823E9F08C2F881F8827881F0E9474
:1041B00097115B9881E00E949D20D82F882381F081
:1041C000C6FB882780F90E9497110E945511CC0FD9
:1041D000CC0F115019F78D2FDF91CF911F910895BA
:1041E000D0E0F9CFCF93C62FAC0161E170E08CED48
:1041F00093E10E949CC9C093E70FCF91089510925C
:10420000F4041092F30410927811E7E4FFE01382B3
:10421000128211821082EEEEF4E01182108210926E
:10422000ED041092EC041092E8041092E90410924C
:10423000EA041092EB0410923E0F10923F0F10927E
:10424000400F1092410F1092420F1092430F1092A4
:10425000440F1092450F1092DF041092E004109268
:10426000E1041092E2041092F2041092E60410921B
:10427000460F1092F0041092E7041092B3031092CC
:10428000B2031092B10310923D0F10923C0F1092A6
:10429000E5041092E4041092E3041092DE04089501
:1042A0008091EC04E82FF0E0DF01AA0FBB1FA95BAF
:1042B000B04F2D913C91232B51F0E251FB4F908157
:1042C000911105C091E0908389278093EC040895B3
:1042D000CF93DF939091EC04E92FF0E0DF01A2513E
:1042E000BB4F2C91211133C029E23DE0992311F0FD
:1042F0002BE831E1EE0FFF1FE95BF04F4081518168
:10430000EA012196D183C083240F351FF9018083F0
:1043100040913E0F50913F0F6091400F7091410FBF
:104320004F5F5F4F6F4F7F4F40933E0F50933F0F54
:104330006093400F7093410F81E0C115D24021F48A
:104340008C9398279093EC04DF91CF91089580E0AF
:10435000FBCF80919F03811106C080919E03811144
:1043600002C080919D030895CF93C62FAC0161E1F7
:1043700070E08CED93E10E94E78DC093DB1380E049
:10438000CF910C9455152F923F924F925F926F925E
:104390007F928F929F92AF92BF92CF92DF92EF92D5
:1043A000FF920F931F93CF93DF93CDB7DEB7639741
:1043B0000FB6F894DEBF0FBECDBF8C017B012091FC
:1043C000FC0F3091FD0F3B8B2A8B390132E0631AD1
:1043D000710880901310B0901410A0901510909058
:1043E0001610809129038B872090200330902103A1
:1043F0002A893B89215031093D872C878A899B89ED
:10440000039709F44AC080910802282F30E03A87C8
:10441000298780910902282F30E038872F838091E7
:104420000A02282F30E03E832D8380910B02282F33
:1044300030E03C832B8380910C02282F30E03A83BC
:10444000298330910D02388B80910E02898B409028
:1044500092135090931390910F029E872091100217
:104460002F87E0912F03F0913003EE30F10508F033
:1044700055C28827E15CFD4D8F4F0C9406DC52221B
:1044800079229622D922EE221B237A239B23A6236C
:10449000CC23E023E7232224672482E090E09A875C
:1044A0008987B7CF8A899B8981309105C9F00397A5
:1044B000D1F49BE049165104C9F097EE8BE22CE051
:1044C0004216510411F09CE785E190932D038093EF
:1044D0002E0381E090E09093300380932F03C1CFAF
:1044E0009E858F85F2CF98898989EFCF9AE18BE3FA
:1044F000ECCFC0902D03D0902E03C114D10409F04D
:1045000068C02A893B8999818A812130310539F037
:1045100094E180E02330310511F09B818C819093F0
:104520002D0380932E0382E090E0D5CFC0902D0321
:10453000D0902E03C114D104A9F42A893B899D810E
:104540008E812130310539F094E180E0233031054E
:1045500011F09F81888590932D0380932E0383E033
:1045600090E0B9CFB701C8010E948D1091E0C91A3F
:10457000D108D0922E03C0922D03DD24D3948D2D2B
:1045800063960FB6F894DEBF0FBECDBFDF91CF911B
:104590001F910F91FF90EF90DF90CF90BF90AF9061
:1045A0009F908F907F906F905F904F903F902F9053
:1045B0000895C0902D03D0902E03C114D10449F466
:1045C00029853A8530932E0320932D0384E090E0D3
:1045D00082CFB701C8010E94ED10C8CFC0902D0353
:1045E000D0902E03C114D10409F0BCCF2A893B8995
:1045F00021303105C9F032E063167104B8F030E0C3
:1046000020E090E080E030932503209326039093F0
:1046100027038093280310922403109223031092FF
:104620002A0385E090E057CF30E8EACF382D2B2DD4
:104630009A2D892DE8CF4091250350912603609152
:10464000270370912803411551056105710549F44F
:1046500010922A0328E030E03093300320932F0398
:1046600000CF8A899B89019711F580912C0387FDE2
:104670003AC0E0912C0381E08E0F80932C03F0E090
:10468000E557FE4E80818093220341505109610914
:104690007109409325035093260360932703709379
:1046A000280388E080932B0326E030E0D5CF92E00A
:1046B00069167104C0F480915803909159032091B8
:1046C0005603309157038217930769F0FC01F77086
:1046D000EA5DFA4F208120932203019690935903BB
:1046E00080935803D2CF65E070E086EB99E00E949A
:1046F000B42112C1D0902B03D11003C087E090E009
:10470000EACE80912203B70187FF56C0C8010E94FC
:104710008D1080912303909124030196909324039C
:104720008093230380912203880F80932203DA94DD
:10473000D0922B0322CFB701C8010E948D1085E0D3
:1047400090E09093300380932F0317CF80912A033A
:10475000823080F00E94ED13882349F082E690E0D9
:1047600090932E0380932D032BE030E075CF82E0F1
:1047700090E0F6CF9091230320912403811101C092
:10478000922F909322038F5F80932A0388E0809377
:104790002B0389E090E09FCED0902B03D11003C073
:1047A0002AE030E059CF80912203B70187FF04C08F
:1047B000C8010E948D10B6CFC8010E94ED10B2CF83
:1047C000B701C8010E948D1088E090E0BACFC09078
:1047D0002D03D0902E03C114D10469F53B853323FA
:1047E00011F121143104F9F08091EE0F81111BC0F9
:1047F0008C859D850297B8F481E08093EE0F30920E
:104800002E0320922D032CE030E0309330032093D0
:104810002F032A893B892130310541F410922C0362
:104820008093EC0F1ECE8DE090E055CE1092EC0FF1
:104830008093ED0F16CE0E94ED13B701882309F483
:1048400092CEC8CEC0902D03D0902E03C114D104B7
:1048500041F0B701C8010E94ED1021E0C21AD10851
:1048600088CE8A899B89029759F4D090EC0FD11099
:1048700029C065E070E08BEA99E00E94B4217FCE08
:104880002A893B8921303105D9F031E06316710462
:10489000C9F030E020E090E080E0309325032093E1
:1048A00026039093270380932803109224031092E9
:1048B000230310922A031092220310922B03B1CEED
:1048C00030E8E8CF382D2B2D9A2D892DE6CF809119
:1048D000FC0F9091FD0F8230910529F50E94FD1388
:1048E000882311F081E016C040910F1050911010F4
:1048F000609111107091121080911B1090911C10FA
:10490000A0911D10B0911E10481759076A077B0728
:1049100048F382E08093EF0FD12C31CE67E070E056
:1049200081EA99E0E4CE0397A1F3DCCFCF93DF9344
:1049300000D01F92CDB7DEB7BE016D5F7F4FCE01B5
:1049400001960E94C321882339F14B815C816981E2
:104950007A819A01260F371F9091F50F911101C0AE
:10496000AB014115510511F441E050E02230310511
:1049700010F422E030E02150310930939900209367
:10498000980050939B0040939A00509343024093A9
:10499000420291E09093F20F0F900F900F900F90C2
:1049A000DF91CF910895CF93C62FAC0161E170E004
:1049B0008CED93E10E94E78DC093DB13CF910895B6
:1049C000AC0161E170E088E791E10C94E78D181685
:1049D00034F08AEA9CE00E94E02480E0089580930D
:1049E000A7036091CB046093A6039091F5049923EB
:1049F00019F090E00E94F79C8091CB0491E0892708
:104A00008093CB049093CD0481E00895DC019FB79F
:104A1000F894209193033091940340919103509125
:104A2000920380E04217530769F0F901F770EA5DDD
:104A3000FA4F80818C932F5F3F4F309394032093E4
:104A4000930381E09FBF08954FB7F894209193039B
:104A50003091940380919103909192034FBF821BF8
:104A6000930B08952F923F924F925F926F927F9295
:104A70008F92AF92BF92CF92DF92EF92FF920F93FD
:104A80001F93CF93DF9300D000D000D01F92CDB7FB
:104A9000DEB79A8789870E943E98A985BA851196C4
:104AA0009C938E9388ED90E113969C938E9312972E
:104AB000809197109091981015969C938E931497CF
:104AC0008091921016968C931697809190109091E9
:104AD000911018969C938E93179780918E109091B9
:104AE0008F101A969C938E931997809194101B9611
:104AF0008C931B97809129101C968C931C97809106
:104B00002A101D968C931D97809195109091961068
:104B10001F969C938E931E978DE790E151969C93E0
:104B20008E9350978091CE0F811145C00091D30F85
:104B30001091D40F2091D50F3091D60FE985FA85C9
:104B4000028B138B248B358B809123109091241032
:104B5000A0912510B0912610868B978BA08FB18FD6
:104B60000091791010917A107801F1E0EF1AF108B4
:104B700023E0E216F10408F09BC080918B13882398
:104B800009F496C08091FC0F9091FD0F843091053F
:104B900009F491C0039709F05FC00E946711882350
:104BA000B1F18091921390919313079709F086C009
:104BB0008BE090E033C00E940BB60091CF0F1091B4
:104BC000D00F2091D10F3091D20FDC01CB01801B8F
:104BD000910BA20BB30B0091D30F1091D40F209126
:104BE000D50F3091D60F68017901C094D094E0942C
:104BF000F094C816D906EA06FB0628F0080F191F1C
:104C00002A1F3B1F9BCF0FEF1FEF980197CF0E94EA
:104C1000D411882309F455C089E090E0A985BA85AC
:104C20005C969C938E935B9720919710309198108F
:104C3000A901445051094230510508F448C02730B9
:104C4000310509F444C0009729F0069721E0069742
:104C500008F03EC020E03CC00E945711811131C0D5
:104C60000E94D411811130C0E0919213F0919313FE
:104C70003197E730F105E0F48827EE5BF94D8F4F6F
:104C80000C9406DC4C2649264F26522655265E26D5
:104C9000D82582E090E0C2CF81E090E0BFCF83E0F2
:104CA00090E0BCCF84E090E0B9CF85E090E0B6CF53
:104CB00090E080E0B3CF8CE090E0B0CF8AE090E06D
:104CC000ADCF87E090E0AACF88E090E0A7CF21E0C9
:104CD000E985FA85228FC8010497029708F07DC004
:104CE000C090DB0FD090DC0FE090DD0FF090DE0F76
:104CF0000E9445144091D70F5091D80F6091D90F61
:104D00007091DA0FB0E0A0E0481759076A077B07F7
:104D100008F43FC09A01AB01281B390B4A0B5B0B0F
:104D2000C114D104E104F104C1F520E0A985BA85DC
:104D30005D962C938091791090917A109C0124506B
:104D400031092230310508F002C20E944514811554
:104D5000B8E09B0708F4BCC120E0A985BA855E963F
:104D60002C932A960FB6F894DEBF0FBECDBFDF910D
:104D7000CF911F910F91FF90EF90DF90CF90BF9058
:104D8000AF908F907F906F905F904F903F902F905B
:104D9000089520E030E0A901C3CF2C153D054E0554
:104DA0005F0510F024E6C2CFA4E6B0E00E941DDC4F
:104DB000970186013695279517950795600F711F06
:104DC000821F931FA70196010E94E4DB253631055F
:104DD0004105510508F4AACFE5CFF3E0EF16F10441
:104DE00008F01BC180918B13882309F49ECF80911A
:104DF000FC0F9091FD0F0497B9F4E0919813F09196
:104E00009913309709F491CF2091C1133091C213B7
:104E10004091C3135091C413A4E6B0E00E941DDC7E
:104E20009F0150E040E0D0CF8FB7F8940091FC0F85
:104E30001091FD0F20912F03309130033E832D837D
:104E400020902D0330902E03B0902C0340915803F6
:104E50005091590358874F83A0902B0380902A03C9
:104E60008FBF40E850E060E070E081E090E00E9499
:104E7000E01169837A838B839C830E94571181118F
:104E800004C00E9467118823C1F04091FF0F509128
:104E90000010609101107091021083E090E00E9478
:104EA000E01149805A806B807C80460E571E681E38
:104EB000791EC12CD12C760132C00E94871181113C
:104EC00057C080918B134091961350919713811185
:104ED00002C050E040E070E060E082E090E00E94BC
:104EE000E0116B017C0149805A806B807C804C0C06
:104EF0005D1C6E1C7F1C0E94D411882381F04091A0
:104F0000FF0F50910010609101107091021083E02A
:104F100090E00E94E011460E571E681E791E411453
:104F200051046104710409F400CF0130110529F521
:104F30000B2D10E030E020E070E8C72ED12CE12CE2
:104F4000F12CA1016D817E8181E090E00E944412EC
:104F50009201A301641575058605970510F49B0160
:104F6000AC01A4E6B0E00E941DDCA30192012CCFAD
:104F700049805A806B807C809CCF0230110509F5F6
:104F80008F8198858C0130E020E080918B13C09058
:104F90009613D0909713811102C0D12CC12CF12C03
:104FA000E12CA1016D817E8182E090E00E9444129B
:104FB00029813A814B815C81620F731F841F951F89
:104FC000C7CF03301105F9F489819A81AB81BC8187
:104FD0008C0D9D1DAE1DBF1D89839A83AB83BC8341
:104FE000C090FF0FD0900010E0900110F0900210E0
:104FF000AF81B8858D0130E020E0A1016D817E8117
:1050000083E090E0D3CF9201A301012B09F0A9CF57
:1050100020E030E040E050E0A4CF0730110509F077
:1050200084CE0E94210F049709F4BCCE80917503B1
:1050300090917603A0917703B0917803892B8A2B06
:105040008B2B09F472CE8FB7F894209185033091A1
:10505000860340918703509188038FBFC0907503EA
:10506000D0907603E0907703F09078032C153D05FF
:105070004E055F0558F569E2C6166CE5D6066FE881
:10508000E60662E0F606A0F0569547953795279517
:10509000D701C601B695A79597958795E1E0CE22F1
:1050A000DD24EE24FF24C80ED91EEA1EFB1EE3CF2A
:1050B000A4E6B0E00E941DDCA70196010E94E4DB9B
:1050C000243631054105510508F430CE23E62ECEB5
:1050D000AC0170E060E04090D70F5090D80F609026
:1050E000D90F7090DA0F441655066606770608F455
:1050F00033CE441A550A660A770AC090DB0FD09067
:10510000DC0FE090DD0FF090DE0F4C145D046E04B8
:105110007F0410F024E621CE9C01A4E6B0E00E94BA
:105120000EDCA701960124193509460957092115F6
:10513000E8E03E074105510508F069C00E94E4DB44
:10514000253631054105510508F407CEE3CF9C0112
:10515000215031092330310508F05EC08091FC0FE9
:105160009091FD0F9C01215031092330310590F6BB
:10517000019721F40E9487118111CCCF80911310E7
:1051800090911410A0911510B0911610892B8A2BB4
:105190008B2B09F4BFCF0E943C118115F8E09F07CB
:1051A00008F0DACDAC0170E060E04090071050905C
:1051B00008106090091070900A1044165506660693
:1051C000770608F4C9CD441A550A660A770AC090D2
:1051D0001310D0901410E0901510F09016104C148D
:1051E0005D046E047F0408F095CF9C01A4E6B0E056
:1051F0000E940EDCA70196012419350946095709BA
:105200002115A8E03A074105510508F497CF2FEF83
:1052100037E040E050E092CF8730910571F50E9471
:10522000BB0F4FB7F89430918A03209189034FBF89
:10523000332329F0211103C0009709F48DCD811586
:10524000B8E09B0708F088CD60917D0370917E03E4
:105250006C01F12CE12CC60ED71EE11CF11CC1140F
:10526000D104E104F10409F455CF9C01A4E6B0E0B7
:105270000E940EDCA70196015ACF069709F06CCD6B
:1052800080913302811146CF0E94E1959C01A4E6F2
:10529000B0E00E940EDC28EF3FE340E050E04ECF4C
:1052A0001092291010922A1008950F931F93CF93F4
:1052B000DF93CDB7DEB76E970FB6F894DEBF0FBEA3
:1052C000CDBF8C018B30910509F08FC082E08093B7
:1052D000130281E090E021E00D30110509F020E09B
:1052E000209329030D30110511F483E090E02EE1A5
:1052F000289FB001299F700D1124665C774F4EE105
:1053000050E0CE0101960E94A5D88E819F8124E0B5
:10531000880F991F2A95E1F790930102809300026C
:105320008885998534E0880F991F3A95E1F7909325
:105330000302809302028A859B8544E0880F991FAF
:105340004A95E1F790930502809304028C859D8530
:1053500054E0880F991F5A95E1F7909307028093C4
:1053600006020B30110509F057C082E898E09093CF
:10537000010280930002909303028093020289E469
:1053800091E1909305028093040290930702809329
:1053900006028E859F859093100280930F028A8962
:1053A0009B8990930E0280930D028E8980930C024C
:1053B0008F8980930A02888D80930B02898D809358
:1053C00009028A8D809308028B8D9C8D9093210316
:1053D000809320036E960FB6F894DEBF0FBECDBF4C
:1053E000DF91CF911F910F9108958C30910531F489
:1053F00083E08093130282E090E06DCF0E9731F44A
:1054000084E0809313028AE090E065CF81E080938E
:10541000130290E080E05FCF0C30110509F0B9CFA6
:1054200083E197E09093010280930002909303023E
:105430008093020281EC9CE0A4CF90E0882329F0C5
:10544000282F2170920F8695F9CF892F08952F92DA
:105450003F924F925F926F927F928F929F92AF9204
:10546000BF92CF92DF92EF92FF920F931F93CF9351
:10547000DF93CDB7DEB7AA970FB6F894DEBF0FBEA5
:10548000CDBF88A31A012B010A8B1B8B2C8B3D8B64
:105490008E2DDF8ECE8E0E941D2A782E8F2D0E949B
:1054A0001D2A780EA72CB12CD12CC12CAA8EBB8E14
:1054B000CC8EDD8EBE016D5F7F4FCE0101960E94C6
:1054C000ED10BE01695F7F4FCE0105960E948D10E1
:1054D00029813A818B819C81B0E0A0E06C017D0143
:1054E000C20ED31EE11CF11CCCA2DDA2EEA2FFA2D3
:1054F000D8A0E0910F02F0911002D11004C0E09109
:105500000D02F0910E0280912903882309F46DC1E8
:105510008091200390912103892B09F469C102E055
:10552000098B9101A20160E070E080E090E003E06F
:105530000E94E7DC622E39A34A01B62FA72F8AA367
:105540009BA30A891B892C893D897801890120E167
:1055500030E040E050E060E070E080E090E0570133
:105560006801E12CF12C00E010E00E9432DD5901CD
:105570006A017B018C01262D39A1A4016B2F7A2FA2
:105580008AA19BA10E941DDDA72CB12CC12CD12C7E
:10559000E12CF12C00E010E00E9432DDAA88BB88EB
:1055A000CC88DD882A0C3B1C4C1C5D1CCA8CDB8C17
:1055B000EC8CFD8C2C0C3D1C4E1C5F1C62015101BF
:1055C000E12CF12C87012A8ABB8A4C8ADD8AEE8A7B
:1055D000FF8A088F198F1F01512C412C612C712CCF
:1055E0004301B8A0BB2009F406C1C0900A02CA8ECC
:1055F000B988AB2CB12CD12CC12CE12CF12C87011A
:10560000A986BA86CB86DC86ED86FE860F87188B48
:1056100059016A017B018C01298930E040E050E0AA
:1056200060E070E080E090E00E9430DC51016201B7
:10563000730184010E941DDDAA8CB12CC12CD12CD8
:10564000E12CF12C00E010E00E941DDD0989023000
:1056500009F0D5C02090200330902103512C412C1B
:10566000612C712C430151016201730184010E947C
:105670001DDD298B3A8F49A35AA36BA378A789A76D
:105680009AA718A180910C02111102C080910B02FF
:1056900060900802680E7724771C972C990C990863
:1056A0002A893B894C895D8960E070E080E090E068
:1056B000A4E00E9426DDA984BA84CB84DC84ED8436
:1056C000FE840F8518890E9430DC59016A017B0134
:1056D0008C019301492D592D692D792D892D992DF5
:1056E0000E941DDDED81FE812F803884512C412CDC
:1056F0002E0E3F1E411C511C51016201E12CF12C68
:1057000000E010E00E9430DC19012A013B014C014D
:105710004CA15DA16EA17FA19A01AB0160E070E098
:10572000CB0129873A874B875C876D877E878F8778
:10573000988BA988BA8CC9A0DAA0EBA0F8A409A517
:105740001AA560E070E080E090E00E9430DC205616
:10575000304F4F4F5F4F6F4F7F4F8F4F9F4F5901CC
:105760006A017B018C019101A201B301C4010E9475
:105770001DDDE0E4AE2EFFE1BF2EC12CD12CE12CCB
:10578000F12C00E010E00E948ADCF42FE52F2F3F7F
:10579000AFEF3A074A075A07610571058105910580
:1057A000B9F1B0F18FEF9FEFDC01EE8DFF8D8083BB
:1057B0009183A283B38380E0AA960FB6F894DEBFEC
:1057C0000FBECDBFDF91CF911F910F91FF90EF9052
:1057D000DF90CF90BF90AF909F908F907F906F9011
:1057E0005F904F903F902F90089511E0198B99CEC4
:1057F00021E0298B96CED0900902DA8EF9CE212CA9
:10580000312C412C512C612C712C812C912C2BCFC3
:10581000C901AF2FBE2F40915A0350915B03609195
:105820005C0370915D038A019B01009510952095A2
:105830003095081719072A073B0760F48FEF9FEF91
:10584000DC0180935A0390935B03A0935C03B093B5
:105850005D03ABCF480F591F6A1F7B1F40935A034C
:1058600050935B0360935C0370935D03EE8DFF8D3B
:1058700040815181628173818A019B01009510955D
:1058800020953095081719072A073B0708F48ACF97
:10589000840F951FA61FB71F80839183A283B383B4
:1058A00081E08ACF8FB7F894109259031092580371
:1058B0001092570310925603109212028FBF089550
:1058C000EBE8F3E180E5DF011D928A95E9F70895A1
:1058D000DB01FC013197E930F10568F58827EC58C8
:1058E000F34D8F4F0C9406DC7D2C832C892C8C2C53
:1058F0008F2C922C982C862C952C8BE090E08D93FD
:105900009C9381E008958CE090E0F9CF8EE090E0E8
:10591000F6CF86E090E0F3CF87E090E0F0CF88E02C
:1059200090E0EDCF89E090E0EACF8FE090E0E7CF24
:105930008AE090E0E4CF1D921C92E3CF10922F14E6
:1059400010922E1410922B1410921C1410921B14EF
:105950000895FC01892BC9F011821082613088E022
:105960007807A0F01382128290E080E09483858310
:105970001682178210861186128613861486158663
:10598000138A128A158A148A168A089583E0660F8C
:10599000771F8A95E1F77383628391E080E0672B3C
:1059A00029F790E0E3CFCF92DF92EF92FF9210922F
:1059B0002B1410922A141092291480912E14909175
:1059C0002F148130910529F580E8C82ED12CE12CC7
:1059D000F12CC092FB13D092FC13E092FD13F092D5
:1059E000FE1370E060E08DEE93E10E94A92CC0925E
:1059F0001214D0921314E0921414F092151470E063
:105A000060E084E094E1FF90EF90DF90CF900C9401
:105A1000A92C029779F480913014882359F0809151
:105A20002C1427E1829FC001112470E060E08351B3
:105A30009C4EE9CFFF90EF90DF90CF9008952F928A
:105A40003F924F925F926F927F928F929F92AF920E
:105A5000BF92CF92DF92EF92FF920F931F93CF935B
:105A6000DF9300D000D01F92CDB7DEB780902E1408
:105A700090902F148114910499F19C0121503109C7
:105A800021153440D0F027960FB6F894DEBF0FBE34
:105A9000CDBFDF91CF911F910F91FF90EF90DF90DD
:105AA000CF90BF90AF909F908F907F906F905F90BE
:105AB0004F903F902F900C94D32CA1E0A9836111BB
:105AC00001C0198220912B14211123C090932A1414
:105AD00080932914498040921F0381E080932B1406
