:100000000C94F70D0C94280E0C94280E0C94280ECA
:100010000C94280E0C94280E0C94280E0C94280E88
:100020000C94280E0C94280E0C949D560C94280EBB
:100030000C94280E0C94280E0C94280E0C94280E68
:100040000C94280E0C94FA5A0C94280E0C94280E3A
:100050000C94280E0C94280E0C94280E0C947DCB36
:100060000C94280E0C94280E0C94280E0C94280E38
:100070000C94280E0C94280E0C94280E0C94280E28
:100080000C94C25B0C94FC580C94280E0C945D5894
:100090000C94280E0C94280E0C94280E0C94280E08
:1000A0000C94280E0C94280E0C94280E0C94280EF8
:1000B0000C94280E0C94280E0C94280E0C94995530
:1000C0000C94280E0C94280E0C94280E0C94280ED8
:1000D0000C94280E0C94280E0C94280E0C94280EC8
:1000E0000C94280E0C9454C20C94F1110C9485318C
:1000F0000C941DDF0C9410DD0C94DEE40C9447DFAF
:100100000C94A71F0C940E1A0C9435200C943712E3
:100110000C94DE2C0C949B290C94B3AA0C9401290A
:100120000C947DA20C947BE60C943ADF0C940FDFC8
:100130000C94394E0C94FA110C948C4D0C94E2E111
:100140000C94E4E10C942ADF0C9437DF0C94404EBD
:100150000C945DE40C9492A20C940D180C94ADA137
:100160000C946FC20C948F1F0C947AA20C945EE2D4
:100170000C94D1290C94EA2C0C9410DA0C94D71717
:100180000C943FE60C94E12C0C9476E20C94625AA9
:100190000C94BAAB0C9417DD0C9486110C941A18BD
:1001A0000C94B5290C94B4A20C94C0E10C94E42CEA
:1001B0000C94F32C0C944EE60C944CC20C9494A129
:1001C0000C9497310C942F180C9463DF0C94464ECA
:1001D0000C947DC20C940B260C9481A10C94771185
:1001E0000C9494310C9494C70C948B310C94C011E2
:1001F0000C94A8A10C948E310C94854D0C9403ABF7
:100200000C948BC20C94F5270C9487C20C94B411F7
:100210000C94CC590C94F2590C947F310C94F41139
:100220000C9467E50C9448C20C94BD110C943112E7
:100230000C9423DF0C9460DF0C94A9A20C9460A2B0
:100240000C9485DF0C94105A0C94B7110C9413285D
:100250000C94FC170C94BA110C94F7110C9488C7E9
:100260000C94CB110C9487DF0C94FD590C942DDF6A
:100270000C9457C20C949EA10C94A9180C949E5AED
:100280000C9475290C9470280C942C4E0C94B7A1E6
:100290000C9431290C94EB110C943F120C9488317E
:1002A0000C9446E40C946BC20C94C3110C94CE18BD
:1002B0000C94B1110C9477AB0C94841A0C9441DF1C
:1002C0000C945DC20C9438E20C94934D0C9467C26C
:1002D0000C940BE30C94DB270C948EC70C941ADF60
:1002E0000C941F2A0C94602A0C949A310C942DA122
:1002F0000C94B8C20C94EAE10C94FD110C942E12EB
:100300000C9497C70C9471C90C9475C20C949D31D0
:100310000C94E72C0C948CA20C94B3E50C9444DF61
:100320000C94C1590C9479C20C9491310C94911194
:100330000C9420DF0C94BDE10C9425E20C94EB1896
:100340000C94DFDF0C942B120C9499A10C9476E59D
:100350000C9425120C9480110C94EE110C94CDAADF
:100360000C9405120C9461C20C9442C20C947A1144
:100370000C9430DF0C949BA20C9483C20C940E2638
:100380000C94A3A10C9455E40C9408DF0C948FA258
:100390000C948BC70C94E8E10C941B5A0C948311B9
:1003A0000C947DE50C9456E60C9480C70C9491C790
:1003B0000C947D110C945A280C94B2A10C9482C216
:1003C0000C9489110C94334E0C946F180C943412C5
:1003D0000C9450C20C94CAAB0C9428120C94A12813
:1003E0000C946D2C0C9439AB54494D45522041521C
:1003F00047004241442054494D455200554E444522
:100400005252554E00424144205741560042414409
:1004100020524154450038424954204F4E4C590017
:100420004D4F4E4F204F4E4C590050434D204F4E94
:100430004C59004E4F2044415441004E4F20464DF0
:1004400054004241442052494646004E4F542057E2
:10045000415645004E4F54205249464600494F20D0
:100460004552524F52004F50454E204552524F5226
:100470000042414420415247004F4B004F4B005334
:10048000442043415244204552524F5200494E535A
:100490004552542043415244004E4F5420494E4946
:1004A000540053442043415244204552524F52007D
:1004B0004E414D4520544F4F204C4F4E470046492A
:1004C0004C45204F50454E204641494C0042414446
:1004D00020504154480046494C4520435245415420
:1004E00045204641494C0042414420504154480077
:1004F0004E4F5420444952004D4B444952204641EE
:10050000494C00444952204641494C004E4F54202A
:10051000444952004E4F5420444952004241442025
:100520004449524543544F525900524543204E418D
:100530004D45532046554C4C0044495220464149B4
:100540004C0046494C452052454144204641494CC7
:100550000046494C452052454144204641494C0003
:10056000424144204152470046494C452057524998
:100570005445204641494C004241442041524700E5
:10058000505245414C4C4F43204641494C0046494E
:100590004C45205452554E43204641494C00464953
:1005A0004C452053594E43204641494C0046494C46
:1005B00045205345454B204641494C0046494C4552
:1005C0002052454D4F56452045525200424144204D
:1005D000504154480052454E414D45204641494CFA
:1005E0000046494C45204558495354530042414424
:1005F0002052454E414D45002E544150002E57414A
:1006000056002E4C3136002E4C4550002E4D3132C6
:10061000002E4D5A54002E4D5A4600002020202016
:1006200020202020202020200020202020202020EA
:1006300020202020202020202020202021222324B0
:1006400025262728292A2B2C2D2E2F3031323334E2
:1006500035363738393A3B3C3D3E3F4041424344D2
:1006600045464748494A4B4C4D4E4F5051525354C2
:1006700055565758595A5B5C5D5E5F2020202020FC
:10068000202020202020202020202020202020206A
:10069000202020202020202020202020202020205A
:1006A0002020202020202020202020202065202005
:1006B000207467682062786472706371617A7773FE
:1006C0007569204F6B66762075426A6E20556D20E5
:1006D00020206F6C416F6120792020202020202075
:1006E000202020202020202020202020202020200A
:1006F00020202020202020202020202020202020FA
:1007000020202020202020202020202020202020E9
:100710002020202020202020202020313A320031AB
:100720003A3300313A3100544300313A3200313A21
:100730003300313A3400313A3100494300313A3321
:1007400000313A31004D5A37303000313A340031FF
:100750003A3300313A3200313A31004E4F524D4176
:100760004C00554C5F4D5A37303000554C5F4D5A58
:1007700038303000554C00574149542E2E2E00522F
:10078000454C4541534520414C4C004144433A259A
:100790003475005741495420494E50555400505229
:1007A00045535320252D3130730045444745205291
:1007B0004541440045444745204649464F00554C75
:1007C0002057414954003E08D3CEE5210000D3E430
:1007D0007ED3E077237CFE1020F43A4BD4324B0AD0
:1007E0003A4CD4321205214DD4110211010D00ED05
:1007F000B0E17CFED428122A0411D921001222046F
:1008000011CD2A00D3E4C39AE9CD2A00D3E4C3244E
:1008100001000000000000000000000000000000D7
:100820003E08D3CECD3E07360197575FCD0803CDA6
:10083000BE02D3E21AD3E01213CB6228F53EC332D4
:100840001F06215C112220062A08117D3212057C28
:10085000324B0A2A0A11220211CDF80401CF06ED0B
:1008600071D3E2DAAAE9210A11C308EDC53A1011E1
:10087000EE0C32101101CF06ED79C1C9313938378C
:100880001102E0F31AE62028FB137B121B0100047F
:100890001ACB6728FBE620B1074F7B13121B1ACB3C
:1008A0006720FBE620B1074F137B121B10E2712378
:1008B000D90B79B0D920D64F04D9C31102E0F31A6D
:1008C000E62028FB137B121BC50100041ACB672806
:1008D000FBE620B1074F7B13121B1ACB6720FBE608
:1008E00020B1074F137B121B10E271C10B2379B0AB
:1008F00020D60601D9C31102E0DD2103E0AF3D207F
:10090000FDF31AE62028FBDD360003C50100041ABA
:10091000CB6728FBE620B1074FDD3600021ACB6714
:1009200020FBE620B1074FDD36000310E271C10B5A
:100930002379B020D600E1E93E08D3CE1102E0DDF4
:100940002103E0AF3D20FDF31AE62028FBDD360051
:1009500003C50100041ACB6728FBE620B1074FDD71
:100960003600021ACB6720FBE620B1074FDD3600C8
:100970000310E271C10B2379B020D6010001D9E147
:10098000E93E08D3CECD3E07360197575FCD080329
:10099000CDBE02D3E21AD3E01213CB6228F53E0893
:1009A000D3E01102E0F37B13121B1AE62028FB139D
:1009B0007B121B0100041ACB6728FBE620B1074F0E
:1009C0007B13121B1ACB6720FBE620B1074F137B6A
:1009D000121B10E27123D90B79B0D920D64F04D95C
:1009E000C3554C205345454B00554C205345454B72
:1009F00000554C20415247004D5A462053484F5213
:100A000054004D5A462052454144004D5A46204616
:100A100049464F004D5A46204C454E475448004DDC
:100A20005A542053484F5254004D5A542052454175
:100A300044004D5A5420484541444552004D5A46C1
:100A40002053484F5254004D5A46205245414400CD
:100A50004D5A46204C454E475448004D5A54205359
:100A6000484F5254004D5A542052454144004D5A6B
:100A70005420484541444552000000000007DF0E65
:100A8000F70F521D6A1EF82A00007C150000282866
:100A90001414020000000001000000071A07B40847
:100AA000A90E4410F82A00007C1500002828141410
:100AB000020000000002000000077F05CA07FF0ACD
:100AC000F90DF82A00007C150000282814140200F3
:100AD0000000000300010007000F8010001DE01E51
:100AE000F82A00007C1500002828141402000000D9
:100AF00000040004000900050005000A000AF82AA5
:100B000000007C15000028281414020000000005D5
:100B10000002000FD0045507DA093A0BF82A00004A
:100B20007C150000282814140200000000060002B2
:100B3000000F7F05CA07FF0AF90DF82A00007C158F
:100B40000000282814140200000000070002000F13
:100B50001A07B408A90E4410F82A00007C150000FA
:100B6000282814140200000000080003000F970654
:100B70008906200D200DF82A00007C150000282889
:100B800014140200000000090003000FDD08CF0864
:100B9000AC11AC11F82A00007C15000028281414B0
:100BA00002000000000A00000007D0045507DA091F
:100BB0003A0BF82A00007C150000282814140200C3
:100BC0000000000B0002000FA90E7E10521DED1E4A
:100BD000F82A00007C1500002828141402000000E8
:100BE000000C0003000FAF0FA00F4F1F4F1FF82A7C
:100BF00000007C1500002828141402000000005496
:100C0000555242205345454B004D5A5420534545BB
:100C10004B004D5A542052454F50454E00524543CB
:100C20004F5244005B96A59D9AB75D004C445220FC
:100C3000424C4F434B004D5A54205345454B004DB9
:100C40005A462054494D45004D5A542054494D456B
:100C5000004C445220484541444552004D5A5420CE
:100C60005345454B004D5A4620535441544500507E
:100C7000574D2050495045004D5A46205354415439
:100C800045004D5A3720524546494C4C004D5A4676
:100C900020554E4445520042414420534553534948
:100CA0004F4E004544474520464952535400494E53
:100CB0005345525420434152440054415020464928
:100CC000464F00554E44455252554E005441502017
:100CD0004649464F004D5A46205354415254005500
:100CE0004C205354415254004D5A37205345454BE4
:100CF000004D5A54205345454B00554C3720414335
:100D00004B00554C372041524D00554C2053484F15
:100D1000525400554C205245414400554C205741F7
:100D2000495400554C2053484F525400554C2052C2
:100D300045414400554C20415247004D5A372052FE
:100D40004546494C4C004D5A46205354415254009C
:100D50004D5A4620535441525400504C415920455D
:100D600052524F5200FC03F203E80354494D4552DE
:100D700000000000001000800000AA00389B71797C
:100D800004710466045D0454044B0442043B0433C0
:100D9000042A04200416040D040504574156204576
:100DA00052524F52004E4F2057415620494E464F07
:100DB00000454D5054592057415600454D50545907
:100DC00020454447450045444745204F50454E0087
:100DD000454447452041524700535045454400543F
:100DE000595045004D5A54205345454B004D5A54D7
:100DF000205245434F5244004D5A5420464F524DC5
:100E00004154004D5A54205345454B004D5A5420EF
:100E1000434F554E54004D5A542048454144455285
:100E2000004D5A54205345454B004D5A46205345DA
:100E3000454B004D5A46205345454B004D5A4620E0
:100E400053484F5254004D5A46204F50454E004D86
:100E50005A462041524700544150205245414400D7
:100E600054415020464C4147005441502054525563
:100E70004E4300544150204C454E47544800544185
:100E800050205245414400544150204C454E475457
:100E90004800454D50545920544150005441502071
:100EA0004F50454E0054415020415247004241446A
:100EB00020464F524D415400544150205452554EFB
:100EC0004300544150205245414400544150204673
:100ED00049464F005441502052454144005441502E
:100EE000205452554E4300544150204649464F002D
:100EF00054415020464C41470054415020545255D3
:100F00004E4300544150204C454E475448005441F4
:100F100050204C454E4754480054415020524541C2
:100F20004400544150204649464F0045444745201F
:100F30004552524F52005041544820544F4F204C7C
:100F40004F4E470025732F524543253034752E4CA4
:100F500045500025732F524543253034752E4C31B2
:100F600036004544474520575249544500535441A3
:100F70004745204552524F520042414420544F4B66
:100F8000454E005041544348205752495445005063
:100F900041544348204C4F53540042414420544F45
:100FA0004B454E0042414420544F4B454E00424178
:100FB0004420544F4B454E005041544820544F4F0D
:100FC000204C4F4E470025732F5245432530347532
:100FD0002E4D5A46004D5A46205752495445004D11
:100FE0005A4620434845434B53554D004D5A4620E1
:100FF000434845434B53554D0054432043484543D4
:101000004B53554D005443204C4F414445520054DE
:101010005950453D54430A53504545443D313A31BA
:101020000A00545950453D49430A53504545443DF3
:10103000313A310A00545950453D4E4F524D414CC2
:101040000A53504545443D313A340A0054595045FD
:101050003D4D5A3730300A53504545443D313A31C1
:101060000A00545950453D4E4F524D414C0A535081
:101070004545443D313A330A00545950453D4E4FA1
:10108000524D414C0A53504545443D313A320A00D5
:10109000545950453D54430A53504545443D313A17
:1010A000320A00545950453D54430A535045454473
:1010B0003D313A330A00545950453D49430A535093
:1010C0004545443D313A320A00545950453D494363
:1010D0000A53504545443D313A330A00545950456E
:1010E0003D49430A53504545443D313A340A005482
:1010F0005950453D4D5A3730300A53504545443DCF
:10110000313A330A00545950453D554C5F4D5A37DA
:1011100030300A00545950453D554C5F4D5A3830D7
:10112000300A00545950453D554C0A005459504519
:101130003D4E4F524D414C0A53504545443D313A86
:10114000310A004552520050415500504C5900524E
:1011500044590054433100494331004E3134004D6D
:101160003731004E3133004E313200544332005497
:101170004333004943320049433300494334004D6F
:10118000373300554C3700554C3800554C0054430C
:1011900020313A3100494320313A31004E524C203F
:1011A000313A34004D5A3720313A31004E524C20FA
:1011B000313A33004E524C20313A32005443203100
:1011C0003A3200544320313A3300494320313A3215
:1011D00000494320313A3300494320313A34004D2D
:1011E0005A3720313A33004E524C20313A310043C5
:1011F000504D20313A340043504D20313A330043B2
:10120000504D20313A320043504D20313A31005395
:10121000494E20313A340053494E20313A3300537D
:10122000494E20313A320053494E20313A31005272
:101230004543204552524F52004D5A462053544187
:10124000525400505245414C4C4F43204641494C6A
:10125000004D5A46204352454154450053442043D3
:10126000415244204552524F520045444745205375
:101270005441525400505245414C4C4F432046413A
:10128000494C00454447452043524541544500538D
:10129000442043415244204552524F52005245434C
:1012A0002054494D45522045525200505245414C20
:1012B0004C4F43204641494C00574156204352452C
:1012C000415445204552520042414420524543205A
:1012D0005241544500534420434152442045525208
:1012E0004F520052454320464F524D415400524503
:1012F00043205041555345005245432052455355D4
:101300004D450025732F25735F253032752E4C45D2
:10131000500025732F25735F253032752E4D5A46A8
:101320000025732F25735F253032752E4C31360022
:1013300025732F25735F253032752E5741560025B2
:10134000732F25732E4C45500025732F25732E4D7A
:101350005A460025732F25732E4C31360025732FE6
:1013600025732E5741560057415620434C4F534545
:101370002045525200574156205041442045525278
:10138000005441494C20575249544520455252007F
:10139000524543204F564552464C4F57004544470F
:1013A0004520434C4F53450045444745204F564543
:1013B00052464C4F57002C110000231114110511F7
:1013C000EF10DC10C910B610A31090107910621045
:1013D0004C10351022100F104D5A4620434C4F53DD
:1013E00045004D5A46205752495445004D5A462013
:1013F000494E434F4D504C455445004D5A462044AC
:1014000045434F4445004D5A46205345454B004DFA
:101410005A46204F564552464C4F57004544474583
:10142000204F564552464C4F570050415448205487
:101430004F4F204C4F4E470025732F5245432530C8
:1014400034752E5741560057415620484541444572
:1014500052204552520057415620544F4F20424986
:101460004700574156205752495445204552520093
:10147000414E414C5953495320515545554500441F
:101480004952204641494C004E4F20454E54525936
:10149000004F4B0053442043415244204552524F89
:1014A0005200494E53455254204341524400454D49
:1014B000505459004E4F20454E5452590053442029
:1014C000494E4954004E4F20454E54525900424116
:1014D0004420415247004E4F20454E545259004E31
:1014E0004F20454E545259002E2E2F004F114B11B4
:1014F00047114311504C41004E313100484C4800D7
:10150000554C004633480046334C00544300494391
:101510000049434C005537480055374C00484C4C67
:10152000004E4C48004E4C4C00257320253032753F
:101530003A253032752F253032753A253032750014
:1015400025732020202020202020253033752525BC
:101550002000257320252D337320202020253033B3
:101560007525252000504155534544004D414E20DE
:10157000252D347320253032753A253032750053CD
:10158000454C20252D347320253032753A253032D4
:1015900075004D544920252D347320253032753A7D
:1015A00025303275004D414E20252D3473202D2DD0
:1015B0003A2D2D0053454C20252D3473202D2D3AE6
:1015C0002D2D004D544920252D3473202D2D3A2DDD
:1015D0002D00554E535550504F52544544004552DE
:1015E0005220252E31327300554E4B4E4F574E0030
:1015F000E7110000000000000000DF11D811D11138
:10160000CA11C311BC11B411AC11A4119C119511D4
:101610008E11000027121F1217120F120712FF114E
:10162000F711EF1132326B0034346B005245430036
:101630005356442000524543204552524F520052C7
:1016400045432043414E43454C4C45440046494C9C
:10165000452044454C4554454400504C4541534574
:101660002057414954005741495400534156494E6F
:10167000472000504155202530326C753A253032D4
:101680006C7500524543202530326C753A25303256
:101690006C750050415553454420202020202020C7
:1016A00020204D0057414954205349474E414C009A
:1016B0002054430020494300204D5A373030002049
:1016C000554C204D5A3730300020554C204D5A385B
:1016D00030300020554C00204155544F00204E4FD3
:1016E000524D414C0020313A340020313A33002031
:1016F000313A320020313A31002032353030204248
:1017000064002032313030204264002031383030E3
:10171000204264002031343030204264004D5A466B
:10172000004C45502035307573004C313620313631
:101730007573005741562032326B487A0057415634
:101740002034346B487A004D414E55414C00415590
:10175000544F004D4F544F520052454C4541534554
:1017600020414C4C0043414C204E4F4E45005341CC
:101770005645440043414C4942524154494F4E0062
:101780004E4F5420534156454400454550524F4D0D
:10179000204552524F52005553494E47204445462A
:1017A00041554C540043414C20494E56414C49440C
:1017B00000504C4159005245434F52440053544F3E
:1017C0005000524557494E44004646574400434155
:1017D0004C4942524154494F4E004B4559504144A7
:1017E000002F5245434F5244494E475300494E53F0
:1017F000455254204341524400494E5345525420CF
:1018000043415244005041544820544F4F204C4FC4
:101810004E470046494C452053454C4543544544AA
:10182000004E414D4520544F4F204C4F4E470045F0
:101830004D505459204449520052454320464F527E
:101840004D415400454D505459005245434F524468
:101850003D5245545259005344204341524420457F
:1018600052524F5200494E53455254204341524424
:10187000005245434F52443D524554525920202076
:101880002000202020202020202020202020202078
:10189000202000DD16D716D316C916BF16B816B409
:1018A00016B016202D2D00F416EF16EA16E51614C4
:1018B000170B170217F9163E544150205350454557
:1018C00044003E5350454544003E4C4F4144455230
:1018D00000204D4F544F5200204D414E55414C0079
:1018E0003E504C4159204354524C00204F46460034
:1018F000204F4E003E57415620494E564552540007
:101900003F003D1733172A1721171D1753174E177E
:1019100047173E524543204D4F4445004F46460031
:101920004F4E003E4155544F4E414D45003E5245AD
:101930004320545950450020253375252500253373
:1019400075252520454550524F4D20455252003EA9
:101950004241434B4C494748540052414D20257564
:10196000204D494E25750041424F55542076312E69
:10197000300020494E5445524E414C0020455854A9
:1019800045524E414C003E434D5420534F55524317
:10199000450000002100240027002A002D0030000F
:1019A000330001010000040107010A0100002200C8
:1019B000250028002B002E00310034000201000019
:1019C000050108010B014D5A46204552524F520065
:1019D000F0F0F0F3F0F5F0F0F0F0F0F0F0F0F0F0FF
:1019E000F0C1C2C3C4C5C6F0F0F0F0F0F0F0F0F002
:1019F000006162636465666768696B6A2F2A2E2DD1
:101A0000202122232425262728294F2C512B5749D2
:101A1000550102030405060708090A0B0C0D0E0FF9
:101A2000101112131415161718191A52595450453B
:101A3000C7C8C9CACBCCCDCECFDFE7E8E9EAECED29
:101A4000D0D1D2D3D4D5D6D7D8D9DADBDCDDDEC03D
:101A500080BD9DB1B5B9B49EB2B6BABE9FB3B7BB97
:101A6000BFA385A4A5A69487889C8298849290831E
:101A700091819A97939589A1AF8B8696A2ABAA8AFA
:101A80008EB0AD8DA7A8A98F8CAEAC9BA099BCB829
:101A9000403B3A703C715A3D43563F1E4A1C5D3EE6
:101AA0005C1F5F5E377B7F367A7E334B4C1D6C5BF1
:101AB0007841353474303875394D6F6E32777672BF
:101AC00073477C53314E6D48467D441B58794260C4
:101AD00053504545443D00545950453D00524543FF
:101AE0004F52443D004E4F20454E545259004449F8
:101AF00052204641494C004E4F5420444952000068
:101B00000020002300260029002C002F00320000B6
:101B10000100000301060109010505050507050887
:101B2000080808020202020A0A0808040404040160
:101B30000101010101010103030303030303030482
:101B40000707070C0C0C0C0C0C0C0C020202020612
:101B5000060606060606060B0B0B0B0B0B0B0B0102
:101B600002102020080810204010204080020102AE
:101B70000108040201010204081020408080402076
:101B800010080402018004020180402010080402B1
:101B9000010804020101020408102040800102042F
:101BA000081020408000000A0B02090C0D0E0807E7
:101BB000030401000000000000000000000000001D
:101BC0000000000000000000000000000000000015
:101BD00000121110000000000000000000000000D2
:101BE00000000000000000000000000010DA1124D6
:101BF0001FBECFEFD1E2DEBFCDBF00E00CBF13E0D0
:101C0000A0E0B2E0EEE7FDED01E00BBF02C00790FF
:101C10000D92AE34B107D9F727E1AEE4B3E001C0CD
:101C20001D92AF3DB207E1F71DE0C7EFDDE000E038
:101C300006C021970109802FFE010E94E0ECC63FFB
:101C4000D10780E00807A9F70E9460DA0C94BDEE86
:101C50000C9400008091910491E089278093910475
:101C6000109292041092670410926604109262041B
:101C7000109263041092640410926504109261043F
:101C80001092600410925F0410925E0410925D0442
:101C900008958F929F92AF92BF92CF92DF92EF9270
:101CA000FF92CF93DF9390919704292F30E0F901B1
:101CB000E056FB4F4081411165C0A901440F551FFB
:101CC000DA01A05FB24FCD91DC91119780909C0416
:101CD00090909D04A0909E04B0909F0475016401B3
:101CE0006FEFC61AD60AE60AF60ABE016F5F7F4F8B
:101CF0002097F9F4220F331F220F331FF901E65901
:101D0000FB4F80829182A282B38291113DC021E07B
:101D100030E03093110D2093100D8093C011C092CC
:101D20009C04D0929D04E0929E04F0929F0481E076
:101D30001EC020EC31E1992311F020EC3FE0405F20
:101D4000524FDA016D937C93C20FD31F8883C092E8
:101D50009C04D0929D04E0929E04F0929F0481E046
:101D60006115724021F48083982790939704DF9146
:101D7000CF91FF90EF90DF90CF90BF90AF909F906A
:101D80008F90089580E0F3CF21E030E02D933C93D5
:101D90008093C00FC4CF20912A0230912B0282176A
:101DA000930710F090E080E0109220011092210142
:101DB00020912A0230912B022150310930932901C0
:101DC00020932801909325018093240182E08ABB0F
:101DD00080917300826080937300809129028860F3
:101DE000809321010895209155043091560440912B
:101DF0005504509156046091570470915804461B45
:101E0000570B4F3F574069F0F901F770E551FB4F11
:101E100080832F5F3F4F309356042093550481E019
:101E2000089580E0089580915404882349F08295B4
:101E3000807F0E94F30E882321F0109254040895AD
:101E400081E0089582E08ABB0E94130F811102C0D5
:101E500080E0089582E00E94F30E8823C9F391E0A8
:101E6000909359040895CF93DF93EC01D19910C05A
:101E700080912401909125019983888310922501F6
:101E80001092240182E08ABB81E0DF91CF91089516
:101E90000E94220F8823C9F3EBCFCF9320915904DE
:101EA000C0918F04222309F441C0CC2359F002963B
:101EB00096958795969587958038910570F080E086
:101EC000CF910895C2968436910530F084569109D9
:101ED000CF5FC038C1F7F3CF8C2F4091550450919C
:101EE00056042091570430915804241B350B21507F
:101EF000384F2230310518F32091550430915604A3
:101F0000F901F770E551FB4F93E09083F9013196A9
:101F1000F770E551FB4F80832E5F3F4F309356049F
:101F2000209355041092590481E0CACFCC23F1F1DB
:101F3000029696958795969587950097A1F180389A
:101F4000910508F0BCCFC82FC03108F450C00E94E2
:101F5000130F882309F4B3CF4091550450915604D0
:101F60002091570430915804241B350B2150384FD1
:101F70002230310508F4A3CF209155043091560446
:101F8000F901F770E551FB4F91E09083F90131962B
:101F9000F770E551FB4FC0832E5F3F4F30935604DF
:101FA000209355048DCF81E090E0CDCFC29684364A
:101FB000910530F084569109CF5FC038C1F77FCFCB
:101FC000C111C2CF80915404C1E0811103C0C093FC
:101FD0005404AACF20E1829FC00111248C2B0E94BF
:101FE000F30E882309F46BCF1092540469CF8091CB
:101FF0005404EBCF9FB7F894809153049FBF90E0B7
:10200000089590933704809336041092350410920B
:10201000340460932D0440931F026093330480E8DE
:102020008093270281E090E090931E0280931D022E
:102030008AE496E0611102C080EC9FE090932C044A
:1020400080932B0408958091330490912702892373
:1020500029F0809127049091280408958091290403
:1020600090912A040895009711F481E090E0209166
:102070009A0030919B00820F931F90939B00809356
:102080009A0008958091460490914704892BB9F0F5
:102090008091460490914704019790934704809360
:1020A00046048091210290912202909343048093F0
:1020B000420480E69AEE0E94331081E008958091F8
:1020C000440490914504892BD1F08091440490916F
:1020D0004504109245041092440480322EE4920785
:1020E00049F4209125023091260230934304209335
:1020F0004204E1CF2091230230912402F6CF1092C6
:1021000043041092420480E00895009711F481E0A6
:1021100090E02091940030919500820F931F90934E
:102120009B0080939A0008954FB7F8942091510432
:102130003091520480914F04909150044FBF821B04
:10214000930B08950F931F934091480450914904B5
:1021500060914A0470914B04B0E0A0E08A019B01B9
:102160000095109520953095081719072A073B0709
:1021700070F48FEF9FEFDC01809348049093490443
:10218000A0934A04B0934B041F910F910895840FBC
:10219000951FA61FB71FF0CFCF92DF92EF92FF924D
:1021A0000F931F93C0903804D0903904E0903A0404
:1021B000F0903B049701860100951095209530958D
:1021C000061717072807390790F48FEF9FEFDC01F8
:1021D0008093380490933904A0933A04B0933B045D
:1021E0001F910F91FF90EF90DF90CF900895DC0149
:1021F000CB018C0D9D1DAE1DBF1DEACFE82F8BEFCF
:102200008E0F833048F4E550FF0BEE0FFF1FEB59A4
:10221000F24F8591949108958BE69DE00895809109
:10222000000181FD03C081E08093430E08959093E7
:10223000460E8093450E1092EE031092ED0310921D
:10224000EC031092EB031092E1031092E203109260
:10225000E3031092E4031092E0031092DF03109264
:10226000DE031092E7031092E6031092350E1092EF
:10227000340E1092330E1092440E1092430E1092B0
:10228000420E1092410E1092400E10923F0E10928C
:102290003E0E10923D0E10923C0E10923B0E10928C
:1022A0003A0E1092390E1092360E019711F41092D8
:1022B000EA0308958091450E9091460E039761F5CB
:1022C000E091770FF091780F3697E930F10508F536
:1022D0008827E259FE4E8F4F0C94E0EC7D117D1162
:1022E00089117A117711861183119111801184E47B
:1022F00090E1089589EF9DE0089580E09AE00895C7
:102300008FE49FE108958CEA91E1089580E29DE0D9
:1023100008958AE39BE00895809106029091070258
:1023200008958DEE9EE108958091450E9091460EA0
:10233000039761F5E091770FF091780F3697E930C8
:10234000F10508F58827E855FE4E8F4F0C94E0EC18
:10235000B711B711C311B411B111C011BD11CB1117
:10236000BA1189EA9EE008958FEF9AE0089580E01F
:102370009AE008958FE49FE108958CEA91E1089531
:1023800080E29DE008958AED99E008958091080229
:1023900090910902089582E59DE108958091450E8E
:1023A0009091460E039761F5E091770FF091780FC9
:1023B0003697E930F10508F58827EE51FE4E8F4F2C
:1023C0000C94E0ECF111F111FD11EE11EB11FA1189
:1023D000F7110512F41184EB98E008958AEC97E068
:1023E000089580E095E0089580EA9FE008958FECDD
:1023F00098E0089589E896E0089585E597E00895C6
:10240000809102029091030208958EE790E1089571
:102410008091450E9091460E039761F5E091770FFC
:10242000F091780F3697E930F10508F58827E45EDA
:10243000FD4E8F4F0C94E0EC2B122B12371228120A
:102440002512341231123F122E128AE197E00895BC
:102450008FE795E0089580E095E008958FEA9FE08A
:1024600008958DED98E0089587E996E0089580ED50
:1024700094E008958091040290910502089589EAFC
:102480009EE00895AF92BF92CF92DF92EF92FF92BB
:102490000F931F93CF93DF93F82E5B01E42E690116
:1024A000E801882319F10E949411F6019183808339
:1024B0000E945A119983888380910002882359F0E1
:1024C0008091450E9091460E039729F0A114B10416
:1024D00089F5FF2061F1DF91CF911F910F91FF905E
:1024E000EF90DF90CF90BF90AF9008950E940812B8
:1024F000F601918380830E94CE1199838883A11471
:10250000B104D1F68091D9038823B1F2823051F41D
:1025100080E09FE0F6019183808380E890E19983D9
:102520008883D9CF8FED9EE0F601918380838DE281
:1025300090E1F5CFAA94AB2839F480E090E1FF2038
:1025400071F383E79EE1EBCFFF2039F08AE69EE14D
:10255000EE2029F38DE39EE1E2CF87EF9FE0EE20AE
:10256000F1F28AEC9FE0DBCF90E0882329F0282F5E
:102570002170920F8695F9CF892F08952F923F925F
:102580004F925F926F927F928F929F92AF92BF9283
:10259000CF92DF92EF92FF920F931F93CF93DF932F
:1025A000CDB7DEB7A6970FB6F894DEBF0FBECDBF8E
:1025B0008C8B2A013B010A871B872C873D878E2D38
:1025C000DB8ACA8A0E94B412982E8F2D0E94B41200
:1025D000980EA92CB12CD12CC12CAD8ABE8ACF8AE1
:1025E000D88E0E9408129A8389830E94CE118C0192
:1025F0000E9494119F8F8E8F0E945A1199A388A3D5
:1026000030E020E068017901A980BA80CA0CDB1CA7
:10261000E11CF11CCA8EDB8EEC8EFD8EBC882090F6
:10262000110230901202B11004C020900F023090BD
:1026300010028091E503882309F475C18091DC03C1
:102640009091DD03892B09F471C102E009879201A1
:10265000A30160E070E080E090E003E00E94C1ED43
:10266000822E398F4BA35AA3B62FA72FF82FE92F0D
:102670000A851B852C853D857801890120E130E0A4
:1026800040E050E060E070E080E090E057016801D9
:10269000E12CF12C00E010E00E940CEE59016A01DF
:1026A0007B018C01282D398D4BA15AA16B2F7A2FDC
:1026B0008F2F9E2F0E94F7EDA92CB12CC12CD12C6D
:1026C000E12CF12C00E010E00E940CEEAA84BB8407
:1026D000CC84DD844A0C5B1C6C1C7D1CCD88DE88A0
:1026E000EF88F88C4C0C5D1C6E1C7F1C6301520142
:1026F000E12CF12C87014A86BB866C86DD86EE864E
:10270000FF86088B198B512C412C612C712C4301B5
:10271000BC88BB2009F40DC1C0900C02CD8AB984DD
:10272000AB2CB12CD12CC12CE12CF12C8701A9822E
:10273000BA82CB82DC82ED82FE820F831887590138
:102740006A017B018C01298530E040E050E060E0C7
:1027500070E080E090E00E940AED51016201730197
:1027600084010E94F7EDAD88B12CC12CD12CE12C55
:10277000F12C00E010E00E94F7ED0985023009F02D
:10278000DCC02090DC033090DD03512C412C612C07
:10279000712C430151016201730184010E94F7ED24
:1027A00029873D8B498F5AA36BA37CA38DA39EA33E
:1027B0001C8980910E02111102C080910D0280903F
:1027C0000A02880E9924991C292D220F220B2C8B8A
:1027D0002A853B854C855D8560E070E080E090E077
:1027E000A4E00E9400EEA980BA80CB80DC80ED805E
:1027F000FE800F8118850E940AED59016A017B0154
:102800008C0194014C89542F642F742F842F942FA2
:102810000E94F7EDA8A1B9A16D01F12CE12CEE8D7C
:10282000FF8DCE0EDF1EE11CF11C56016701E12C6D
:10283000F12C00E010E00E940AED29013A014B0161
:102840001C01CA8CDB8CEC8CFD8C56016701E12CE1
:10285000F12C8701A982BA82CB82DC82ED82FE82D2
:102860000F831887A984BD88C98CDAA0EBA0FCA0CF
:102870000DA11EA129813A814B815C8160E070E04D
:1028800080E090E00E940AED2056304F4F4F5F4F9E
:102890006F4F7F4F8F4F9F4F59016A017B018C0112
:1028A0009201A301B401C1010E94F7EDE0E4AE2E54
:1028B000FFE1BF2EC12CD12CE12CF12C00E010E067
:1028C0000E9464ED29873983F42FE52F2F3F3F4F76
:1028D0004F4F5F4F6105710581059105B9F1B0F169
:1028E0008FEF9FEFDC01EA89FB8980839183A283CC
:1028F000B38380E0A6960FB6F894DEBF0FBECDBFBF
:10290000DF91CF911F910F91FF90EF90DF90CF90CB
:10291000BF90AF909F908F907F906F905F904F90FF
:102920003F902F90089511E0198791CE21E02987DB
:102930008ECED0900B02DD8AF2CE212C312C412C90
:10294000512C612C712C812C912C24CF898599815B
:10295000AF2FBE2F40911D0450911E0460911F04A3
:10296000709120048A019B01009510952095309567
:10297000081719072A073B0760F48FEF9FEFDC0168
:1029800080931D0490931E04A0931F04B093200411
:10299000AACF480F591F6A1F7B1F40931D045093F5
:1029A0001E0460931F0470932004EA89FB89408110
:1029B0005181628173818A019B0100951095209558
:1029C0003095081719072A073B0708F489CF840FA9
:1029D000951FA61FB71F80839183A283B38381E0D5
:1029E00089CF2F923F924F925F926F927F928F92F8
:1029F0009F92AF92BF92CF92DF92EF92FF920F938E
:102A00001F93CF93DF93CDB7DEB76B970FB6F894D4
:102A1000DEBF0FBECDBF69877A878B879C87290170
:102A20003A01802FC98ADA8AEB8AFC8ABB8EAA8E89
:102A30000E94B412082F812F0E94B412E82F4985FA
:102A40005A856B857C85A3E0440F551F661F771F51
:102A5000AA95D1F7441555056605770508F405C113
:102A6000A301920160E070E0CB0149823A836B825E
:102A70005C836D837E838F8398870E0F098F4BA9AC
:102A80005CA99A0140E050E060E070E080E090E0F6
:102A9000A0E10E9400EE5401C12CD12CE12CF12CBC
:102AA00000E010E00E94F7EDA988BA88CB88DC88A6
:102AB0000E94F7EDA980BA80CB80DC800E940CEEEA
:102AC00039014A01B62FA72FF82FE92FE984FA849C
:102AD0000B851C856701780100E010E09801C9862C
:102AE000DA86EB86FC860D871E872F87388B96014A
:102AF000A70160E070E080E090E003E00E94C1ED9B
:102B000059016A017B018C019301A4016B2F7A2F7B
:102B10008F2F9E2F0E94F7EDA98CB12CC12CD12CA8
:102B2000E12CF12C00E010E00E940CEE4FA858AC14
:102B300069AC7AAC1201510163010E940AED322E98
:102B4000832E942E252E2B013C014DA95EA99A01BE
:102B500040E050E060E070E080E090E0A2E00E94A1
:102B600000EEE9A9FAA95F01C12CD12CE12CF12CCE
:102B700000E010E00E94F7EDCA8CDB8C5601D12CEE
:102B8000C12CE12CF12C8701A98ABA8ACB8ADC8A74
:102B9000ED8AFE8A0F8B188FC12CD12CE12CF12CE1
:102BA00000E010E00E94F7EDA980BA80CB80DC80C5
:102BB0000E94F7EDA984BA84CB84DC840E94F7EDEF
:102BC000A98CB12CC12CD12C0E94F7EDCBACDCAC84
:102BD000EDACFEAC56016701E12CF12C8701A98216
:102BE000BA82CB82DC82ED82FE820F831887E12CD1
:102BF000F12C00E010E00E940AED2056304F4F4FBC
:102C00005F4F6F4F7F4F8F4F9F4F59016A017B017D
:102C10008C01232D382D492D522DB201C3010E9464
:102C2000F7EDE0E4AE2EFFE1BF2EC12CD12CE12C5C
:102C3000F12C00E010E00E9464EDF42FE52F2F3F0F
:102C4000AFEF3A074A075A076105710581059105FB
:102C500071F068F08FEF9FEFDC012196EEADFFADD4
:102C6000219780839183A283B38380E01FC0C90131
:102C7000AF2FBE2F2196EEADFFAD21974081518140
:102C8000628173818A019B01009510952095309592
:102C9000081719072A073B07E8F2840F951FA61F9C
:102CA000B71F80839183A283B38381E06B960FB6B5
:102CB000F894DEBF0FBECDBFDF91CF911F910F9172
:102CC000FF90EF90DF90CF90BF90AF909F908F904C
:102CD0007F906F905F904F903F902F9008954FB7E7
:102CE000F8942091E8033091E9038091DA03909100
:102CF000DB034FBF821B930B0895E0E9F0E0808176
:102D00008F7C8083E1E7F0E080818B7F8083089572
:102D10005B9A08958091700F882359F02091770F66
:102D20003091780F2650310981E02230310508F0CA
:102D300080E008958091700F882359F02091770FDB
:102D40003091780F2450310981E02230310508F0AC
:102D500080E008958091700F882359F02091770FBB
:102D60003091780F2350310981E02330310508F08C
:102D700080E00895882311F0749A08957498089556
:102D8000E4E8FFE080E09191992311F09D3059F43F
:102D9000E82FF0E0EC57F04F882349F09291903201
:102DA00031F48150F9CF8F5F813169F7F1CF089508
:102DB0008E30910549F09C012B50310981E0223081
:102DC000310518F080E0089581E008958091700F3A
:102DD000882331F08091770F9091780F0C94D8165A
:102DE00080E008954F925F926F927F928F929F92B0
:102DF000AF92BF92CF92DF92EF92FF92CF93DF9389
:102E0000EC019A01AB0160911102709112028130C4
:102E1000910541F060910F0270911002039711F437
:102E20006CE775E12B01712C612C64E170E0C1301D
:102E3000D10511F468E270E04B01B12CA12C880C93
:102E4000991CAA1CBB1CA9E0B0E00E94F7EC6B0126
:102E50007C0124E1C20ED11CE11CF11CC40CD51C68
:102E6000E61CF71C0E94E616882329F0229722E62A
:102E700030E0229710F022E030E0C80CD91CEA1CA8
:102E8000FB1CC701B601620F731F811D911DDF91ED
:102E9000CF91FF90EF90DF90CF90BF90AF909F9039
:102EA0008F907F906F905F904F9008952F923F92F8
:102EB0004F925F926F927F928F929F92AF92BF924A
:102EC000CF92DF92EF92FF920F931F93CF93DF93F6
:102ED000CDB7DEB764970FB6F894DEBF0FBECDBF97
:102EE0002C011B013A01088B198B2A8B3B8BAC8A76
:102EF0008B828130910509F04CC000911102109134
:102F000012021A83098308E210E049815A819A016A
:102F100050E040E02C833D834E835F83C801B0E0E6
:102F2000A0E0280F391F4A1F5B1F288739874A876F
:102F30005B87280F391F4A1F5B1F2C873D874E87F1
:102F40005F8749015A0152E0850E911CA11CB11CFA
:102F5000A9E0B0E09601A7010E94F7ECAB01BC012B
:102F6000F1013197ED30F10508F035C18827E454BF
:102F7000F84E8F4F0C94E0ECD717FC170D181A1869
:102F80002F182F182F186F186F186F18A918EB1813
:102F9000CE18039749F000910F02109110021A8386
:102FA000098304E110E0B1CF0CE715E1F8CF098106
:102FB0001A81B801661977096016710610F070E081
:102FC00060E090E080E064960FB6F894DEBF0FBE3C
:102FD000CDBFDF91CF911F910F91FF90EF90DF90C8
:102FE000CF90BF90AF909F908F907F906F905F90A9
:102FF0004F903F902F9008956016710658F406196F
:1030000017096C817D818E819F81600F711F811DE9
:10301000911DD9CF10E000E0F4CF6016710638F4AE
:1030200006191709688579858A859B85EECF10E09A
:1030300000E0F8CF82E090E08619970912E061166F
:10304000710410F090E080E00C851D852E853F8591
:10305000080F191F211D311DC901B801B4CF260168
:103060003701088919892A893B8904151505260520
:10307000370510F428013901A9E0B0E0A30192015D
:103080000E94F7EC9101265031092230310510F5EC
:10309000452846284728F1F0AB01BC0149505109A9
:1030A0006109710988E090E0A0E0B0E016E0211627
:1030B000310441F428E030E00C89201B3109C901BA
:1030C000B0E0A0E08A019B01080F191F2A1F3B1FD7
:1030D000C901B801680D791D8A1D9B1D74CF840E2E
:1030E000951EA61EB71E4B81433008F042E050E00B
:1030F0009A01A9E0B0E00E94E8EC91012950310961
:1031000022303105B8F41B811123A1F09A0121501E
:1031100031090E94E8EC29E022163104A9F408E004
:1031200010E03C89031B110930E020E0600F711FA3
:10313000821F931F633171058105910558F262E189
:1031400070E080E090E0C6CF08E010E020E030E0E2
:10315000EDCF6A017B0182E1C80ED11CE11CF11C9C
:103160000E94E616882349F092E0491A510882E647
:1031700090E0A2E04A16510410F082E090E0681658
:10318000790648F486199709C80CD91CEA1CFB1C5F
:10319000970186015DCF90E080E0F6CFA601B701F0
:1031A000C20164960FB6F894DEBF0FBECDBFDF91AB
:1031B000CF911F910F91FF90EF90DF90CF90BF9034
:1031C000AF909F908F907F906F905F904F903F90C7
:1031D0002F900C94F21660E070E0CB01F4CE0E94C8
:1031E000E616882359F02091450E3091460E225064
:1031F000310981E02230310508F080E008958D30FA
:10320000910549F09C012850310981E023303105B6
:1032100018F080E0089581E00895CF93DF938091C6
:10322000700F882391F0C091770FD091780FCE0165
:103230000E94FF18811109C0CE010E94D816811189
:1032400004C0DF91CF910C948A16DF91CF9108953D
:103250008091700F882331F08091770F9091780FD3
:103260000C94FF1880E008950F931F93CF93C091A3
:10327000700FCC2399F00091770F1091780FC8014F
:103280000E94FF18C82F81110EC0C8010E94D816D5
:10329000811104C00E948A16C1E0C8278C2FCF91EB
:1032A0001F910F910895C0E0F9CF8091A70E9091E2
:1032B000A80E0197039710F40C94341980E0089538
:1032C000282F30E090912D0E992339F010922B0E7B
:1032D00010922A0E922F882708958C3490F02B5448
:1032E000310940E253E0249FC001259F900D349F97
:1032F000900D112490932B0E80932A0E80E69AEE67
:10330000089510922B0E10922A0E40E253E0249F53
:10331000C001259F900D349F900D112408954FB743
:10332000F8942091310E3091320E80912F0E9091B1
:10333000300E4FBF821B930B0895FC016081718199
:10334000828193810895982F9F7D91549A31D0F076
:1033500090ED980F9A30B0F08032A1F093ED980F75
:10336000923080F08F3571F098ED980F923050F0D8
:103370008B3241F0662321F061E08F3209F060E08A
:10338000862F089561E0FCCFCF92DF92EF92FF92FB
:103390000F931F93CF93DF93D42EC22E8C017C0109
:1033A000E60EF11CD0E0E016F10639F1F801C1910A
:1033B0008F01CC2311F1CD3001F1D11005C0EC2FDC
:1033C000F0E0E55EF94FC4918C2F8F7D81548A31F6
:1033D00080F080ED8C0F8A3060F06C2D8C2F0E9475
:1033E000A319882301F3C032F1F2DF3FE1F2DF5F7E
:1033F000DACFDE3FC0F6DE5FD6CF8D2FDF91CF91E3
:103400001F910F91FF90EF90DF90CF9008959FB79D
:10341000F89480911C049FBF90E00895AF92BF92F2
:10342000CF92DF92EF92FF920F931F93DC01DC9615
:10343000ED91FC91DD97309731F1808140E050E0D3
:10344000BA0183FF0CC0408D518D628D738D8089D0
:103450009189A289B389481B590B6A0B7B0B4115D3
:10346000B0E85B076105710520F04FEF5FE760E0B2
:1034700070E0CA011F910F91FF90EF90DF90CF9005
:10348000BF90AF900895DE96ED91FC9180E090E0C2
:10349000309781F384A583FF23C020853185428541
:1034A00053856485758586859785A080B180C280A7
:1034B000D380E480F580068117810E940CEEF22F04
:1034C000E32F2F3F3F4741055105610571058105F8
:1034D000910519F010F0FFEFEFE78F2F9E2FCACF65
:1034E00020E030E040E050E060E070E080E090E01C
:1034F000E6CF90915503662321F0892B80935503E5
:10350000089580958923FACF90E080E008955B9A32
:1035100081E080931302089580FF05C0749A81E0D2
:103520008093D314089574981092D3140895982F0B
:1035300080912C0E811105C081E019162CF080E0DD
:1035400003C081E01916DCF30C948C1AEF92FF9201
:103550000F931F93CF93DF93DC01892B49F490E005
:1035600080E0DF91CF911F910F91FF90EF90089530
:103570008091700F882399F340917B0F50917C0FBD
:103580006417750760F30091770F1091780FC801E9
:103590000197029708F0C4C00230110509F0BBC0C2
:1035A0008091790F90917A0F480F591F8DEE8C936F
:1035B00083E711968C93119712964C93129713965A
:1035C0005C93139781E314968C931497CA014296E7
:1035D00015968C93159716969C93169787E090E016
:1035E000E8E3F9E0ED01C80FD91F2CE339E064915D
:1035F000699331962E173F07D1F79C012C5F3F4FFF
:103600006091770F7091780F6230710581F4EEE967
:10361000F9E0ED01C20FD31F22EA39E0649169930A
:1036200031962E173F07D1F79C01285F3F4FED01E0
:10363000C20FD31F81E0888390917D0F80917E0F10
:10364000F9013196EA0FFB1F9083818381E28B831E
:1036500090917F0F8091800FF9013496EA0FFB1F44
:103660009083818381E18E839091810F8091820F7D
:10367000F9013796EA0FFB1F9083818385ED8987D7
:1036800086EFE82E88E0F82EC9010A968A0F9B1F64
:1036900065E379E0F7011491FC011193CF01FFEF8D
:1036A000EF1AFF0A6E157F05A9F789EDFE01E75BAA
:1036B000FF4F808391E0319690833196108231964E
:1036C00090833196808331961082B901605B7F4F81
:1036D00081EE319680838091770F9091780F0297D9
:1036E00099F46A0F7B1F8DEEFB018083CF5ADF4F69
:1036F0008BE78883F901EE5AFF4FEA0FFB1F4083E7
:103700005183B9016C5A7F4FCB010196A60FB71FA9
:1037100029EE2C9326CF50E040E090E080E060CF8F
:103720000330110509F0D6C08091740F811140C09B
:10373000E1E8F9E0CD014D96ED0124912993319610
:103740008C179D07D1F781E05D968C935D979091E2
:103750007D0F80917E0F5E969C935E975F968C9313
:103760005F9781E290968C93909790917F0F8091D4
:10377000800F91969C93919792968C939297EBEBF6
:10378000F8E0ED01A396CD01825A9F4F2491299331
:1037900031968C179D07D1F73091810F2091820FC0
:1037A000FC013083A15ABF4F2C9380E690E0D9CE24
:1037B00091E29C938DE111968C93119781E1129681
:1037C0008C93129713968C93139714961C921497BC
:1037D00080EC15968C93159785ED16968C9316971D
:1037E00021E017962C93179783E518968C931897DA
:1037F00019961C9219978DEE1A968C931A9780EB56
:103800001B968C931B9789EC1C968C931C975EE3FC
:103810001D965C931D9748E01E964C931E9733EDC2
:103820001F963C931F978EEC50968C9350978DEC7F
:1038300051968C93519752965C93529757E05396BA
:103840005C93539754968C93549755964C935597F5
:1038500043E056964C93569757968C9357978EEB1A
:1038600058968C93589782E059968C9359975A960C
:103870003C935A9780EE5B968C935B975C962C9367
:103880005C9720917D0F80917E0F5D962C935D97C4
:103890005E968C935E9789ED5F968C935F9790967A
:1038A0009C93909790917F0F8091800F91969C931D
:1038B000919792968C939297E0E8F8E0ED01A396A9
:1038C000CD01825A9F4F2491299331968C179D07E1
:1038D000D1F762CFED01C8010E94FF18882361F083
:1038E000E0E2F8E0CE01805A9F4F2491299331966F
:1038F0008C179D07D1F759CFC8010E94D81688238D
:1039000009F447C0E6ECF7E0DE01CE01865A9F4F8E
:1039100024912D9331968A179B07D1F78091770FC9
:103920009091780F8C30910591F10E9771F582E5A9
:10393000FE01E55BFF4F808331968091830F80838A
:1039400090917D0F80917E0F319690833196808388
:1039500090917F0F8091800F319690833196808374
:103960009091810F8091820F319690833196808360
:10397000DE01AD5ABF4F97E0EBE9FFE001900D92F9
:103980009A95E1F78AE590E0ECCD8BE1D1CF89E221
:10399000CFCF045011090230110508F091C00E94E8
:1039A000C0162091790F30917A0F40917F0F50917E
:1039B000800F61E54115504108F463E5620F732FF4
:1039C000711D9EE3988396E199839DEC9A8392E121
:1039D0009B831C8291E19D836E837F839FED9887FB
:1039E00020917F0F3091800F09E010E021153041C8
:1039F00030F493ED998790EE9A870BE010E0DE01AA
:103A0000A00FB11F91E09C9340917D0F90917E0F8C
:103A1000F8013196EC0FFD1F4083918399ED1396C9
:103A20009C93139791E214969C93149740917F0F67
:103A30009091800FF8013596EC0FFD1F4083918324
:103A400022EA39E0A801495F5F4F4C0F5D1F60EE2D
:103A500079E0F9019491FA019193AF012F5F3F4F03
:103A600062177307B1F7AB5BBF4F93EC9C93409128
:103A7000810F9091820FF801EA5BFF4FEC0FFD1F61
:103A800040839183085B1F4FE82EF12CA70164E867
:103A90007FE0CE01800F911F0E943FEE98012E0D16
:103AA0003F1DC20FD31F8DE0888380917B0F9091C3
:103AB0007C0F2F5F3F4F2817390709F050CD51CDAC
:103AC00081E0888390917D0F80917E0F99838A8316
:103AD00081E28B8390917F0F8091800F9C838D83F7
:103AE00081E18E839091810F8091820F9F838887DF
:103AF00085ED89878091770F9091780FDE011A9676
:103B0000ECE3F9E00297D1F484918D93319689E04A
:103B1000E038F807C9F7FE01E25BFF4F8DEE8083C6
:103B200031968BE780833196108231961082CE5A7F
:103B3000DF4F89EE888383E590E013CD84918D93E8
:103B4000319699E0E138F907C9F78FE490E009CDA3
:103B5000CF93DF93CDB7DEB72E970FB6F894DEBFC5
:103B60000FBECDBF2FEF260F283628F5883021E174
:103B7000920759F5FE0133968CE0DF011D928A957C
:103B8000E9F783EC898388E08A8381E18B83DE0116
:103B90001196AE01415F5F4F2D9190E080E08D3036
:103BA000910569F1FC01E053F64E3491231327C0CF
:103BB000E4912E1751F180E02E960FB6F894DEBFF7
:103BC0000FBECDBFDF91CF9108958115904C99F72D
:103BD00081E2898388E08A8381E18B838C831D82E3
:103BE00080EC8E8391E09F83688719869DEE9A878B
:103BF00090EB9B8793EC9C871D868E87C8CF0196A0
:103C0000811531E0930759F6D6CF4A175B0709F0C3
:103C1000C3CF81E0D1CFCF92DF92EF92FF920F938B
:103C20001F938091F303882389F10E94D1CA0091E8
:103C3000EF031091F0032091F1033091F203DC01C6
:103C4000CB01801B910BA20BB30B0091F4031091DD
:103C5000F5032091F6033091F70368017901C094D0
:103C6000D094E094F094C816D906EA06FB06A8F0B2
:103C7000080F191F2A1F3B1F0093F4031093F5032D
:103C80002093F6033093F7031092F3031F910F91E3
:103C9000FF90EF90DF90CF9008950FEF1FEF980106
:103CA000EBCF0E940B1E8091990E90919A0EA091DD
:103CB0009B0EB0919C0E0097A105B10541F0809339
:103CC000F4039093F503A093F603B093F7030895DC
:103CD0008091F30381110DC00E94D1CA6093EF035C
:103CE0007093F0038093F1039093F20381E080934B
:103CF000F3030895CF92DF92EF92FF921F93CF9339
:103D0000DF93182FD62FC42F0E9454CA6B017C0159
:103D10008091030181701817B1F10E9454CA6C1987
:103D20007D098E099F09613472448F40910580F3AB
:103D300085E58093AF0F8CE48093B00F87E3809389
:103D4000B10F8091770F9091780F0597D1F08CE4A7
:103D50008093B20F80E28093B30FD093B40FC370FF
:103D6000C05DC093B50F8093B60F88E00E9400C875
:103D700080E0DF91CF911F91FF90EF90DF90CF9087
:103D8000089588E4E5CF81E0F4CF4F925F926F927F
:103D90007F928F929F92AF92BF92CF92DF92EF92DB
:103DA000FF920F931F93CF93DF935C014B016A0146
:103DB0002901CB010E9483E9EC013C018FEF681AD5
:103DC000780AF5018081882309F450C08501F80143
:103DD00081918D3009F446C08A3009F443C08823AC
:103DE00009F444C078015701F7018191882321F03B
:103DF0008D3011F08A30C1F5E01AF10A6E147F049B
:103E000000F7AE01B401C8010E9464E9892BC9F62C
:103E1000F801EC0FFD1F80818D3399F6C095D09588
:103E2000EC0EFD1EE414F50408F5B801660D771DCF
:103E3000A701C6010E943FEEEC0CFD1CF7011082A9
:103E400081E0DF91CF911F910F91FF90EF90DF9074
:103E5000CF90BF90AF909F908F907F906F905F902A
:103E60004F9008958F01B3CF7F01BDCF80E0E9CFA0
:103E7000AF92BF92CF92DF92EF92FF920F931F9378
:103E8000CF93DF930097B9F17B018C01EC0109908E
:103E90000020E9F72197C81BD90BCB010E9483E9C9
:103EA0006C01C817D90738F1C81BD90BC00FD11F37
:103EB00010E000E0C016D10691F0F701E00FF11F0D
:103EC000B490899190E00E942AEEA82E8B2D90E06C
:103ED0000E942AEEA8120FC00F5F1F4FEBCF81E0A8
:103EE000DF91CF911F910F91FF90EF90DF90CF90D6
:103EF000BF90AF90089580E0F3CFFC0180A991A915
:103F0000009721F030E020E00C94F68582A993A977
:103F1000009711F00C94C18F8FEF9FEF0895CF930E
:103F2000DF931F92CDB7DEB741E050E0BE016F5F77
:103F30007F4F0C960E947D1F019731F4898190E09C
:103F40000F90DF91CF9108958FEF9FEFF9CF4F92B0
:103F50005F926F927F928F929F92AF92BF92CF9219
:103F6000DF92EF92FF920F931F93CF93DF931F92F5
:103F7000CDB7DEB7FC0104AD15AD01151105A9F1F2
:103F8000F80180889188A288B388C484D584E684A7
:103F9000F78430E020E041E050E0BE016F5F7F4FEA
:103FA000C8010E94F6850197E9F4898190E0F80143
:103FB000808A918AA28AB38AC486D586E686F786E5
:103FC0000F90DF91CF911F910F91FF90EF90DF90B5
:103FD000CF90BF90AF909F908F907F906F905F90A9
:103FE0004F9008958FEF9FEFE2CF06AD17AD8FEFA3
:103FF0009FEF0115110521F3F80140805180628087
:10400000738084809580A680B780C08CD18CE28C30
:10401000F38C41E050E0BE016F5F7F4FC8010E940A
:10402000C18F019781F4898190E0F801408251822B
:104030006282738284829582A682B782C08ED18E7C
:10404000E28EF38EBDCF8FEF9FEFEFCFFC0180A903
:1040500091A9009711F00C9437D182A993A90097E8
:1040600011F00C94189380E008950C960C9426207F
:10407000CF92DF92EF92FF920E94D1CA6B010E9411
:10408000EAC2892BA9F081E080935503D0925203B4
:10409000C0925103D0925403C092530380915503B0
:1040A000877E80935503FF90EF90DF90CF90089527
:1040B00087E0EACF2F923F924F925F926F927F926A
:1040C0008F929F92AF92BF92CF92DF92EF92FF9228
:1040D0000F931F93CF93DF93CDB7DEB76E970FB6D5
:1040E000F894DEBF0FBECDBF7E876D875E8B4D8B94
:1040F000DC01D0960D90BC91A02DBA87A9871097AE
:1041000009F4E1C012968C9181FF1BC083FD21C090
:104110008D889E88A40170E060E0E985FA85808939
:104120009189A289B38980959095A095B0955F01FA
:10413000FCE0AF0EB11C84179507A607B70708F07F
:10414000D6C4E985FA858181816081831E8A1D8AB2
:104150009FC0A985BA8558964D915D916D917C91CE
:104160005B97CD010E948BD48111D2CFEACF95010C
:104170000E94ABCF87FDE5CF811106C089859A8566
:104180000E9497888823E9F2A985BA851696ED9151
:10419000FC9117971C964D915D916D917C911F97A5
:1041A0004250510961097109848104C0440F551FAF
:1041B000661F771F8A95D2F781899289A389B4896E
:1041C000480F591F6A1F7B1FFDC4E985FA85848D3E
:1041D000958DA68DB78D0097A105B10589F4CF0106
:1041E0000E949788882309F4ACCFE985FA858485F5
:1041F0009585A685B785848F958FA68FB78FB8C410
:10420000E985FA8584879587A687B787B1C421E0B9
:104210003AC49401232F332726950281011B110BE9
:104220002017310708F489012801542C4424550C27
:10423000C416D506E606F70698F0DB01CA01800F22
:10424000911FA11DB11DC816D906EA06FB0640F450
:1042500014A28FEF9FEFDC0187A390A7A1A7B2A7BD
:104260002D853E85C3010E94E0CC28C4E985FA85EE
:10427000808D918DA28DB38D8C159D05AE05BF05EA
:1042800038F4C08ED18EE28EF38E82818068828374
:104290008D899E896E960FB6F894DEBF0FBECDBF96
:1042A000DF91CF911F910F91FF90EF90DF90CF9012
:1042B000BF90AF909F908F907F906F905F904F9046
:1042C0003F902F900895DC01D2960D90BC91A02DC7
:1042D000BE8FAD8F109709F439CF9E968C9181FFD8
:1042E00073C183FD52C1ED8DFE8DF081F983AD8DDB
:1042F000BE8D1196BC91B987ED8DFE8DF281FB8745
:10430000AD8DBE8D1396BC91BC87ED8DFE8DF48175
:10431000FF87AD8DBE8D1596BC91B88BED8DFE8D52
:10432000F681F98BAD8DBE8D1796BC91BA8BED8D54
:10433000FE8D408851886288738884889588268895
:104340003788298139854B855C856F85788989898E
:104350009B2F52016301740181010E9415EE11F03F
:1043600008F03BC11B861C861F86188A198A1A8A88
:104370001F8A188E8D889E889A8689862D8D3E8DFF
:10438000285E3F4F3C8F2B8FAD8DBE8D2C901196AC
:104390003C90119712964C90129713965C9013973D
:1043A00014966C90149715967C90159716968C9091
:1043B000169717969C901797E985FA85EF2B09F4C5
:1043C0000AC39096ED91FC91DF01AC5DBD4FCD909D
:1043D000DD90ED90FC90320121014C205D206E209B
:1043E0007F20920131703C8B2B8B4114510461046E
:1043F000710409F056C0AD8DBE8D5896CD90DD90FC
:10440000ED90FC905B97C114D104E104F10409F430
:1044100023C19E968C919E9786FF0EC15C968D90CF
:104420009D90AD90BC905F9718962C911897199617
:104430003C9119971A964C911A971B965C911B9771
:104440001C966C911C971D967C911D971E968C91C5
:104450001E971F969C91AFEF0E9400EEE15DFD4F0D
:104460000081075F0E94DCED29833A834B835C83E4
:104470006D837E838F83988729813A814B815C810C
:10448000820E931EA41EB51EC814D904EA04FB04B0
:1044900008F4C4C08D8D9E8D0E94CB8D882309F4B5
:1044A00093C0AD8DBE8D9096ED91FC91DF01A15D25
:1044B000BD4F3C907301620119E0F694E794D794E4
:1044C000C7941A95D1F7AD8DBE8D58964D905D90DD
:1044D0006D907C905B97B2E04B1A510861087108AF
:1044E000032C04C0440C551C661C771C0A94D2F79C
:1044F0004C0C5D1C6E1C7F1CCF01885E9D4FDC0147
:104500004D915D916D917C91440E551E661E771EF6
:104510008B889C88892809F0C1C089849A84811479
:1045200022E0920608F4BAC02B853C854F85588955
:1045300069897A898F89988DA0E00E941EEE09F022
:10454000ADC04381548165817681818192818114DE
:1045500034E0930608F0E9C144165506660677066E
:1045600041F410824FEF5FEFBA01438354836583B8
:1045700076832D853E85B301A2010E9462CD8823FA
:1045800019F1212C82E0382E11C1AD8DBE8D189607
:104590000C91189719961C9119971A962C911A97A5
:1045A0001B963C911B971C964C911C971D965C91F9
:1045B0001D971E966C911E971F967C911F97CD019B
:1045C0000E94778E81118FCEAD8DBE8D9D968C9180
:1045D0009D9781609D968C93B9CD82019301A40132
:1045E000B1018D8D9E8D0E94778E882369F329817C
:1045F00039854B855C856F85788989899A895201CF
:104600006301740181010E940CEE2B873C874F8768
:10461000588B698B7A8B8F8B988FACCE3FEFC31AF8
:10462000D30AE30AF30AAD8DBE8D5896CD92DD9282
:10463000ED92FC925B9735CF2B8D3C8DB701A60197
:10464000CF010E94358B082E000C990B97FDBCCF33
:10465000892B09F41FCF25CFED8DFE8D848D958D8F
:10466000A68DB78D0097A105B10589F4CF010E94F1
:10467000CB8D882309F4A8CFED8DFE8D808D918D93
:10468000A28DB38D848F958FA68FB78F0ACFED8DB6
:10469000FE8D808F918FA28FB38F03CF212CB2E03C
:1046A0003B2E8B889C8828183908892809F02EC150
:1046B000AD8DBE8D2C9111963C91119712964C9117
:1046C000129713965C91139714966C911497159604
:1046D0007C9115975096AC9050975196BC905197FD
:1046E0005296CC9052975396DC9053975496EC90F8
:1046F00054975596FC90559756960C915697579609
:104700001C91579716968C91169717969C910E941C
:1047100015EE08F4FBC025E0B301A201CF010E9411
:10472000ECCE009709F450CFEB89FC89E80FF91F14
:104730002B853C854F85588969897A898F89988D21
:10474000A0E00E941EEE09F4E3C04101B12CA12CAF
:10475000C12CD12C760129829A82AB82BC82CD8277
:10476000DE82EF82F8865101C12CD12CE12CF12C94
:1047700000E010E00E9415EE10F4222E332EA1016D
:1047800070E060E0CF010E9448EE8B899C89820D29
:10479000931D8115924051F4AD8DBE8D90968D91F3
:1047A0009C910E94B6CD882309F40ECF910150E070
:1047B00040E060E070E0CB0129823A834B835C8368
:1047C0006D837E838F83988740E050E060E070E0E7
:1047D00080E090E0AD8DBE8DAC901196BC901197AD
:1047E0001296CC9012971396DC9013971496EC9037
:1047F00014971596FC90159716960C911697179688
:104800001C9117970E94F7ED722E832E942E652E21
:10481000562E472EF82FE92F2C9311963C93119783
:1048200012964C93129713965C93139714966C936D
:10483000149715967C93159716968C931697179642
:104840009C932B853C854F85588969897A898F8906
:10485000988DA0E00E941EEE09F4B0C0A980BA8035
:10486000C12CD12CE12CF12C00E010E00E940CEEC8
:104870002B873C874F87588B698B7A8B8F8B988FD0
:10488000AD8DBE8D5096AC9050975196BC9051977F
:104890005296CC9052975396DC9053975496EC9046
:1048A00054975596FC90559756960C915697579657
:1048B0001C915797272D382D492D562D652D742D78
:1048C0008F2F9E2F0E9415EE09F008F45DCD9E9665
:1048D0008C919E9780689E968C939E9750967C9222
:1048E000509751968C92519752969C92529753960C
:1048F0006C92539754965C92549755964C92559758
:104900005696FC9356975796EC933ECD21E004CFF4
:1049100089849A848214930408F41401A1016D859A
:104920007E85CF010E943FEE30CF09851A85012F89
:104930001127069530E020E0812C912C54018394BE
:1049400004C0880C991CAA1CBB1C3A94D2F789821B
:104950009A82AB82BC828C189D08AE08BF080815ED
:1049600019052A053B0510F44801590195018401F8
:10497000A9E0000F111F221F331FAA95D1F71801BC
:104980008401441555056605770588F0840C951C4F
:10499000A61CB71C481559056A057B0540F4108212
:1049A0002FEF3FEFA90123833483458356832D8561
:1049B0003E85B301A2010E94E0CCF5CEAD84BE8459
:1049C000A20CB31CBE86AD8629853A85221933090F
:1049D0003A87298755CFED8DFE8D2085318542851B
:1049E00053856485758586859785510162017301BC
:1049F00084010E9415EE08F04BCC20863186428659
:104A00005386648675868686978686A5806886A77F
:104A10003FCCFC014250510961097109848104C0F5
:104A2000440F551F661F771F8A95D2F78189928997
:104A3000A389B489480F591F6A1F7B1F80E092E049
:104A40008619970924018815990508F42C01611429
:104A5000710409F0DCCBA985BA8550960D911D91A2
:104A60002D913C9153975896CD90DD90ED90FC9010
:104A70005B970C151D052E053F0520F412968C91B1
:104A800085FFC5CB25E0CF0184960E94ECCE009730
:104A900009F457CBA2016D857E85860D971D0E9476
:104AA0003FEE640C751C6114B2E07B0651F4E9859D
:104AB000FA858681978184960E94B6CD882309F471
:104AC00040CBE985FA8580899189A289B389840DD3
:104AD000951DA11DB11D808B918BA28BB38B2D8554
:104AE0003E85240D351D3E872D8784189508E98560
:104AF000FA85C088D188E288F3888114910409F48A
:104B0000B5CB86819781DC0113961C91B701A60174
:104B100029E076956795579547952A95D1F71423FF
:104B20003601B1E07B22111123C04485558566858D
:104B300077856114710409F06CCF41155105610549
:104B4000710509F442CB228126FF11CB208C318CD8
:104B5000428C538CC214D304E404F50408F007CB50
:104B60004F5F5F4F6F4F7F4F4487558766877787CB
:104B7000A985BA851696ED91FC9117971C964D91D3
:104B80005D916D917C911F974250510961097109A6
:104B9000848104C0440F551F661F771F8A95D2F782
:104BA00081899289A389B489840F951FA61FB71F95
:104BB000AC01BD01410F511D611D711D61147104D6
:104BC00009F03CCF8114B2E09B0608F437CFC7A0B0
:104BD000D0A4E1A4F2A465A076A0811424E09206FA
:104BE00008F017CB4C155D056E057F0541F414A246
:104BF0008FEF9FEFDC0187A390A7A1A7B2A72D8518
:104C00003E85C3010E9462CD882309F49ACA412CD3
:104C100002E0502E56CF0C960C945A20CF93DF937F
:104C20001F92CDB7DEB7698341E050E0BE016F5FF0
:104C30007F4F0C960E945A200F90DF91CF910895DC
:104C4000AC0161E170E08FEA9FE00C94F4D9CF925F
:104C5000DF92EF92FF92CF93C82F0E9454CA6B014C
:104C60007C01809103018170C817B1F00E9454CA81
:104C70006C197D098E099F096132714A874091053F
:104C800080F38EEB97E00E94202680E0CF91FF908A
:104C9000EF90DF90CF90089581E0F8CF1F93CF93EE
:104CA000DF938095C82FCC0FC11DCC0FC11D14E020
:104CB00080E00E9427268823E9F08C2F881F882710
:104CC000881F0E94BA165B9881E00E942726D82F81
:104CD000882381F0C6FB882780F90E94BA160E94BB
:104CE0008816CC0FCC0F115019F78D2FDF91CF9173
:104CF0001F910895D0E0F9CFCF93C62FAC0161E1A9
:104D000070E08EE59FE00E94F4D9C0932E0ECF9103
:104D100008951092BA041092B90410924B0FECE06F
:104D2000FDE01382128211821082E4EBF4E0118222
:104D300010821092B3041092B2041092AE0410923A
:104D4000AF041092B0041092B1041092030D1092AF
:104D5000040D1092050D1092060D1092070D109281
:104D6000080D1092090D10920A0D1092A5041092D0
:104D7000A6041092A7041092A8041092B8041092EE
:104D8000AC0410920B0D1092B6041092AD04109268
:104D9000750410927404109273041092020D109214
:104DA000010D1092AB041092AA041092A904109263
:104DB000A40408958091B204E82FF0E0DF01AA0F67
:104DC000BB1FA45FB24F2D913C91232B51F0EC54AB
:104DD000FB4F9081911105C091E0908389278093CA
:104DE000B2040895CF93DF939091B204E92FF0E0DD
:104DF000DF01AC54BB4F2C91211133C020EC31E1C9
:104E0000992311F020EC3FE0EE0FFF1FE45FF24F1B
:104E100040815181EA012196D183C083240F351F3F
:104E2000F90180834091030D5091040D6091050DAF
:104E30007091060D4F5F5F4F6F4F7F4F4093030D93
:104E40005093040D6093050D7093060D81E0C1151C
:104E5000D24021F48C9398279093B204DF91CF91A4
:104E6000089580E0FBCF80916104811106C080919C
:104E70006004811102C080915F040895CF93C62F12
:104E8000AC0161E170E08EE59FE00E94AC9DC093B3
:104E90005D0F80E0CF910C948C1A2F923F924F922D
:104EA0005F926F927F928F929F92AF92BF92CF92BA
:104EB000DF92EF92FF920F931F93CF93DF93CDB7C3
:104EC000DEB763970FB6F894DEBF0FBECDBF7C018F
:104ED0008B012091450E3091460E3B8B2A8B390178
:104EE00032E0631A710880905C0E90905D0EB09075
:104EF0005E0EA0905F0E8091E5038B872090DC030F
:104F00003090DD032A893B89215031093D872C8768
:104F10008A899B89039709F449C080910A02282F46
:104F200030E03A87298780910B02282F30E03887BC
:104F30002F8380910C02282F30E03E832D838091B7
:104F40000D02282F30E03C832B8380910E02282F06
:104F500030E03A83298330910F02388B8091100220
:104F6000898B909111029E87209112022F8795E0E4
:104F7000492E512CE091ED03F091EE03EE30F10556
:104F800008F0C5C28827E853F84D8F4F0C94E0EC29
:104F9000DB27F52713285A287028A1280129312951
:104FA00075299B29B529D1291F2A602A82E090E022
:104FB0009A878987B8CF8A899B898130910579F052
:104FC000039781F49CE785E19093EB038093EC03D6
:104FD00021E030E03093EE032093ED03CBCF9E85AC
:104FE0008F85F2CF98898989EFCFC090EB03D0905D
:104FF000EC03C114D10409F029C28A899B8981304C
:10500000910559F0039761F494E180E09093EB03EC
:105010008093EC0322E030E0DDCF99818A81F6CFE6
:105020009B818C81F3CFC090EB03D090EC03C11433
:10503000D104B1F48A899B898130910559F0039795
:1050400061F494E180E09093EB038093EC0323E020
:1050500030E0C0CF9D818E81F6CF9F818885F3CFD0
:10506000970140E061E070E081E00E94421231E08F
:10507000C31AD108D092EC03C092EB03DD24D39481
:105080008D2D63960FB6F894DEBF0FBECDBFDF91B6
:10509000CF911F910F91FF90EF90DF90CF90BF9035
:1050A000AF909F908F907F906F905F904F903F90C8
:1050B0002F900895C090EB03D090EC03C114D1045D
:1050C00049F489859A859093EC038093EB0324E05F
:1050D00030E080CF970140E061E070E080E0C5CF34
:1050E000C090EB03D090EC03C114D10421F58A8960
:1050F0009B89019749F030E092E06916710428F429
:10510000382D292DC50104C030E820E090E080E072
:105110003093E1032093E2039093E3038093E4034D
:105120001092E0031092DF031092E6035092EE0318
:105130004092ED031FCF970140E061E070E081E015
:105140006EC14091E1035091E2036091E3037091DD
:10515000E403411551056105710549F41092E60318
:1051600088E090E09093EE038093ED0303CF2A89CB
:105170003B892130310511F58091EA0387FD3AC062
:10518000E091EA0381E08E0F8093EA03F0E0E054BF
:10519000F04F80818093DE0341505109610971090C
:1051A0004093E1035093E2036093E3037093E403BD
:1051B00088E08093E70386E090E0D4CF32E0631686
:1051C0007104C0F48091E8039091E9032091DA031F
:1051D0003091DB038217930769F0FC01F770E5510A
:1051E000FB4F20812093DE0301969093E903809387
:1051F000E803D2CF65E070E08DE89CE00E943E2796
:10520000ABC1D090E703D11003C027E030E0E2CE7D
:105210004091DE03342F331F3327331F398381E05E
:1052200046FB442740F98D1508F041E0970162E004
:1052300070E089810E9442129981992349F08091FE
:10524000DF039091E00301969093E0038093DF03E6
:105250008091DE03880F8093DE03DA94D092E70317
:105260000DCF8091E1039091E203A091E303B0910F
:10527000E4034091E003892B8A2B8B2B89F08091EA
:10528000450E9091460E81309105D1F48091EA034C
:1052900087FD29C0E091EA03F0E0E054F04F40813F
:1052A000441F4427441F970162E070E081E00E94A0
:1052B000421285E090E09093EE038093ED03DECE02
:1052C0000297029780F48091E8039091E90320917E
:1052D000DA033091DB038217930729F09770FC0102
:1052E000E551FB4FDCCF40E0DECF8091E60382301A
:1052F00080F00E94EF18882349F082E690E09093B6
:10530000EC038093EB032BE030E064CE82E090E08E
:10531000F6CF9091DF032091E003811101C0922F1D
:105320009093DE038F5F8093E60388E08093E7032A
:1053300089E090E017CFD090E703D11003C02AE0B6
:1053400030E048CE4091DE03842F881F8827881FD5
:1053500031E046FB442740F93D1508F041E0970154
:1053600062E070E00E94421273CF8091E6038230C7
:1053700098F44091DF035091E003440F452F441F00
:10538000550B51954170970162E070E081E00E94F9
:10539000421288E090E08FCF0E94EF1841E048274A
:1053A000F2CFC090EB03D090EC03C114D10471F59F
:1053B0008B85882319F12114310401F18091350E78
:1053C00081111CC02C853D8522303105B8F481E067
:1053D0008093350E3092EC032092EB032CE030E00A
:1053E0003093EE032093ED032A893B892130310568
:1053F00041F41092EA038093330EBCCD8DE090E02F
:10540000B1CE1092330E8093340EB4CD0E94EF18BB
:10541000882359F0970140E062E070E080E00E944C
:10542000421221E0C21AD10825CE41E092E0C9160D
:10543000D10408F440E0970162E070E080CEC090B3
:10544000EB03D090EC03C114D10429F0970140E0A4
:1054500070E060E043CE8A899B89029759F4D0902E
:10546000330ED11029C065E070E082E89CE00E9414
:105470003E2706CE2A893B8921303105D9F031E01B
:1054800063167104C9F030E020E090E080E03093D2
:10549000E1032093E2039093E3038093E4031092EB
:1054A000E0031092DF031092E6031092DE031092E5
:1054B000E7033CCE30E8E8CF382D292DC501E7CFF2
:1054C0008091450E9091460E8230910529F50E94FB
:1054D0003419D82E882311F081E03CC04091580E39
:1054E0005091590E60915A0E70915B0E8091640E2E
:1054F0009091650EA091660EB091670E48175907FE
:105500006A077B0748F382E08093360EB9CD67E0E7
:1055100070E088E79CE072CE0397F1F68091850EEB
:105520009091860E0297A9F44091580E5091590E11
:1055300060915A0E70915B0E8091640E9091650E91
:10554000A091660EB091670E481759076A077B074E
:1055500018F282E08093360ED12C92CDCF93DF9358
:1055600000D01F92CDB7DEB7BE016D5F7F4FCE0179
:1055700001960E944D27882309F149815A812B8188
:105580003C81240F351F4115510511F441E050E0D5
:105590002230310510F422E030E0215031093093FF
:1055A00099002093980050939B0040939A00509349
:1055B00044024093430291E09093390E0F900F9074
:1055C0000F900F90DF91CF910895CF93C62FAC012C
:1055D00061E170E08EE59FE00E94AC9DC0935D0F9D
:1055E000CF910895AC0161E170E08BE49FE00C94F1
:1055F000AC9D181634F089E79FE00E94F22A80E003
:10560000089580936904609191046093680490E028
:105610000E94D5B08091910491E0892780939104F4
:105620009093930481E00895DC019FB7F894209152
:10563000570430915804409155045091560480E02D
:105640004217530769F0F901F770E551FB4F80816C
:105650008C932F5F3F4F309358042093570481E081
:105660009FBF08954FB7F894209157043091580484
:1056700080915504909156044FBF821B930B08955F
:105680008091A70E9091A80E029759F48091850EF3
:105690009091860E029729F480917F0E9091800E52
:1056A000089590E080E008951092F4031092F503BD
:1056B0001092F6031092F7031092EF031092F0038A
:1056C0001092F1031092F2031092F30308951F93C6
:1056D000CF93DF932091A70E3091A80E2230310591
:1056E00009F051C02091850E3091860E223031058F
:1056F00009F049C0C0917F0ED091800E209709F427
:1057000042C020919F0E3091A00E2C173D0759F1F9
:10571000182F0E940B1E0E94542BD093A00EC093F2
:105720009F0ED0934A02C09349028091600E9091DF
:10573000610EA091620EB091630E8093990E9093CA
:105740009A0EA0939B0EB0939C0E1123E1F09FB78D
:10575000F89480915D0F9FBF8230A9F4DF91CF91C3
:105760001F910C94681E8091600E9091610EA09123
:10577000620EB091630E8093990E90939A0EA0934F
:105780009B0EB0939C0EDF91CF911F9108952F92A5
:105790003F924F925F926F927F928F92AF92BF92A1
:1057A000CF92DF92EF92FF920F931F93CF93DF93ED
:1057B00000D000D000D01F92CDB7DEB79A8789877E
:1057C0000E94E3A9A985BA8511969C938E9380ECDB
:1057D00093E113969C938E9312978091060F90916C
:1057E000070F15969C938E9314978091FD0E169635
:1057F0008C9316978091FB0E9091FC0E18969C93BB
:105800008E9317978091F90E9091FA0E1A969C93A9
:105810008E9319978091030F1B968C931B97809101
:10582000A90E1C968C931C978091AA0E1D968C93A2
:105830001D978091040F9091050F1F969C938E9356
:105840001E9787E89EE051969C938E935097809187
:10585000F303811145C00091F4031091F5032091E9
:10586000F6033091F703E985FA85028B138B248BBD
:10587000358B8091990E90919A0EA0919B0EB091CC
:105880009C0E868B978BA08FB18F0091A70E1091E5
:10589000A80E7801F1E0EF1AF10823E0E216F10416
:1058A00008F09BC08091700F882309F496C0809106
:1058B000450E9091460E8430910509F491C00397EE
:1058C00009F05FC00E948A168823B1F18091770F9A
:1058D0009091780F079709F086C08BE090E033C075
:1058E0000E94D1CA0091EF031091F0032091F103BF
:1058F0003091F203DC01CB01801B910BA20BB30BA7
:105900000091F4031091F5032091F6033091F70311
:1059100068017901C094D094E094F094C816D90637
:10592000EA06FB0628F0080F191F2A1F3B1F9BCF12
:105930000FEF1FEF980197CF0E94E616882309F416
:1059400055C089E090E0A985BA855C969C938E93BA
:105950005B972091060F3091070FA9014450510920
:105960004230510508F448C02730310509F444C0DD
:10597000009729F0069721E0069708F03EC020E046
:105980003CC00E942819811131C00E94E616811185
:1059900030C0E091770FF091780F3197E730F10543
:1059A000E0F48827E952F34D8F4F0C94E0ECE12CA2
:1059B000DE2CE42CE72CEA2CF32C6D2C82E090E01A
:1059C000C2CF81E090E0BFCF83E090E0BCCF84E025
:1059D00090E0B9CF85E090E0B6CF90E080E0B3CF23
:1059E0008CE090E0B0CF8AE090E0ADCF87E090E02F
:1059F000AACF88E090E0A7CF21E0E985FA85228F41
:105A0000C8010497029708F0DFC0C090220ED09022
:105A1000230EE090240EF090250E0E948F194091E5
:105A20001E0E50911F0E6091200E7091210EB0E05D
:105A3000A0E0481759076A077B0708F4A1C09A013C
:105A4000AB01281B390B4A0B5B0BC114D104E104D9
:105A5000F10409F099C020E0A985BA855D962C93E0
:105A60008091A70E9091A80E9C01245031092230FC
:105A7000310508F063C20E948F198115B8E09B07B9
:105A800008F41DC220E0A985BA855E962C935E9726
:105A90008091FF0E5F968C930091A70E1091A80E37
:105AA0008091A10E0230110549F48091850E9091EC
:105AB000860E029709F0EBC280917A0EE985FA858D
:105AC00080A38091000F81A30E94402BA985BA85F5
:105AD00093969C938E9392970230110509F0D9C248
