:100000000C94710D0C94A20D0C94A20D0C94A20DE5
:100010000C94A20D0C94A20D0C94A20D0C94A20DA4
:100020000C94A20D0C94A20D0C94532D0C94A20DC3
:100030000C94A20D0C94A20D0C94A20D0C94A20D84
:100040000C94A20D0C94DF4C0C94A20D0C94A20DF8
:100050000C94A20D0C94A20D0C94A20D0C9416C736
:100060000C94A20D0C94A20D0C94A20D0C94A20D54
:100070000C94A20D0C94A20D0C94A20D0C94A20D44
:100080000C94A74D0C94DD4A0C94A20D0C943E4A9E
:100090000C94A20D0C94A20D0C94A20D0C94A20D24
:1000A0000C94A20D0C94A20D0C94A20D0C94A20D14
:1000B0000C94A20D0C94A20D0C94A20D0C9480A98A
:1000C0000C94A20D0C94A20D0C94A20D0C94A20DF4
:1000D0000C94A20D0C94A20D0C94A20D0C94A20DE4
:1000E0000C94A20D0C9477BE0C940D9A0C94269A45
:1000F0000C94A24B0C941EA40C9487E20C948DDCFF
:100100000C942C280C9453450C947BBE0C94C01872
:100110000C9460E30C94FB9A0C94EF450C946847A4
:100120000C944ABE0C9489BE0C944ADC0C949C99A5
:100130000C948DBE0C945CA40C946A210C94E8DEA3
:100140000C9435280C94E1460C94474C0C9440DCFC
:100150000C94A8180C9470210C940A9B0C94229B6C
:100160000C9464DF0C947FBE0C9476210C94E8A36D
:100170000C9411DC0C9415DA0C9456BE0C941C46AD
:100180000C9478410C9411E00C9426280C94C6DE53
:100190000C94CD460C94BB110C94CF9A0C9452BE87
:1001A0000C946DBE0C9436DC0C9485E30C94EADE62
:1001B0000C9423470C942CDC0C94FC4B0C9463BEE5
:1001C0000C947A450C945D410C943DDC0C947321A5
:1001D0000C9451410C94B2A30C943EDF0C94B040AB
:1001E0000C9458E30C941CDA0C94BABE0C94F0DE18
:1001F0000C948BDC0C9466DC0C94FE9A0C94089A9C
:100200000C943B280C94E99A0C94A7460C94039AFE
:100210000C9438280C94F6100C94AFA40C94E84677
:100220000C9445410C94B5100C941C9A0C946D21BF
:100230000C9469410C94D8100C9429DC0C94F14B6B
:100240000C944DDC0C94F9200C94E5DC0C9423DC2C
:100250000C9497450C9484BE0C949C460C947F217E
:100260000C94241F0C94169B0C94834C0C94F099C2
:100270000C9463E10C94E9100C944EBE0C944E194E
:100280000C94DE4B0C94DA450C9471E20C9459BE3C
:100290000C9429280C945FBE0C9475410C9444BEB8
:1002A0000C94D34B0C947CDF0C942BDF0C949111A9
:1002B0000C9480E20C944D110C94BDE20C9418DC6B
:1002C0000C9433DC0C9469DC0C94179A0C9471BE7A
:1002D0000C94D9110C945BE10C9469BE0C9416D764
:1002E0000C9426DC0C94E8E10C9432280C94202821
:1002F0000C9447DC0C94EC9A0C947B460C949FA4D1
:100300000C94AD4B0C9498A30C944CE10C940B11F1
:100310000C94C3DE0C942F280C94B8130C94019BFE
:100320000C9485BE0C94129A0C94EEDE0C94271F4C
:100330000C94219A0C9442130C9449E30C940AC532
:1003400054494D45522041524700424144205449AE
:100350004D455200554E44455252554E004241447F
:1003600020574156004241442052415445003842F2
:100370004954204F4E4C59004D4F4E4F204F4E4C3C
:10038000590050434D204F4E4C59004E4F20444190
:100390005441004E4F20464D5400424144205249A2
:1003A0004646004E4F542057415645004E4F54206C
:1003B0005249464600494F204552524F52004F5035
:1003C000454E204552524F5200424144204152472F
:1003D000004F4B0053442043415244204552524F5A
:1003E0005200494E534552542043415244004E4F0F
:1003F0005420494E4954004F4B005344204341522E
:1004000044204552524F52004F4B004E414D452023
:10041000544F4F204C4F4E470046494C45204F50BB
:10042000454E204641494C004F4B0042414420502C
:100430004154480046494C452043524541544520CB
:100440004641494C004F4B004241442050415448E2
:10045000004F4B004E4F5420444952004449522013
:100460004641494C004D4B444952204641494C00BD
:10047000424144204449524543544F5259004F4B46
:1004800000524543204E414D45532046554C4C00AB
:10049000444952204641494C0046494C452052456A
:1004A0004144204641494C004241442041524700CA
:1004B00046494C45205752495445204641494C0035
:1004C0004241442041524700505245414C4C4F4319
:1004D000204641494C004F4B0046494C4520545260
:1004E000554E43204641494C004F4B0046494C4530
:1004F0002053594E43204641494C0046494C452023
:100500005345454B204641494C0046494C452052F5
:10051000454D4F564520455252004F4B00424144F5
:1005200020504154480052454E414D4520464149D6
:100530004C004F4B0046494C4520455849535453B5
:10054000004241442052454E414D45002E544150F9
:10055000002E574156002E4C3136002E4C4550008F
:100560002E4D3132002E4D5A54002E4D5A46000069
:10057000202020202020202020202020002020209B
:10058000202020202020202020202020202020206B
:100590002122232425262728292A2B2C2D2E2F30D3
:1005A0003132333435363738393A3B3C3D3E3F40C3
:1005B0004142434445464748494A4B4C4D4E4F50B3
:1005C0005152535455565758595A5B5C5D5E5F20E3
:1005D000202020202020202020202020202020201B
:1005E000202020202020202020202020202020200B
:1005F00020202020202020202020202020202020FB
:1006000020652020207467682062786472706371AE
:10061000617A77737569204F6B66762075426A6ED2
:1006200020556D2020206F6C416F612079202020A3
:1006300020202020202020202020202020202020BA
:1006400020202020202020202020202020202020AA
:10065000202020202020202020202020202020209A
:100660002020202020202020202020202020203179
:100670003A3200313A3300313A3400544300313ACF
:100680003200313A3300313A3400494300313A33D1
:1006900000313A31004D5A37303000313A340031B0
:1006A0003A3300313A3200313A31004E4F524D4127
:1006B0004C00554C5F4D5A37303000554C5F4D5A09
:1006C00038303000554C00574149542E2E2E0052E0
:1006D000454C4541534520414C4C004144433A254B
:1006E0003475005741495420494E505554005052DA
:1006F00045535320252D3130730045444745205242
:100700004541440045444745204649464F00554C25
:100710002057414954003E08D3CEE5210000D3E4E0
:100720007ED3E077237CFE1020F43A4BD4324B0A80
:100730003A4CD4321205214DD4110211010D00EDB5
:10074000B0E17CFED428122A0411D921001222041F
:1007500011CD2A00D3E4C39AE9CD2A00D3E4C324FF
:100760000100000000000000000000000000000088
:100770003E08D3CECD3E07360197575FCD0803CD57
:10078000BE02D3E21AD3E01213CB6228F53EC33285
:100790001F06215C112220062A08117D3212057CD9
:1007A000324B0A2A0A11220211CDF80401CF06EDBC
:1007B00071D3E2DAAAE9210A11C308EDC53A101192
:1007C000EE0C32101101CF06ED79C1C9313938373D
:1007D0001102E0F31AE62028FB137B121B01000430
:1007E0001ACB6728FBE620B1074F7B13121B1ACBED
:1007F0006720FBE620B1074F137B121B10E2712329
:10080000D90B79B0D920D64F04D9C31102E0F31A1D
:10081000E62028FB137B121BC50100041ACB6728B6
:10082000FBE620B1074F7B13121B1ACB6720FBE6B8
:1008300020B1074F137B121B10E271C10B2379B05B
:1008400020D60601D9C31102E0DD2103E0AF3D202F
:10085000FDF31AE62028FBDD360003C50100041A6B
:10086000CB6728FBE620B1074FDD3600021ACB67C5
:1008700020FBE620B1074FDD36000310E271C10B0B
:100880002379B020D600E1E93E08D3CE1102E0DDA5
:100890002103E0AF3D20FDF31AE62028FBDD360002
:1008A00003C50100041ACB6728FBE620B1074FDD22
:1008B0003600021ACB6720FBE620B1074FDD360079
:1008C0000310E271C10B2379B020D6010001D9E1F8
:1008D000E93E08D3CECD3E07360197575FCD0803DA
:1008E000CDBE02D3E21AD3E01213CB6228F53E0844
:1008F000D3E01102E0F37B13121B1AE62028FB134E
:100900007B121B0100041ACB6728FBE620B1074FBE
:100910007B13121B1ACB6720FBE620B1074F137B1A
:10092000121B10E27123D90B79B0D920D64F04D90C
:10093000C3554C205345454B00554C205345454B22
:1009400000554C20415247004D5A462053484F52C3
:1009500054004D5A462052454144004D5A462046C7
:1009600049464F004D5A46204C454E475448004D8D
:100970005A542053484F5254004D5A542052454126
:1009800044004D5A5420484541444552004D5A4672
:100990002053484F5254004D5A462052454144007E
:1009A0004D5A46204C454E475448004D5A5420530A
:1009B000484F5254004D5A542052454144004D5A1C
:1009C0005420484541444552000000000007FA0009
:1009D000FA00F401F401C8180000C8180000282823
:1009E00014140200000000010000000788008800C5
:1009F00015011501E72B0000E72B0000282814142F
:100A00000200000000020000000771007100CC002D
:100A1000CC001A3B00001A3B0000282814140200E6
:100A20000000000300010007F0000801D001EE0102
:100A3000F0550000F82A00002828141402000000D5
:100A400000040004000950005000A000A000C818D5
:100A500000007C1500002828141402000000000586
:100A60000002000F70005000B000A000C818000085
:100A70007C15000028281414020000000006000263
:100A8000000F70006000E000C000C81800007C1576
:100A90000000282814140200000000070002000FC4
:100AA000900070000001E000C81800007C150000F4
:100AB000282814140200000000080003000F700032
:100AC0007000CC00CC00C81800001A3B0000282899
:100AD00014140200000000090003000F90009000B1
:100AE00020012001C8180000E72B0000282814145A
:100AF00002000000000A0000000770005000B00073
:100B0000A000F82A00007C15000028281414020018
:100B100000000054555242205345454B004D5A5455
:100B2000205345454B004D5A542052454F50454E99
:100B3000005245434F5244005B96A59D9AB75D0015
:100B40004C445220424C4F434B004D5A5420534585
:100B5000454B004D5A462054494D45004D5A5420AE
:100B600054494D45004C44522048454144455200AB
:100B70004D5A54205345454B004D5A46205354413D
:100B800054450050574D2050495045004D5A46207D
:100B90005354415445004D5A3720524546494C4C18
:100BA000004D5A4620554E44455200424144205380
:100BB000455353494F4E00454447452046495253FB
:100BC0005400494E5345525420434152440054412D
:100BD00050204649464F00554E44455252554E000E
:100BE000544150204649464F004D5A4620535441E7
:100BF000525400554C205354415254004D5A372002
:100C00005345454B004D5A54205345454B00554CD8
:100C1000372041434B00554C372041524D00554C35
:100C20002053484F525400554C20524541440055E2
:100C30004C205741495400554C2053484F525400C2
:100C4000554C205245414400554C20415247004DDF
:100C50005A3720524546494C4C004D5A4620535471
:100C6000415254004D5A4620535441525400504C66
:100C70004159204552524F520054034A03400354F5
:100C8000494D455200000000001000800000AA00FD
:100C9000389B71D103C903BE03B503AC03A3039A08
:100CA0000393038B03820378036E0365035D03578D
:100CB0004156204552524F52004E4F205741562028
:100CC000494E464F00454D50545920574156004516
:100CD0004D50545920454447450045444745204F11
:100CE00050454E004544474520415247005350452A
:100CF00045440054595045004D5A54205345454BE6
:100D0000004D5A54205245434F5244004D5A5420EE
:100D1000464F524D4154004D5A54205345454B00C7
:100D20004D5A5420434F554E54004D5A5420484577
:100D300041444552004D5A54205345454B004D5AAD
:100D400046205345454B004D5A46205345454B00E0
:100D50004D5A462053484F5254004D5A46204F504A
:100D6000454E004D5A4620415247005441502052B2
:100D70004541440054415020464C414700544150A5
:100D8000205452554E4300544150204C454E475438
:100D90004800544150205245414400544150204C99
:100DA000454E47544800454D505459205441500039
:100DB000544150204F50454E00544150204152471D
:100DC0000042414420464F524D4154005459504531
:100DD0003D54430A53504545443D313A340A00548A
:100DE0005950453D4E4F524D414C0A535045454494
:100DF0003D313A340A00545950453D4D5A37303050
:100E00000A53504545443D313A310A005459504542
:100E10003D4E4F524D414C0A53504545443D313AA9
:100E2000330A00545950453D4E4F524D414C0A53E0
:100E3000504545443D313A320A00545950453D54DD
:100E4000430A53504545443D313A320A0054595003
:100E5000453D54430A53504545443D313A330A0019
:100E6000545950453D49430A53504545443D313A54
:100E7000320A00545950453D49430A5350454544B0
:100E80003D313A330A00545950453D49430A5350C5
:100E90004545443D313A340A00545950453D4D5A78
:100EA0003730300A53504545443D313A330A0054F7
:100EB0005950453D554C5F4D5A3730300A00545912
:100EC00050453D554C5F4D5A3830300A005459500A
:100ED000453D554C0A00545950453D4E4F524D41E9
:100EE0004C0A53504545443D313A310A004552526F
:100EF0000050415500504C5900524459005443345D
:100F0000004E3134004D3731004E3133004E313216
:100F100000544332005443330049433200494333C1
:100F200000494334004D373300554C3700554C3899
:100F300000554C00544320313A34004E524C20317D
:100F40003A34004D5A3720313A31004E524C20315C
:100F50003A33004E524C20313A3200544320313A59
:100F60003200544320313A3300494320313A3200B1
:100F7000494320313A3300494320313A34004D5A35
:100F80003720313A33004E524C20313A3100435031
:100F90004D20313A340043504D20313A3300435014
:100FA0004D20313A320043504D20313A31005349FF
:100FB0004E20313A340053494E20313A33005349E0
:100FC0004E20313A320053494E20313A31005441DB
:100FD00050205452554E43005441502052454144F4
:100FE00000544150204649464F005441502052453C
:100FF000414400544150205452554E4300544150F6
:10100000204649464F0054415020464C4147005429
:101010004150205452554E4300544150204C454EAF
:1010200047544800544150204C454E4754480054C2
:101030004150205245414400544150204649464FBA
:10104000005041544820544F4F204C4F4E470025EC
:10105000732F524543253034752E4C45500025736F
:101060002F524543253034752E4C313600454447C8
:101070004520575249544500535441474520455255
:10108000524F520042414420544F4B454E00504174
:101090005443482057524954450050415443482036
:1010A0004C4F53540042414420544F4B454E004254
:1010B000414420544F4B454E0042414420544F4B35
:1010C000454E005041544820544F4F204C4F4E47FE
:1010D0000025732F524543253034752E4D5A460056
:1010E0004D5A46205752495445004D5A46204348D0
:1010F00045434B53554D004D5A4620434845434BBD
:1011000053554D00544320434845434B53554D00E0
:101110005443204C4F4144455200524543204552D0
:10112000524F52004D5A462053544152540050528F
:1011300045414C4C4F43204641494C004D5A4620B6
:1011400043524541544500534420434152442045B5
:1011500052524F5200454447452053544152540087
:10116000505245414C4C4F43204641494C00454468
:101170004745204352454154450053442043415282
:1011800044204552524F52005245432054494D4548
:10119000522045525200505245414C4C4F4320463C
:1011A00041494C0057415620435245415445204542
:1011B000525200424144205245432052415445007E
:1011C00053442043415244204552524F520052450D
:1011D0004320464F524D4154005245432050415503
:1011E00053450052454320524553554D4500257304
:1011F0002F25735F253032752E4C45500025732FF7
:1012000025735F253032752E4D5A460025732F25E4
:10121000735F253032752E4C31360025732F2573C0
:101220005F253032752E5741560025732F25732EBA
:101230004C45500025732F25732E4D5A46002573BB
:101240002F25732E4C31360025732F25732E5741D1
:10125000560057415620434C4F53452045525200AB
:101260005741562050414420455252005441494C68
:101270002057524954452045525200524543204F71
:10128000564552464C4F57004544474520434C4F26
:1012900053450045444745204F564552464C4F570D
:1012A00000D60E0000CD0EBE0EAF0E990E860E7348
:1012B0000E600E4D0E3A0E230E0C0EF60DDF0DCC09
:1012C0000D4D5A4620434C4F5345004D5A4620572A
:1012D00052495445004D5A4620494E434F4D504CBB
:1012E000455445004D5A46204445434F4445004D22
:1012F0005A46205345454B004D5A46204F564552BD
:10130000464C4F570045444745204F564552464CA2
:101310004F57005041544820544F4F204C4F4E4798
:101320000025732F524543253034752E5741560002
:101330005741562048454144455220455252005796
:10134000415620544F4F204249470057415620579D
:10135000524954452045525200414E414C5953493F
:101360005320515545554500444952204641494C6A
:10137000004E4F20454E545259004F4B00534420CD
:1013800043415244204552524F5200494E53455218
:10139000542043415244004F4B00454D5054590096
:1013A0004F4B004E4F20454E545259005344204954
:1013B0004E4954004F4B004E4F20454E5452590059
:1013C00042414420415247004E4F20454E5452590D
:1013D000004E4F20454E545259002E2E2F00F90E2C
:1013E000F50EF10EED0E504C41004E313100484CDF
:1013F0004800554C004633480046334C00544300E7
:1014000049430049434C005537480055374C004884
:101410004C4C004E4C48004E4C4C0025732025305F
:1014200032753A253032752F253032753A253032F3
:1014300075002573202020202020202025303375A2
:1014400025252000257320252D33732020202025DD
:1014500030337525252000504155534544004D41FA
:101460004E20252D347320253032753A25303275C3
:101470000053454C20252D347320253032753A25F4
:10148000303275004D544920252D347320253032DB
:10149000753A25303275004D414E20252D3473208C
:1014A0002D2D3A2D2D0053454C20252D3473202D04
:1014B0002D3A2D2D004D544920252D3473202D2DEE
:1014C0003A2D2D00554E535550504F52544544001F
:1014D00045525220252E31327300554E4B4E4F57F8
:1014E0004E00860F00000000000000007E0F770F06
:1014F000700F690F620F5B0F530F4B0F430F3B0FC2
:10150000340F0000C60FBE0FB60FAE0FA60F9E0F12
:10151000960F8E0F32326B0034346B00524543000D
:101520005356442000524543204552524F520052D8
:1015300045432043414E43454C4C45440046494CAD
:10154000452044454C4554454400504C4541534585
:101550002057414954005741495400534156494E80
:10156000472000504155202530326C753A253032E5
:101570006C7500524543202530326C753A25303267
:101580006C750050415553454420202020202020D8
:1015900020204D0057414954205349474E414C00AB
:1015A0002054430020494300204D5A37303000205A
:1015B000554C204D5A3730300020554C204D5A386C
:1015C00030300020554C00204155544F00204E4FE4
:1015D000524D414C0020313A340020313A33002042
:1015E000313A320020313A31002032353030204259
:1015F00064002032313030204264002031383030F5
:10160000204264002031343030204264004D5A467C
:10161000004C45502035307573004C313620313642
:101620007573005741562032326B487A0057415645
:101630002034346B487A004D414E55414C004155A1
:10164000544F004D4F544F520052454C4541534565
:1016500020414C4C0043414C204E4F4E45005341DD
:101660005645440043414C4942524154494F4E0073
:101670004E4F5420534156454400454550524F4D1E
:10168000204552524F52005553494E47204445463B
:1016900041554C540043414C20494E56414C49441D
:1016A00000504C4159005245434F52440053544F4F
:1016B0005000524557494E44004646574400434166
:1016C0004C4942524154494F4E004B4559504144B8
:1016D000002F5245434F5244494E475300494E5301
:1016E000455254204341524400494E5345525420E0
:1016F00043415244005041544820544F4F204C4FD6
:101700004E470046494C452053454C4543544544BB
:10171000004E414D4520544F4F204C4F4E47004501
:101720004D505459204449520052454320464F528F
:101730004D415400454D505459005245434F524479
:101740003D52455452590053442043415244204590
:1017500052524F5200494E53455254204341524435
:10176000005245434F52443D524554525920202087
:101770002000202020202020202020202020202089
:10178000202000CD15C715C315B915AF15A815A490
:1017900015A015202D2D00E415DF15DA15D515043B
:1017A00016FB15F215E9153E54415020535045459E
:1017B00044003E5350454544003E4C4F4144455241
:1017C00000204D4F544F5200204D414E55414C008A
:1017D0003E504C4159204354524C00204F46460045
:1017E000204F4E003E57415620494E564552540018
:1017F0003F002D1623161A1611160D1643163E1607
:1018000037163E524543204D4F4445004F46460053
:101810004F4E003E4155544F4E414D45003E5245BE
:101820004320545950450020253375252500253384
:1018300075252520454550524F4D20455252003EBA
:101840004241434B4C494748540052414D20257575
:10185000204D494E25750041424F55542076302E7B
:101860003972630020494E5445524E414C00204588
:10187000585445524E414C003E434D5420534F5511
:101880005243450000002100240027002A002D00BB
:101890003000330001010000040107010A010000CB
:1018A0002200250028002B002E0031003400020108
:1018B0000000050108010B014D5A46204552524FC8
:1018C0005200F0F0F0F3F0F5F0F0F0F0F0F0F0F09E
:1018D000F0F0F0C1C2C3C4C5C6F0F0F0F0F0F0F013
:1018E000F0F0006162636465666768696B6A2F2A5D
:1018F0002E2D202122232425262728294F2C512B29
:101900005749550102030405060708090A0B0C0D87
:101910000E0F101112131415161718191A525954C4
:101920005045C7C8C9CACBCCCDCECFDFE7E8E9EA7E
:10193000ECEDD0D1D2D3D4D5D6D7D8D9DADBDCDD13
:10194000DEC080BD9DB1B5B9B49EB2B6BABE9FB37C
:10195000B7BBBFA385A4A5A69487889C82988492D0
:10196000908391819A97939589A1AF8B8696A2AB2C
:10197000AA8A8EB0AD8DA7A8A98F8CAEAC9BA0997A
:10198000BCB8403B3A703C715A3D43563F1E4A1C1E
:101990005D3E5C1F5F5E377B7F367A7E334B4C1D2E
:1019A0006C5B7841353474303875394D6F6E3277F1
:1019B000767273477C53314E6D48467D441B58798F
:1019C000426053504545443D00545950453D0052F6
:1019D00045434F52443D004E4F20454E545259000E
:1019E0004F4B00444952204641494C004E4F542031
:1019F00044495200000020002300260029002C004A
:101A00002F00320000010000030106010901050555
:101A10000505070508080808020202020A0A080864
:101A20000404040401010101010101010303030392
:101A300003030303040707070C0C0C0C0C0C0C0C21
:101A40000202020206060606060606060B0B0B0B32
:101A50000B0B0B0B01021020200808102040102057
:101A60004080020102010804020101020408102062
:101A70004080804020100804020180040201804060
:101A800020100804020108040201010204081020C9
:101A90004080010204081020408000000A0B020967
:101AA0000C0D0E08070304010000000000000000F8
:101AB0000000000000000000000000000000000026
:101AC00000000000000012111000000000000000E3
:101AD0000000000000000000000000000000000006
:101AE00016D711241FBECFEFD1E2DEBFCDBF00E07D
:101AF0000CBF13E0A0E0B2E0E2E9F7ED01E00BBFBC
:101B000002C007900D92A434B107D9F727E1A4E4ED
:101B1000B3E001C01D92A43FB207E1F71DE0C1E7A9
:101B2000DDE000E006C021970109802FFE010E9440
:101B3000EAE9C037D10780E00807A9F70E9466D715
:101B40000C94C7EB0C940000009711F481E090E036
:101B50002091940030919500820F931F90939B00E9
:101B600080939A0008950F931F934091BB03509167
:101B7000BC036091BD037091BE03B0E0A0E08A0198
:101B80009B010095109520953095081719072A0795
:101B90003B0770F48FEF9FEFDC018093BB039093C2
:101BA000BC03A093BD03B093BE031F910F91089592
:101BB000840F951FA61FB71FF0CFCF92DF92EF9231
:101BC000FF920F931F93C090AB03D090AC03E090B3
:101BD000AD03F090AE039701860100951095209516
:101BE0003095061717072807390790F48FEF9FEFF6
:101BF000DC018093AB039093AC03A093AD03B0934F
:101C0000AE031F910F91FF90EF90DF90CF9008955A
:101C1000DC01CB018C0D9D1DAE1DBF1DEACFE82F51
:101C20008BEF8E0F833048F4E550FF0BEE0FFF1F54
:101C3000E758F34F8591949108958FE79CE00895BC
:101C40008091710F9091720F8B30910529F00C9754
:101C500031F487EE9BE208958AE19BE308958CE7D7
:101C600095E108958091000181FD03C081E080939A
:101C70003C0E089590933F0E80933E0E10926103A8
:101C80001092600310925F0310925E03109254034F
:101C9000109255031092560310925703109253035B
:101CA000109252031092510310925A03109259034A
:101CB00010922D0E10922C0E10922B0E10923D0EA3
:101CC00010923C0E10923B0E10923A0E1092390E6A
:101CD0001092380E1092370E1092360E1092350E6A
:101CE0001092330E1092320E1092310E10922E0E70
:101CF000019711F410925D03089520913E0E3091EA
:101D00003F0E23303105C1F52091710F3091720FD4
:101D10002930310599F040F426503109223031053F
:101D200050F420E03AE00CC02B30310511F148F1BD
:101D30002C303105D9F020E03BE002C020E03EE04D
:101D4000FC013183208380913E0E90913F0E0397DA
:101D500061F58091710F9091720F8A30910551F168
:101D600098F40997C9F080E09AE018C020E032E1C9
:101D7000E7CF20EC3CE0E4CF209104023091050253
:101D8000DFCF20E030E1DCCF8B30910559F00C97AC
:101D900051F780E092E102C080E09CE0FB0191837A
:101DA0008083089580EC9CE0F9CF809106029091A9
:101DB0000702F4CF80E09EE0F1CF20913E0E3091FB
:101DC0003F0E2330310581F52091710F3091720F54
:101DD0002A30310519F1F8F4265031092230310545
:101DE00000F120E037E0FC013183208380913E0E3A
:101DF00090913F0E039741F58091710F9091720F72
:101E00008C309105B0F48A30910518F50997B1F03E
:101E100080E095E015C02C30310519F720E039E05D
:101E2000E2CF20E035E0DFCF2091000230910102C7
:101E3000DACF0C9769F780E099E002C080E096E085
:101E4000FB019183808308958091020290910302A7
:101E5000F7CF80E097E0F4CF4FB7F89420915B0381
:101E600030915C0380914D0390914E034FBF821BD4
:101E7000930B0895E0E9F0E080818F7C8083E1E7B7
:101E8000F0E080818B7F808308955B9A0895809134
:101E90006A0F882359F02091710F3091720F2850EA
:101EA000310981E02330310508F080E00895809108
:101EB0006A0F882359F02091710F3091720F2650CC
:101EC000310981E02230310508F080E008958091E9
:101ED0006A0F882359F02091710F3091720F2450AE
:101EE000310981E02230310508F080E008958091C9
:101EF0006A0F882359F02091710F3091720F23508F
:101F0000310981E02330310508F080E0089588230D
:101F100011F0749A089574980895EEE7FFE080E058
:101F20009191992311F09D3059F4E82FF0E0E25897
:101F3000F04F882349F09291903231F48150F9CFDB
:101F40008F5F813169F7F1CF08959C012B503109E2
:101F500081E02330310508F080E0089580916A0F18
:101F6000882389F02091710F3091720FA901485098
:101F700051094330510538F0C9010E94A50F811164
:101F800002C00C94570F089580916A0F882331F096
:101F90008091710F9091720F0C94A50F80E00895BD
:101FA0004F925F926F927F928F929F92AF92BF9269
:101FB000CF92DF92EF92FF92CF93DF93EC012A0151
:101FC0003B018091100290911102C130D10549F07E
:101FD00080910E0290910F02C330D10511F40E943E
:101FE000200E6C01F12CE12C64E170E0C130D105D0
:101FF00011F468E270E04B01B12CA12C880C991C03
:10200000AA1CBB1CA9E0B0E0A30192010E9401EA56
:102010006C5E7F4F8F4F9F4FC60ED71EE81EF91E76
:102020000E94C40F882329F0229722E630E02297ED
:1020300010F022E030E0C80CD91CEA1CFB1CC701E0
:10204000B601620F731F811D911DDF91CF91FF902B
:10205000EF90DF90CF90BF90AF909F908F907F9048
:102060006F905F904F9008952F923F924F925F92A2
:102070006F927F928F929F92AF92BF92CF92DF9298
:10208000EF92FF920F931F93CF93DF93CDB7DEB7FD
:1020900065970FB6F894DEBF0FBECDBF9C838B83D0
:1020A0007A8369833A01098B1A8B2B8B3C8BAD8A1F
:1020B000009110021091110258E2A52EB12C019747
:1020C00061F00B811C810330110509F049C00E94A9
:1020D000200E8C0144E1A42EB12C980150E040E088
:1020E0002D833E834F835887C501B0E0A0E0280FC1
:1020F000391F4A1F5B1F29873A874B875C87280F48
:10210000391F4A1F5B1F2D873E874F87588B190148
:102110002A0132E0230E311C411C511CA9E0B0E021
:102120009601A7010E9401EAAB01BC01E981FA8195
:102130003197ED30F10508F03CC18827ED55FF4E91
:102140008F4F0C94EAE9B510D810E910F6100B1176
:102150000B110B114D114D114D119111D911BB11D5
:1021600000910E0210910F02B5CFB80166197709E0
:102170006016710610F070E060E090E080E0659617
:102180000FB6F894DEBF0FBECDBFDF91CF911F9188
:102190000F91FF90EF90DF90CF90BF90AF909F9006
:1021A0008F907F906F905F904F903F902F90089509
:1021B0006A147B0458F4A618B7086D817E818F815C
:1021C00098856A0D7B1D811D911DD9CFB12CA12C45
:1021D000F4CF6A147B0438F4A618B70869857A85A9
:1021E0008B859C85EECFB12CA12CF8CF82E090E0BE
:1021F0008619970942E06416710410F090E080E0BF
:102200000D851E852F853889080F191F211D311D49
:10221000C901B801B4CF4601570129893A894B89D0
:102220005C89281539054A055B0510F449015A01F6
:10223000A9E0B0E0A50194010E9401EA29813A8158
:102240002650310922303105F0F489288A288B285C
:10225000D1F0AB01BC014950510961097109898173
:102260009A810697A9F428E030E00D89201B3109F6
:10227000C901B0E0A0E08A019B01080F191F2A1FC5
:102280003B1FC901B801620D731D841D951D77CFD9
:1022900088E090E0A0E0B0E0EECF72016101C40EF2
:1022A000D51EE61EF71E482D12E0181508F442E070
:1022B00050E09A01A9E0B0E00E94F2E929813A8158
:1022C0002950310922303105C0F48820B1F09A013B
:1022D000215031090E94F2E929813A8129303105E2
:1022E000D1F438E0832E912C0D89801A9108B12CFD
:1022F000A12C680D791D8A1D9B1D63317105810517
:10230000910520F062E170E080E090E06C0D7D1DB1
:102310008E1D9F1D34CF28E0822E912CA12CB12C34
:10232000E8CF6A017B0112E1C10ED11CE11CF11C56
:102330000E94C40F8823C9F08B819C810297029769
:10234000A0F482E690E06816790690F48619970961
:10235000C20CD31CE41CF51CA7019601280F391FE1
:10236000411D511DCA01B9010ACF82E090E0EBCFB7
:1023700090E080E0EDCFA601B7018B819C8165964E
:102380000FB6F894DEBF0FBECDBFDF91CF911F9186
:102390000F91FF90EF90DF90CF90BF90AF909F9004
:1023A0008F907F906F905F904F903F902F900C9404
:1023B000D00F60E070E0CB01E2CE0E94C40F882312
:1023C00059F020913E0E30913F0E2250310981E0AC
:1023D0002230310508F080E0089580916A0F88234B
:1023E000A1F08091710F9091720F9C0128503109DA
:1023F0002330310548F00E94A50F811105C00E94CD
:10240000570F91E08927089580E008958091A10EEB
:102410009091A20E0197039710F40C94ED1180E0B7
:102420000895282F30E09091250E992339F01092CD
:10243000230E1092220E922F882708958C3490F04C
:102440002B54310940E253E0249FC001259F900D99
:10245000349F900D11249093230E8093220E80E6DA
:102460009AEE08951092230E1092220E40E253E04D
:10247000249FC001259F900D349F900D1124089535
:102480004FB7F8942091290E30912A0E8091270E93
:102490009091280E4FBF821B930B0895FC01608121
:1024A0007181828193810895982F9F7D91549A31F3
:1024B000D0F090ED980F9A30B0F08032A1F093ED0B
:1024C000980F923080F08F3571F098ED980F923020
:1024D00050F08B3241F0662321F061E08F3209F039
:1024E00060E0862F089561E0FCCFCF92DF92EF92FB
:1024F000FF920F931F93CF93DF93D42EC22E8C01A4
:102500007C01E60EF11CD0E0E016F10639F1F8018D
:10251000C1918F01CC2311F1CD3001F1D11005C053
:10252000EC2FF0E0E159FA4FC4918C2F8F7D81544C
:102530008A3180F080ED8C0F8A3060F06C2D8C2F0A
:102540000E945412882301F3C032F1F2DF3FE1F21E
:10255000DF5FDACFDE3FC0F6DE5FD6CF8D2FDF91B3
:10256000CF911F910F91FF90EF90DF90CF90089542
:102570000F931F93F801A0918814B0918914AB2B8D
:1025800019F5909389148093881460938A1420938A
:102590008B1430938C1440938D1450938E14828935
:1025A00093899093901480938F1484899589909344
:1025B00092148093911484819581909394148093C4
:1025C00093148689809395141F910F910895CF924B
:1025D000DF92EF92FF92FC01428153814115510538
:1025E00009F447C09B01E3E0220F331FEA95E1F7AE
:1025F000F4E0660F771FFA95E1F764177507C8F1E5
:10260000CA01880F991F840F951F8217930788F1BD
:102610002D3CFCE03F07B0F4443D88E0580790F4BF
:1026200084E1829FB001839F700D11248DE1849F0E
:102630009001859F300D112441E06217730798F4D3
:1026400040E011C0A4E1B0E00E94F2E96B017C011E
:102650009A01ADE1B0E00E94F2E941E0C616D7066A
:10266000E806F90668F3842FFF90EF90DF90CF9093
:1026700008954FEFF8CF9FB7F89480918F039FBFD5
:1026800090E00895AF92BF92CF92DF92EF92FF92C7
:102690000F931F93DC01DC96ED91FC91DD97309751
:1026A00031F1808140E050E0BA0183FF0CC0408DE1
:1026B000518D628D738D80899189A289B389481B60
:1026C000590B6A0B7B0B4115B0E85B07610571057F
:1026D00020F04FEF5FE760E070E0CA011F910F91BB
:1026E000FF90EF90DF90CF90BF90AF900895DE966F
:1026F000ED91FC9180E090E0309781F384A583FF19
:1027000023C02085318542855385648575858685FE
:102710009785A080B180C280D380E480F580068157
:1027200017810E9416EBF22FE32F2F3F3F47410501
:102730005105610571058105910519F010F0FFEF54
:10274000EFE78F2F9E2FCACF20E030E040E050E02F
:1027500060E070E080E090E0E6CF9091480366236F
:1027600021F0892B80934803089580958923FACF1F
:1027700090E080E008955B9A81E0809312020895D2
:10278000CF93DF93CDB7DEB72E970FB6F894DEBFA9
:102790000FBECDBF2FEF260F283628F5883021E158
:1027A000920759F5FE0133968CE0DF011D928A9560
:1027B000E9F783EC898388E08A8381E18B83DE01FA
:1027C0001196AE01415F5F4F2D9190E080E08D301A
:1027D000910569F1FC01EE53F74E3491231327C0A4
:1027E000E4912E1751F180E02E960FB6F894DEBFDB
:1027F0000FBECDBFDF91CF9108958115904C99F711
:1028000081E2898388E08A8381E18B838C831D82C6
:1028100080EC8E8391E09F83688719869DEE9A876E
:1028200090EB9B8793EC9C871D868E87C8CF019683
:10283000811531E0930759F6D6CF4A175B0709F0A7
:10284000C3CF81E0D1CFCF92DF92EF92FF920F936F
:102850001F9380916603882389F10E946AC60091C4
:102860006203109163032091640330916503DC01DE
:10287000CB01801B910BA20BB30B0091670310914E
:1028800068032091690330916A0368017901C0945B
:10289000D094E094F094C816D906EA06FB06A8F096
:1028A000080F191F2A1F3B1F00936703109368032B
:1028B0002093690330936A03109266031F910F916E
:1028C000FF90EF90DF90CF9008950FEF1FEF9801EA
:1028D000EBCF0E9423148091930E9091940EA091BF
:1028E000950EB091960E0097A105B10541F0809329
:1028F000670390936803A0936903B0936A030895F4
:102900008091660381110DC00E946AC660936203C4
:1029100070936303809364039093650381E08093D5
:1029200066030895CF92DF92EF92FF921F93CF93A9
:10293000DF93182FD62FC42F0E94EDC56B017C01A9
:102940008091030181701817B1F10E94EDC56C19D7
:102950007D098E099F09613472448F40910580F38F
:1029600085E58093A90F8CE48093AA0F87E3809379
:10297000AB0F8091710F9091720F0597D1F08CE49D
:102980008093AC0F80E28093AD0FD093AE0FC370F5
:10299000C05DC093AF0F8093B00F88E00E9499C3D1
:1029A00080E0DF91CF911F91FF90EF90DF90CF906B
:1029B000089588E4E5CF81E0F4CFEF92FF920F9382
:1029C0001F93CF93DF93DC01892B49F490E080E0E3
:1029D000DF91CF911F910F91FF90EF90089580911B
:1029E0006A0F882399F34091750F5091760F641701
:1029F000750760F30091710F1091720FC801019774
:102A0000029708F0C4C00230110509F0BBC08091E4
:102A1000730F9091740F480F591F8DEE8C9383E7BD
:102A200011968C93119712964C93129713965C9370
:102A3000139781E314968C931497CA0142961596C6
:102A40008C93159716969C93169787E090E0E8E88C
:102A5000F8E0ED01C80FD91F2CE838E064916993C4
:102A600031962E173F07D1F79C012C5F3F4F6091A5
:102A7000710F7091720F6230710581F4EEEEF8E023
:102A8000ED01C20FD31F22EF38E0649169933196B4
:102A90002E173F07D1F79C01285F3F4FED01C20F72
:102AA000D31F81E088839091770F8091780FF9018F
:102AB0003196EA0FFB1F9083818381E28B83909193
:102AC000790F80917A0FF9013496EA0FFB1F9083FA
:102AD000818381E18E8390917B0F80917C0FF9013E
:102AE0003796EA0FFB1F9083818385ED898786E403
:102AF000E82E88E0F82EC9010A968A0F9B1F65E828
:102B000078E0F7011491FC011193CF01FFEFEF1A68
:102B1000FF0A6E157F05A9F789EDFE01E75BFF4F00
:102B2000808391E031969083319610823196908324
:102B30003196808331961082B901605B7F4F81EEC0
:102B4000319680838091710F9091720F029799F462
:102B50006A0F7B1F8DEEFB018083CF5ADF4F8BE71F
:102B60008883F901EE5AFF4FEA0FFB1F4083518320
:102B7000B9016C5A7F4FCB010196A60FB71F29EE02
:102B80002C9326CF50E040E090E080E060CF03300F
:102B9000110509F0D6C080916E0F811140C0E1EDA2
:102BA000F8E0CD014D96ED012491299331968C17D3
:102BB0009D07D1F781E05D968C935D979091770F9B
:102BC0008091780F5E969C935E975F968C935F974B
:102BD00081E290968C9390979091790F80917A0FE3
:102BE00091969C93919792968C939297EBE0F8E054
:102BF000ED01A396CD01825A9F4F249129933196DE
:102C00008C179D07D1F730917B0F20917C0FFC0131
:102C10003083A15ABF4F2C9380E690E0D9CE91E249
:102C20009C938DE111968C93119781E112968C9370
:102C3000129713968C93139714961C92149780EC0A
:102C400015968C93159785ED16968C93169721E023
:102C500017962C93179783E518968C9318971996C7
:102C60001C9219978DEE1A968C931A9780EB1B96EF
:102C70008C931B9789EC1C968C931C975EE31D9696
:102C80005C931D9748E01E964C931E9733ED1F965C
:102C90003C931F978EEC50968C9350978DEC5196E9
:102CA0008C93519752965C93529757E053965C934E
:102CB000539754968C93549755964C93559743E05D
:102CC00056964C93569757968C9357978EEB5896EB
:102CD0008C93589782E059968C9359975A963C93C7
:102CE0005A9780EE5B968C935B975C962C935C97DF
:102CF0002091770F8091780F5D962C935D975E966B
:102D00008C935E9789ED5F968C935F9790969C93DA
:102D100090979091790F80917A0F91969C939197CB
:102D200092968C939297E0EDF7E0ED01A396CD019A
:102D3000825A9F4F2491299331968C179D07D1F782
:102D400062CFC8010897039760F4E0E7F7E0CD0190
:102D5000805A9F4F24912D9331968A179B07D1F764
:102D60005BCFED01C8010E94A50F882309F447C07D
:102D7000E6E1F7E0DE01CE01865A9F4F24912D93C4
:102D800031968A179B07D1F78091710F9091720F3E
:102D90008C30910581F10D9781F586E1FE01E55BAF
:102DA000FF4F8083319680917D0F80839091770FC4
:102DB0008091780F31969083319680839091790F2E
:102DC00080917A0F319690833196808390917B0F1A
:102DD00080917C0F3196908331968083DE01AD5ACD
:102DE000BF4F97E0E5E9FFE001900D929A95E1F77A
:102DF0008AE590E0EDCD89E2D1CF8BE1CFCF0450D1
:102E000011090230110508F091C00E948D0F209128
:102E1000730F3091740F4091790F50917A0F61E5E3
:102E20004115504108F463E5620F732F711D9EE355
:102E3000988396E199839DEC9A8392E19B831C820F
:102E400091E19D836E837F839FED98872091790F19
:102E500030917A0F09E010E02115304130F493ED04
:102E6000998790EE9A870BE010E0DE01A00FB11F6A
:102E700091E09C934091770F9091780FF8013196F3
:102E8000EC0FFD1F4083918399ED13969C9313974C
:102E900091E214969C9314974091790F90917A0F38
:102EA000F8013596EC0FFD1F4083918322EF38E047
:102EB000A801495F5F4F4C0F5D1F60E379E0F901A6
:102EC0009491FA019193AF012F5F3F4F62177307FF
:102ED000B1F7AB5BBF4F93EC9C9340917B0F90910C
:102EE0007C0FF801EA5BFF4FEC0FFD1F40839183DD
:102EF000085B1F4FE82EF12CA7016EE77FE0CE01A3
:102F0000800F911F0E9449EB98012E0D3F1DC20FAB
:102F1000D31F8DE088838091750F9091760F2F5F7E
:102F20003F4F2817390709F051CD52CD81E08883F2
:102F30009091770F8091780F99838A8381E28B83B8
:102F40009091790F80917A0F9C838D8381E18E839C
:102F500090917B0F80917C0F9F83888785ED898777
:102F60008091710F9091720FDE011A96ECE8F8E0F3
:102F70000297D1F484918D93319688E0E03DF80773
:102F8000C9F7FE01E25BFF4F8DEE808331968BE740
:102F900080833196108231961082CE5ADF4F89EEAF
:102FA000888383E590E014CD84918D93319698E0E9
:102FB000E13DF907C9F78FE490E00ACD4F925F92A7
:102FC0006F927F928F929F92AF92BF92CF92DF9239
:102FD000EF92FF920F931F93CF93DF935C014B010E
:102FE0006A012901CB010E948DE6EC013C018FEFC3
:102FF000681A780AF5018081882309F450C0850198
:10300000F80181918D3009F446C08A3009F443C03B
:10301000882309F444C078015701F701819188237E
:1030200021F08D3011F08A30C1F5E01AF10A6E14EA
:103030007F0400F7AE01B401C8010E946EE6892B3F
:10304000C9F6F801EC0FFD1F80818D3399F6C0950C
:10305000D095EC0EFD1EE414F50408F5B801660DDC
:10306000771DA701C6010E9449EBEC0CFD1CF7017E
:10307000108281E0DF91CF911F910F91FF90EF902F
:10308000DF90CF90BF90AF909F908F907F906F9088
:103090005F904F9008958F01B3CF7F01BDCF80E047
:1030A000E9CFAF92BF92CF92DF92EF92FF920F9350
:1030B0001F93CF93DF930097B9F17B018C01EC0153
:1030C00009900020E9F72197C81BD90BCB010E947A
:1030D0008DE66C01C817D90738F1C81BD90BC00F92
:1030E000D11F10E000E0C016D10691F0F701E00F0B
:1030F000F11FB490899190E00E9434EBA82E8B2DA3
:1031000090E00E9434EBA8120FC00F5F1F4FEBCF6F
:1031100081E0DF91CF911F910F91FF90EF90DF90B1
:10312000CF90BF90AF90089580E0F3CFFC0180A9CD
:1031300091A9009721F030E020E00C94777E82A9DD
:1031400093A9009711F00C9439888FEF9FEF0895A1
:10315000CF93DF931F92CDB7DEB741E050E0BE01C1
:103160006F5F7F4F0C960E949618019731F489810A
:1031700090E00F90DF91CF9108958FEF9FEFF9CFFF
:103180004F925F926F927F928F929F92AF92BF9277
:10319000CF92DF92EF92FF920F931F93CF93DF9323
:1031A0001F92CDB7DEB7FC0104AD15AD01151105B9
:1031B000A9F1F80180889188A288B388C484D58455
:1031C000E684F78430E020E041E050E0BE016F5F2C
:1031D0007F4FC8010E94777E0197E9F4898190E0D2
:1031E000F801808A918AA28AB38AC486D586E68647
:1031F000F7860F90DF91CF911F910F91FF90EF9085
:10320000DF90CF90BF90AF909F908F907F906F9006
:103210005F904F9008958FEF9FEFE2CF06AD17AD0F
:103220008FEF9FEF0115110521F3F80140805180C8
:103230006280738084809580A680B780C08CD18C9A
:10324000E28CF38C41E050E0BE016F5F7F4FC8011C
:103250000E943988019781F4898190E0F8014082C9
:1032600051826282738284829582A682B782C08EE6
:10327000D18EE28EF38EBDCF8FEF9FEFEFCFFC01AB
:1032800080A991A9009711F00C94D0CC82A993A9A0
:10329000009711F00C94908B80E008950C960C949C
:1032A0003F19CF92DF92EF92FF920E946AC66B01A4
:1032B0000E94ECBE892BA9F081E080934803D09254
:1032C0004503C0924403D0924703C09246038091C5
:1032D0004803877E80934803FF90EF90DF90CF9064
:1032E000089587E0EACF2F923F924F925F926F92BC
:1032F0007F928F929F92AF92BF92CF92DF92EF9286
:10330000FF920F931F93CF93DF93CDB7DEB76E97E6
:103310000FB6F894DEBF0FBECDBF7E876D875E8B84
:103320004D8BDC01D0960D90BC91A02DBA87A9875A
:10333000109709F4E1C012968C9181FF1BC083FDA8
:1033400021C08D889E88A40170E060E0E985FA853F
:1033500080899189A289B38980959095A095B0952F
:103360005F01FCE0AF0EB11C84179507A607B707F5
:1033700008F0D6C4E985FA858181816081831E8A3F
:103380001D8A9FC0A985BA8558964D915D916D9112
:103390007C915B97CD010E9421D08111D2CFEACFE1
:1033A00095010E9444CB87FDE5CF811106C0898538
:1033B0009A850E940F818823E9F2A985BA8516961D
:1033C000ED91FC9117971C964D915D916D917C91BB
:1033D0001F974250510961097109848104C0440F4B
:1033E000551F661F771F8A95D2F781899289A38915
:1033F000B489480F591F6A1F7B1FFDC4E985FA85F0
:10340000848D958DA68DB78D0097A105B10589F4A2
:10341000CF010E940F81882309F4ACCFE985FA859A
:1034200084859585A685B785848F958FA68FB78F60
:10343000B8C4E985FA8584879587A687B787B1C41C
:1034400021E03AC49401232F332726950281011BE2
:10345000110B2017310708F489012801542C44244A
:10346000550CC416D506E606F70698F0DB01CA012E
:10347000800F911FA11DB11DC816D906EA06FB06D3
:1034800040F414A28FEF9FEFDC0187A390A7A1A7C0
:10349000B2A72D853E85C3010E9479C828C4E9855D
:1034A000FA85808D918DA28DB38D8C159D05AE050D
:1034B000BF0538F4C08ED18EE28EF38E8281806893
:1034C00082838D899E896E960FB6F894DEBF0FBEFB
:1034D000CDBFDF91CF911F910F91FF90EF90DF90C3
:1034E000CF90BF90AF909F908F907F906F905F90A4
:1034F0004F903F902F900895DC01D2960D90BC9193
:10350000A02DBE8FAD8F109709F439CF9E968C9168
:1035100081FF73C183FD52C1ED8DFE8DF081F98372
:10352000AD8DBE8D1196BC91B987ED8DFE8DF2816A
:10353000FB87AD8DBE8D1396BC91BC87ED8DFE8D46
:10354000F481FF87AD8DBE8D1596BC91B88BED8D46
:10355000FE8DF681F98BAD8DBE8D1796BC91BA8B21
:10356000ED8DFE8D408851886288738884889588A7
:1035700026883788298139854B855C856F857889D0
:1035800089899B2F52016301740181010E941FEB05
:1035900011F008F03BC11B861C861F86188A198A09
:1035A0001A8A1F8A188E8D889E889A8689862D8D04
:1035B0003E8D285E3F4F3C8F2B8FAD8DBE8D2C9066
:1035C00011963C90119712964C90129713965C901E
:1035D000139714966C90149715967C9015971696E1
:1035E0008C90169717969C901797E985FA85EF2B84
:1035F00009F40AC39096ED91FC91DF01AC5DBD4FDB
:10360000CD90DD90ED90FC90320121014C205D20A9
:103610006E207F20920131703C8B2B8B4114510422
:103620006104710409F056C0AD8DBE8D5896CD90E1
:10363000DD90ED90FC905B97C114D104E104F1049E
:1036400009F423C19E968C919E9786FF0EC15C96CD
:103650008D909D90AD90BC905F9718962C91189787
:1036600019963C9119971A964C911A971B965C9152
:103670001B971C966C911C971D967C911D971E960E
:103680008C911E971F969C91AFEF0E940AEBE15D13
:10369000FD4F0081075F0E94E6EA29833A834B834E
:1036A0005C836D837E838F83988729813A814B81E8
:1036B0005C81820E931EA41EB51EC814D904EA04B0
:1036C000FB0408F4C4C08D8D9E8D0E944386882320
:1036D00009F493C0AD8DBE8D9096ED91FC91DF0104
:1036E000A15DBD4F3C907301620119E0F694E7942F
:1036F000D794C7941A95D1F7AD8DBE8D58964D903D
:103700005D906D907C905B97B2E04B1A5108610818
:103710007108032C04C0440C551C661C771C0A94C9
:10372000D2F74C0C5D1C6E1C7F1CCF01885E9D4F38
:10373000DC014D915D916D917C91440E551E661E8C
:10374000771E8B889C88892809F0C1C089849A8457
:10375000811422E0920608F4BAC02B853C854F857F
:10376000588969897A898F89988DA0E00E9428EB11
:1037700009F0ADC043815481658176818181928158
:10378000811434E0930608F0E9C144165506660634
:10379000770641F410824FEF5FEFBA014383548301
:1037A000658376832D853E85B301A2010E94FBC807
:1037B000882319F1212C82E0382E11C1AD8DBE8DE8
:1037C00018960C91189719961C9119971A962C9186
:1037D0001A971B963C911B971C964C911C971D9613
:1037E0005C911D971E966C911E971F967C911F975A
:1037F000CD010E94EF8681118FCEAD8DBE8D9D963D
:103800008C919D9781609D968C93B9CD8201930197
:10381000A401B1018D8D9E8D0E94EF86882369F3EE
:10382000298139854B855C856F85788989899A8955
:1038300052016301740181010E9416EB2B873C87C2
:103840004F87588B698B7A8B8F8B988FACCE3FEFDD
:10385000C31AD30AE30AF30AAD8DBE8D5896CD92F2
:10386000DD92ED92FC925B9735CF2B8D3C8DB701AD
:10387000A601CF010E94AD83082E000C990B97FD85
:10388000BCCF892B09F41FCF25CFED8DFE8D848D04
:10389000958DA68DB78D0097A105B10589F4CF014F
:1038A0000E944386882309F4A8CFED8DFE8D808D7C
:1038B000918DA28DB38D848F958FA68FB78F0ACFF0
:1038C000ED8DFE8D808F918FA28FB38F03CF212C32
:1038D000B2E03B2E8B889C8828183908892809F08B
:1038E0002EC1AD8DBE8D2C9111963C9111971296E3
:1038F0004C91129713965C91139714966C911497B0
:1039000015967C9115975096AC9050975196BC9017
:1039100051975296CC9052975396DC905397549669
:10392000EC9054975596FC90559756960C91569757
:1039300057961C91579716968C91169717969C91AF
:103940000E941FEB08F4FBC025E0B301A201CF01E8
:103950000E9485CA009709F450CFEB89FC89E80FD3
:10396000F91F2B853C854F85588969897A898F890C
:10397000988DA0E00E9428EB09F4E3C04101B12C2E
:10398000A12CC12CD12C760129829A82AB82BC82D7
:10399000CD82DE82EF82F8865101C12CD12CE12C40
:1039A000F12C00E010E00E941FEB10F4222E332EC9
:1039B000A10170E060E0CF010E9452EB8B899C89ED
:1039C000820D931D8115924051F4AD8DBE8D909660
:1039D0008D919C910E944FC9882309F40ECF9101CB
:1039E00050E040E060E070E0CB0129823A834B83F5
:1039F0005C836D837E838F83988740E050E060E036
:103A000070E080E090E0AD8DBE8DAC901196BC90E2
:103A100011971296CC9012971396DC9013971496E8
:103A2000EC9014971596FC90159716960C91169796
:103A300017961C9117970E9401EB722E832E942EDD
:103A4000652E562E472EF82FE92F2C9311963C9376
:103A5000119712964C93129713965C9313971496A2
:103A60006C93149715967C93159716968C931697CE
:103A700017969C932B853C854F85588969897A894F
:103A80008F89988DA0E00E9428EB09F4B0C0A9802E
:103A9000BA80C12CD12CE12CF12C00E010E00E9466
:103AA00016EB2B873C874F87588B698B7A8B8F8BD4
:103AB000988FAD8DBE8D5096AC9050975196BC901E
:103AC00051975296CC9052975396DC9053975496B8
:103AD000EC9054975596FC90559756960C915697A6
:103AE00057961C915797272D382D492D562D652D0A
:103AF000742D8F2F9E2F0E941FEB09F008F45DCDCF
:103B00009E968C919E9780689E968C939E975096D9
:103B10007C92509751968C92519752969C925297C4
:103B200053966C92539754965C92549755964C9238
:103B300055975696FC9356975796EC933ECD21E0B9
:103B400004CF89849A848214930408F41401A10197
:103B50006D857E85CF010E9449EB30CF09851A859E
:103B6000012F1127069530E020E0812C912C540183
:103B7000839404C0880C991CAA1CBB1C3A94D2F7ED
:103B800089829A82AB82BC828C189D08AE08BF08DD
:103B9000081519052A053B0510F44801590195013E
:103BA0008401A9E0000F111F221F331FAA95D1F72E
:103BB00018018401441555056605770588F0840CC5
:103BC000951CA61CB71C481559056A057B0540F4D1
:103BD00010822FEF3FEFA90123833483458356835F
:103BE0002D853E85B301A2010E9479C8F5CEAD8432
:103BF000BE84A20CB31CBE86AD8629853A852219E7
:103C000033093A87298755CFED8DFE8D2085318583
:103C10004285538564857585868597855101620146
:103C2000730184010E941FEB08F04BCC2086318683
:103C300042865386648675868686978686A58068C2
:103C400086A73FCCFC01425051096109710984816A
:103C500004C0440F551F661F771F8A95D2F78189CC
:103C60009289A389B489480F591F6A1F7B1F80E07E
:103C700092E08619970924018815990508F42C010A
:103C80006114710409F0DCCBA985BA8550960D91B9
:103C90001D912D913C9153975896CD90DD90ED90CC
:103CA000FC905B970C151D052E053F0520F4129620
:103CB0008C9185FFC5CB25E0CF0184960E9485CAF3
:103CC000009709F457CBA2016D857E85860D971D5F
:103CD0000E9449EB640C751C6114B2E07B0651F440
:103CE000E985FA858681978184960E944FC9882349
:103CF00009F440CBE985FA8580899189A289B38945
:103D0000840D951DA11DB11D808B918BA28BB38B52
:103D10002D853E85240D351D3E872D8784189508F9
:103D2000E985FA85C088D188E288F38881149104F6
:103D300009F4B5CB86819781DC0113961C91B701FC
:103D4000A60129E076956795579547952A95D1F76D
:103D500014233601B1E07B22111123C0448555851F
:103D6000668577856114710409F06CCF41155105A2
:103D70006105710509F442CB228126FF11CB208C0D
:103D8000318C428C538CC214D304E404F50408F043
:103D900007CB4F5F5F4F6F4F7F4F448755876687D5
:103DA0007787A985BA851696ED91FC9117971C9691
:103DB0004D915D916D917C911F9742505109610920
:103DC0007109848104C0440F551F661F771F8A95AF
:103DD000D2F781899289A389B489840F951FA61F80
:103DE000B71FAC01BD01410F511D611D711D611453
:103DF000710409F03CCF8114B2E09B0608F437CF80
:103E0000C7A0D0A4E1A4F2A465A076A0811424E008
:103E1000920608F017CB4C155D056E057F0541F441
:103E200014A28FEF9FEFDC0187A390A7A1A7B2A7F1
:103E30002D853E85C3010E94FBC8882309F49ACAD8
:103E4000412C02E0502E56CF0C960C947319CF9350
:103E5000DF931F92CDB7DEB7698341E050E0BE012A
:103E60006F5F7F4F0C960E9473190F90DF91CF9177
:103E70000895AC0161E170E089EA9FE00C94FAD604
:103E8000CF92DF92EF92FF92CF93C82F0E94EDC5A1
:103E90006B017C01809103018170C817B1F00E9411
:103EA000EDC56C197D098E099F096132714A874001
:103EB000910580F38EE097E00E94391F80E0CF915A
:103EC000FF90EF90DF90CF90089581E0F8CF1F939F
:103ED000CF93DF938095C82FCC0FC11DCC0FC11D90
:103EE00014E080E00E94401F8823E9F08C2F881F97
:103EF0008827881F0E94870F5B9881E00E94401FDF
:103F0000D82F882381F0C6FB882780F90E94870F6D
:103F10000E94450FCC0FCC0F115019F78D2FDF9158
:103F2000CF911F910895D0E0F9CFCF93C62FAC0168
:103F300061E170E088E59FE00E94FAD6C093260E0A
:103F4000CF910895009711F481E090E020919A00BC
:103F500030919B00820F931F90939B0080939A0057
:103F600008954FB7F8942091C4033091C503809110
:103F7000C2039091C3034FBF821B930B089580919E
:103F8000A10E9091A20E029759F480917E0E90910D
:103F90007F0E029729F48091780E9091790E089502
:103FA00090E080E00895CF93C62FAC0161E170E00E
:103FB00088E59FE00E941B96C093570FCF9108950C
:103FC00010926703109268031092690310926A03BB
:103FD00010926203109263031092640310926503BF
:103FE0001092660308951F93CF93DF932091A10E43
:103FF0003091A20E2230310509F051C020917E0E81
:1040000030917F0E2230310509F049C0C091780E01
:10401000D091790E209709F442C02091990E3091E9
:104020009A0E2C173D0759F1182F0E9423140E9455
:10403000E01FD0939A0EC093990ED0934902C0937B
:1040400048028091590E90915A0EA0915B0EB0914A
:104050005C0E8093930E9093940EA093950EB09364
:10406000960E1123E1F09FB7F8948091570F9FBFF0
:104070008230A9F4DF91CF911F910C94801480912C
:10408000590E90915A0EA0915B0EB0915C0E8093E8
:10409000930E9093940EA093950EB093960EDF918D
:1040A000CF911F9108952F923F924F925F926F92FE
:1040B0007F928F92AF92BF92CF92DF92EF92FF9258
:1040C0000F931F93CF93DF9300D000D000D01F92A7
:1040D000CDB7DEB79A8789870E94C8A2A985BA851D
:1040E00011969C938E938AEB93E113969C938E93F7
:1040F00012978091000F9091010F15969C938E93CB
:1041000014978091F70E16968C9316978091F50E62
:104110009091F60E18969C938E9317978091F30EBC
:104120009091F40E1A969C938E9319978091FD0EA0
:104130001B968C931B978091A30E1C968C931C97B7
:104140008091A40E1D968C931D978091FE0E9091E8
:10415000FF0E1F969C938E931E9781E89EE05196CA
:104160009C938E93509780916603811145C0009176
:104170006703109168032091690330916A03E98510
:10418000FA85028B138B248B358B8091930E909143
:10419000940EA091950EB091960E868B978BA08F62
:1041A000B18F0091A10E1091A20E7801F1E0EF1AEB
:1041B000F10823E0E216F10408F09BC080916A0F39
:1041C000882309F496C080913E0E90913F0E843072
:1041D000910509F491C0039709F05FC00E94570F41
:1041E0008823B1F18091710F9091720F079709F0B8
:1041F00086C08BE090E033C00E946AC600916203E3
:10420000109163032091640330916503DC01CB01BD
:10421000801B910BA20BB30B0091670310916803F5
:104220002091690330916A0368017901C094D094A8
:10423000E094F094C816D906EA06FB0628F0080FA9
:10424000191F2A1F3B1F9BCF0FEF1FEF980197CF1E
:104250000E94C40F882309F455C089E090E0A98525
:10426000BA855C969C938E935B972091000F30915A
:10427000010FA901445051094230510508F448C0CA
:104280002730310509F444C0009729F0069721E052
:10429000069708F03EC020E03CC00E94470F811105
:1042A00031C00E94C40F811130C0E091710FF091B4
:1042B000720F3197E730F105E0F48827ED59FE4D94
:1042C0008F4F0C94EAE96D216A21702173217621C8
:1042D0007F21F92082E090E0C2CF81E090E0BFCF63
:1042E00083E090E0BCCF84E090E0B9CF85E090E03F
:1042F000B6CF90E080E0B3CF8CE090E0B0CF8AE022
:1043000090E0ADCF87E090E0AACF88E090E0A7CF23
:1043100021E0E985FA85228FC8010497029708F009
:10432000DFC0C0901A0ED0901B0EE0901C0EF090D3
:104330001D0E0E9440124091160E5091170E609172
:10434000180E7091190EB0E0A0E0481759076A07DF
:104350007B0708F4A1C09A01AB01281B390B4A0B5B
:104360005B0BC114D104E104F10409F099C020E011
:10437000A985BA855D962C938091A10E9091A20E8D
:104380009C01245031092230310508F063C20E949B
:1043900040128115B8E09B0708F41DC220E0A985F2
:1043A000BA855E962C935E978091F90E5F968C93FA
:1043B0000091A10E1091A20E80919B0E023011056A
:1043C00049F480917E0E90917F0E029709F0EBC226
:1043D0008091730EE985FA8580A38091FA0E81A3FE
:1043E0000E94BF1FA985BA8593969C938E9392973E
:1043F0000230110509F0D9C280917E0E90917F0E96
:10440000029709F0D2C28091760E9091770EE985DD
:10441000FA8595A384A30230110509F0C9C28091E1
:104420007E0E90917F0E029709F0C2C281E69EE057
:10443000A985BA8597969C938E93969780919C0EAA
:1044400090919D0E0230110559F480917E0E90914D
:104450007F0E029709F0AFC28091740E9091750E95
:10446000E985FA8591A780A72A960FB6F894DEBF52
:104470000FBECDBFDF91CF911F910F91FF90EF90B5
:10448000DF90CF90BF90AF908F907F906F905F90B4
:104490004F903F902F90089520E030E0A90161CF28
:1044A0002C153D054E055F0510F024E661CFA4E60E
:1044B000B0E00E9401EA970186013695279517958D
:1044C0000795600F711F821F931FA70196010E941D
:1044D000C8E9253631054105510508F449CFE5CF36
:1044E000F3E0EF16F10408F01BC180916A0F8823F6
:1044F00009F43DCF80913E0E90913F0E0497B9F4A0
:10450000E091770FF091780F309709F430CF209138
:10451000A00F3091A10F4091A20F5091A30FA4E6DC
:10452000B0E00E9401EA9F0150E040E0D0CF8FB799
:10453000F89400913E0E10913F0E2091600330914F
:1045400061033E832D8320905E0330905F03B09023
:104550005D0340915B0350915C0358874F83A090AB
:104560005A03809059038FBF40E850E060E070E04C
:1045700081E090E00E94D00F69837A838B839C83D3
:104580000E94470F811104C00E94570F8823C1F079
:104590004091410E5091420E6091430E7091440E35
:1045A00083E090E00E94D00F49805A806B807C802D
:1045B000460E571E681E791EC12CD12C760132C0C2
:1045C0000E94770F811157C080916A0F4091750F3B
:1045D0005091760F811102C050E040E070E060E041
:1045E00082E090E00E94D00F6B017C0149805A80EC
:1045F0006B807C804C0C5D1C6E1C7F1C0E94C40F69
:10460000882381F04091410E5091420E6091430EFB
:104610007091440E83E090E00E94D00F460E571E2A
:10462000681E791E411451046104710409F49FCE7F
:104630000130110529F50B2D10E030E020E070E885
:10464000C72ED12CE12CF12CA1016D817E8181E05E
:1046500090E00E9434109201A3016415750586054F
:10466000970510F49B01AC01A4E6B0E00E9401EABA
:10467000A30192012CCF49805A806B807C809CCF13
:104680000230110509F58F8198858C0130E020E01A
:1046900080916A0FC090750FD090760F811102C083
:1046A000D12CC12CF12CE12CA1016D817E8182E005
:1046B00090E00E94341029813A814B815C81620F25
:1046C000731F841F951FC7CF03301105F9F489812B
:1046D0009A81AB81BC818C0D9D1DAE1DBF1D898350
:1046E0009A83AB83BC83C090410ED090420EE09081
:1046F000430EF090440EAF81B8858D0130E020E08C
:10470000A1016D817E8183E090E0D3CF9201A3016E
:10471000012B09F0A9CF20E030E040E050E0A4CF29
:104720000730110509F023CE0E947CAF049709F4ED
:10473000BCCE8091AB039091AC03A091AD03B0913E
:10474000AE03892B8A2B8B2B09F411CE8FB7F894EB
:104750002091BB033091BC034091BD035091BE0337
:104760008FBFC090AB03D090AC03E090AD03F0904E
:10477000AE032C153D054E055F0558F569E2C616DA
:104780006CE5D6066FE8E60662E0F606A0F0569500
:10479000479537952795D701C601B695A795979563
:1047A0008795E1E0CE22DD24EE24FF24C80ED91E39
:1047B000EA1EFB1EE3CFA4E6B0E00E9401EAA701D7
:1047C00096010E94C8E9243631054105510508F4D7
:1047D000CFCD23E6CDCDAC0170E060E04090160E69
:1047E0005090170E6090180E7090190E44165506D2
:1047F0006606770608F4D2CD441A550A660A770A87
:10480000C0901A0ED0901B0EE0901C0EF0901D0E62
:104810004C145D046E047F0410F024E6C0CD9C01AE
:10482000A4E6B0E00E94F2E9A70196012419350937
:10483000460957092115E8E03E074105510508F0F2
:1048400069C00E94C8E9253631054105510508F4C3
:10485000A6CDE3CF9C01215031092330310508F06A
:104860005EC080913E0E90913F0E9C012150310917
:104870002330310590F6019721F40E94770F8111C2
:10488000CCCF8091550E9091560EA091570EB091BD
:10489000580E892B8A2B8B2B09F4BFCF0E942C0F2B
:1048A0008115F8E09F0708F079CDAC0170E060E079
:1048B0004090490E50904A0E60904B0E70904C0EF6
:1048C000441655066606770608F468CD441A550A5C
:1048D000660A770AC090550ED090560EE090570E9B
:1048E000F090580E4C145D046E047F0408F095CFD0
:1048F0009C01A4E6B0E00E94F2E9A7019601241908
:104900003509460957092115A8E03A07410551051F
:1049100008F497CF2FEF37E040E050E092CF873098
:10492000910571F50E94B11F4FB7F8943091C00303
:104930002091BF034FBF332329F0211103C00097FB
:1049400009F42CCD8115B8E09B0708F027CD6091C4
:10495000B3037091B4036C01F12CE12CC60ED71E89
:10496000E11CF11CC114D104E104F10409F455CF98
:104970009C01A4E6B0E00E94F2E9A70196015ACF9B
:10498000069709F00BCD80913302811146CF0E942A
:104990003EA19C01A4E6B0E00E94F2E928EF3FE3CB
:1049A00040E050E04ECF80E015CD90E080E02FCD8C
:1049B0008CE393E03DCD80917A0E90917B0E50CDAB
:1049C0001092A30E1092A40E08951092F90E8091E9
:1049D000000F9091010F8130910529F40E9458D564
:1049E0008093F90E08950297E9F70E9468D5F8CFF1
:1049F0000F931F93CF93DF93CDB7DEB76E970FB6AC
:104A0000F894DEBF0FBECDBF8C018B30910509F04D
:104A10008FC082E08093130281E090E021E00D30AE
:104A2000110509F020E0209358030D30110511F411
:104A300083E090E02EE1289FB001299F700D1124A2
:104A40006753764F4EE150E0CE0101960E947BE61F
:104A50008E819F8124E0880F991F2A95E1F790931A
:104A60000102809300028885998534E0880F991FA0
:104A70003A95E1F790930302809302028A859B8521
:104A800044E0880F991F4A95E1F7909305028093BF
:104A900004028C859D8554E0880F991F5A95E1F793
:104AA00090930702809306020B30110509F057C05E
:104AB00082E898E0909301028093000290930302B1
:104AC0008093020289E491E19093050280930402AD
:104AD00090930702809306028E859F859093110222
:104AE000809310028A899B8990930F0280930E0213
:104AF0008E8980930D028F8980930B02888D80931D
:104B00000C02898D80930A028A8D809309028B8D15
:104B10009C8D9093500380934F036E960FB6F8943C
:104B2000DEBF0FBECDBFDF91CF911F910F910895D2
:104B30008C30910531F483E08093130282E090E0A1
:104B40006DCF0E9731F484E0809313028AE090E0F9
:104B500065CF81E08093130290E080E05FCF0C305E
:104B6000110509F0B9CF83E197E09093010280939A
:104B70000002909303028093020281EC9CE0A4CF98
:104B800090E0882329F0282F2170920F8695F9CF85
:104B9000892F08952F923F924F925F926F927F924A
:104BA0008F929F92AF92BF92CF92DF92EF92FF923D
:104BB0000F931F93CF93DF93CDB7DEB7AA970FB6AE
:104BC000F894DEBF0FBECDBF88A31A012B010A8B5C
:104BD0001B8B2C8B3D8B8E2DDF8ECE8E0E94C025A5
:104BE000782E8F2D0E94C025780EA72CB12CD12CA9
:104BF000C12CAA8EBB8ECC8EDD8EBE016D5F7F4F29
:104C0000CE0101960E94DD0EBE01695F7F4FCE018D
:104C100005960E947D0E29813A818B819C81B0E0AE
:104C2000A0E06C017D01C20ED31EE11CF11CCCA2E0
:104C3000DDA2EEA2FFA2D8A0E0911002F091110235
:104C4000D11004C0E0910E02F0910F028091580340
:104C5000882309F46DC180914F0390915003892BF3
:104C600009F469C102E0098B9101A20160E070E0E2
:104C700080E090E003E00E94CBEA622E39A34A0173
:104C8000B62FA72F8AA39BA30A891B892C893D894C
:104C90007801890120E130E040E050E060E070E020
:104CA00080E090E057016801E12CF12C00E010E079
:104CB0000E9416EB59016A017B018C01262D39A156
:104CC000A4016B2F7A2F8AA19BA10E9401EBA72C34
:104CD000B12CC12CD12CE12CF12C00E010E00E9471
:104CE00016EBAA88BB88CC88DD882A0C3B1C4C1CA0
:104CF0005D1CCA8CDB8CEC8CFD8C2C0C3D1C4E1C82
:104D00005F1C62015101E12CF12C87012A8ABB8AC8
:104D10004C8ADD8AEE8AFF8A088F198F1F01512C79
:104D2000412C612C712C4301B8A0BB2009F406C1B1
:104D3000C0900B02CA8EB988AB2CB12CD12CC12CDF
:104D4000E12CF12C8701A986BA86CB86DC86ED861C
:104D5000FE860F87188B59016A017B018C01298916
:104D600030E040E050E060E070E080E090E00E94E1
:104D700014EA51016201730184010E9401EBAA8CC3
:104D8000B12CC12CD12CE12CF12C00E010E00E94C0
:104D900001EB0989023009F0D5C020904F03309013
:104DA0005003512C412C612C712C430151016201A3
:104DB000730184010E9401EB298B3A8F49A35AA306
:104DC0006BA378A789A79AA718A180910D0211114A
:104DD00002C080910C0260900902680E7724771C53
:104DE000972C990C99082A893B894C895D8960E048
:104DF00070E080E090E0A4E00E940AEBA984BA840D
:104E0000CB84DC84ED84FE840F8518890E9414EA2B
:104E100059016A017B018C019301492D592D692D9E
:104E2000792D892D992D0E9401EBED81FE812F8036
:104E30003884512C412C2E0E3F1E411C511C510117
:104E40006201E12CF12C00E010E00E9414EA19014B
:104E50002A013B014C014CA15DA16EA17FA19A01E9
:104E6000AB0160E070E0CB0129873A874B875C8714
:104E70006D877E878F87988BA988BA8CC9A0DAA0A6
:104E8000EBA0F8A409A51AA560E070E080E090E02E
:104E90000E9414EA2056304F4F4F5F4F6F4F7F4FA5
:104EA0008F4F9F4F59016A017B018C019101A20133
:104EB000B301C4010E9401EBE0E4AE2EFFE1BF2E7E
:104EC000C12CD12CE12CF12C00E010E00E946EEA04
:104ED000F42FE52F2F3FAFEF3A074A075A07610536
:104EE000710581059105B9F1B0F18FEF9FEFDC01FC
:104EF000EE8DFF8D80839183A283B38380E0AA9699
:104F00000FB6F894DEBF0FBECDBFDF91CF911F91DA
:104F10000F91FF90EF90DF90CF90BF90AF909F9058
:104F20008F907F906F905F904F903F902F9008955B
:104F300011E0198B99CE21E0298B96CED0900A02F0
:104F4000DA8EF9CE212C312C412C512C612C712C74
:104F5000812C912C2BCFC901AF2FBE2F40919003F4
:104F60005091910360919203709193038A019B0188
:104F70000095109520953095081719072A073B07CB
:104F800060F48FEF9FEFDC01809390039093910387
:104F9000A0939203B0939303ABCF480F591F6A1F9E
:104FA0007B1F4093900350939103609392037093FF
:104FB0009303EE8DFF8D40815181628173818A015F
:104FC0009B010095109520953095081719072A0721
:104FD0003B0708F48ACF840F951FA61FB71F808355
:104FE0009183A283B38381E08ACF8FB7F894109224
:104FF0005C0310925B0310924E0310924D031092CB
:1050000008028FBF0895EAE6FFE080E5DF011D9208
:105010008A95E9F70895DB01FC013197E930F10544
:1050200068F58827E95EF74D8F4F0C94EAE9202850
:1050300026282C282F28322835283B2829283828AC
:105040008BE090E08D939C9381E008958CE090E05C
:10505000F9CF8EE090E0F6CF86E090E0F3CF87E0E6
:1050600090E0F0CF88E090E0EDCF89E090E0EACFEB
:105070008FE090E0E7CF8AE090E0E4CF1D921C92B1
:10508000E3CF7F928F929F92AF92BF92CF92DF92A7
:10509000EF92FF920F931F93CF93DF938C01E62E35
:1050A000942E242F41E00E947512782E292D40E085
:1050B0006E2DC8010E947512882E6801E00EF12E37
:1050C000F11CA12CB12CD0E0EC14FD0429F0F60168
:1050D000C1916F01C1110CC0F801ED0FF11DDD236D
:1050E000A1F18291803211F08E3279F5D150F7CF53
:1050F000CD3091F3781428F4EC2FF0E0E159FA4F19
:10510000C491C03211F0CE3211F4DD23E9F2692DE1
:105110008C2F0E945412811116C0A110D5CFCFE55B
:10512000AA24A3948C2F8F7D81548A3120F080EDA6
:105130008C0F8A3010F4BB24B394F801ED0FF11DED
:10514000C083DF5FC1CFA12CEDCFF801ED0FF11DC2
:105150001082BB2029F0BB24B394D11101C0B12C23
:105160008B2DDF91CF911F910F91FF90EF90DF90EA
:10517000CF90BF90AF909F908F907F9008951092A6
:105180009C1410929B1410929814109289141092EF
:1051900088140895FC01892BC9F0118210826130B6
:1051A00088E07807A0F01382128290E080E0948378
:1051B00085831682178210861186128613861486BE
:1051C0001586138A128A158A148A168A089583E02E
:1051D000660F771F8A95E1F77383628391E080E021
:1051E000672B29F790E0E3CFCF92DF92EF92FF9207
:1051F00010929814109297141092961480919B1408
:1052000090919C148130910529F580E8C82ED12C0D
:10521000E12CF12CC0926814D0926914E0926A14C7
:10522000F0926B1470E060E08AE594E10E94CA2875
:10523000C0927F14D0928014E0928114F092821474
:1052400070E060E081E794E1FF90EF90DF90CF9015
:105250000C94CA28029779F480919D14882359F000
:105260008091991427E1829FC001112470E060E0D1
:10527000865A9B4EE9CFFF90EF90DF90CF90089534
:105280002F923F924F925F926F927F928F929F9256
:10529000AF92BF92CF92DF92EF92FF920F931F9344
:1052A000CF93DF93A0909B14B0909C14A114B104F1
:1052B00039F06C0101978115944020F00E94F42888
:1052C00080E012C077247394611101C0712C809129
:1052D000981481111CC0D0929714C09296147092A9
:1052E0004C0391E090939814DF91CF911F910F910F
:1052F000FF90EF90DF90CF90BF90AF909F908F90F6
:105300007F906F905F904F903F902F9008956090A6
:105310004C0367100AC00E94F428D0929714C092E0
:10532000961481E080939814CBCF61E0A616B10467
:1053300041F080919D14882369F18091991468123D
:1053400029C000919614109197140C0D1D1DE62C88
:10535000F12C87E1689EE0011124C65ADB4E88805B
:1053600099808114910429F54F81442309F472C274
:105370008E818017110611F008F06CC240171106DB
:1053800008F468C28C819D818F3F980719F00196BF
:105390009D838C83D0929714C092961470924C0384
:1053A00081E02091881430918914232B09F09CCF3F
:1053B00087CF209779F3B801CE01F5E08F169104DD
:1053C00009F020C10E94E7122C813D8181111CC08F
:1053D0002F3F310509F020F42F5F3F4F3D832C8391
:1053E00087E18E9DF0018F9DF00D1124E65AFB4E52
:1053F000848195818115914069F684E090E09183E4
:10540000808315821482C6CF2038310508F033C25C
:105410001D821C82BFCF4423A1F086818017110614
:1054200011F008F0D4C04017110608F4D0C08481F0
:1054300095818F3F980709F4ADCF019695838483BA
:10544000A9CF2D3C310508F08EC00032110508F0BF
:10545000BEC0E22F502F550F550F550F852F821BC1
:10546000521710F4822F851BB901759567957595B4
:105470006795683008F468E0681708F4A8C090E001
:1054800037E15E1708F460C03E9DF0013F9DF00DCE
:105490001124E65AFB4E0496B3E096958795BA958B
:1054A000E1F7280F30E03383228387E18E9DF001FE
:1054B0008F9DF00D1124E65AFB4E848195818F3F1C
:1054C000980719F001969583848387E18E9DF001FA
:1054D0008F9DF00D1124E65AFB4E84819581811534
:1054E000914009F057CF828193819C01215031096D
:1054F0002C3C310508F04ECF582F9C01359527954F
:1055000035952795283008F428E0251710F4482F02
:10551000421B97E19E9DF0019F9DF00D1124E65ADC
:10552000FB4E50E0495F5F4F63E0569547956A95A3
:10553000E1F74683280F822F90E073E095958795D9
:105540007A95E1F7878326CF3E9DF0013F9DF00DD0
:105550001124E65AFB4E0396A3E096958795AA95EB
:10556000E1F7281B9FCFB801E3E0660F771FEA95AC
:10557000E1F7CB01821B930B6217730718F4C90183
:10558000861B970BF901F695E795F695E795E817D1
:10559000F907E8F057E15E9DF0015F9DF00D1124E1
:1055A000E65AFB4E6217730748F00496B3E09695EF
:1055B0008795BA95E1F7280F391F75CF0396A3E0B9
:1055C00096958795AA95E1F7281B390B6CCFB80102
:1055D000CE010E94E71297E19E9DF0019F9DF00D84
:1055E0001124E65AFB4E248135812031310508F41F
:1055F00042C1813009F03FC121E030E03183208396
:105600008683C8CE0E94E71287FD35C191E08916D6
:105610009104A1F49E81813031F49F3F09F4BACE08
:105620009F5F9E83B7CE9C50953208F024C182E0E4
:1056300090E09983888381E08E83ACCEE2E08E1681
:10564000910471F49E81882341F39C50953208F0B7
:1056500012C183E090E09983888381E08F839ACEA2
:10566000F3E08F16910471F4813009F004C18F8149
:105670008F5F8F83823009F08DCE84E090E0998334
:10568000888388CE2885283038F49985990F892B0E
:1056900089872F5F28877ECE813019F070E060E027
:1056A000EBC099842A843B844C845D848E859F85DD
:1056B000A889B989281639064A065B0608F090C001
:1056C000892D0E94C02597E19E9DF0019F9DF00DC0
:1056D0001124E65AFB4E22893389820F932F911DA4
:1056E000938B828BAA94AB2809F071C0C701969561
:1056F000982F88279795879586539C4F280E392E8B
:10570000311CF101908287E18E9DF0018F9DF00D9B
:105710001124E65AFB4E82859385A485B5850196B2
:10572000A11DB11D82879387A487B58726853785FC
:105730004089518949015A0162E0860E911CA11CE1
:10574000B11C88159905AA05BB05B1F5A489B589D1
:105750008289938960919B1470919C1461307105CA
:1057600009F067C0A817B90709F048C0C7019695A6
:10577000982F88279795879586539C4F9093CB04B5
:105780008093CA04828193819093C9038093C80354
:1057900060929A146092991481E080939D14109203
:1057A0009C1410929B148E0120E030E0A90160E06F
:1057B00081E090E00E94B81287E18E9DF0018F9DFC
:1057C000F00D1124E65AFB4E11861086E3CD8E01B2
:1057D000A2019101692D82E090E00E94B81293CF5E
:1057E00087E18E9DF0018F9DF00D1124E65AFB4E4E
:1057F00080E094898929958B848B85CF85E090E022
:1058000091838083158214821682178212861386F2
:105810001486158680E890E0A0E0B0E08687978740
:10582000A08BB18B138A128A158A148A81E0868B29
:10583000C3CFA817B90759F483E090E08E0160E068
:105840000E94B81210929C1410929B14B5CF84E061
:1058500090E0F4CF209709F49DCD87E18E9DF00173
:105860008F9DF00D1124E65AFB4E228133812115C4
:10587000310509F0D0CDB801CE010E94CA288ACDE9
:10588000CF92DF92EF92FF92CF93DF9381E090E08F
:1058900090939C1480939B141092CB041092CA0492
:1058A0001092C9031092C80310929D14109298147C
:1058B00010929714109296141092891410928814D2
:1058C000CAE5D4E180E8C82ED12CE12CF12CCE869B
:1058D000DF86E88AF98A70E060E0CE010E94CA287B
:1058E000CDA2DEA2EFA2F8A670E060E081E794E12D
:1058F000DF91CF91FF90EF90DF90CF900C94CA286A
:10590000FC01E55BFF4F2081263111F12B3119F1AC
:10591000293221F525E030E0FC01E45BFF4F4081B6
:10592000413011F04637D1F4DC01E6E1F7E085EBD8
:105930008F3020F094914C91491310C08F5F1196D5
:1059400031968F30A9F7FB013183208381E00895E0
:1059500026E030E0E1CF24E030E0DECF80E00895C3
:10596000FC01218D2131C1F02631C9F02032D1F462
:1059700023E030E0DC019096E0E7F7E088965D9167
:10598000449154130FC03196A817B907C1F7FB0112
:105990003183208381E0089521E030E0EBCF22E0E5
:1059A00030E0E8CF80E00895CF93DF93DC01892BCE
:1059B00059F18C91813011F0863731F552968D91E5
:1059C0009C9153978A359105F9F454968D919C9149
:1059D00055978115944DC1F456968D919C9157978A
:1059E0008115944D89F4ED016896E8E3FBE05F963C
:1059F00099918491981308C03196CA17DB07C1F7B3
:105A000081E0DF91CF91089580E0FBCFCF93DF93CA
:105A1000EC016AE675E00E94511881112FC065E61D
:105A200075E0CE010E94511881112BC060E675E02F
:105A3000CE010E945118811127C06BE575E0CE019F
:105A40000E945118811123C066E575E0CE010E94C5
:105A5000511881111FC061E575E0CE010E945118F7
:105A600081111BC06CE475E0CE010E9451188111B8
:105A700017C090E080E0DF91CF91089581E090E041
:105A8000FACF82E090E0F7CF83E090E0F4CF84E0BB
:105A900090E0F1CF85E090E0EECF86E090E0EBCFB4
:105AA00087E090E0E8CF1F920F920FB60F9211247B
:105AB0000BB60F921F932F933F934F935F936F9368
:105AC0007F938F939F93AF93BF93EF93FF93CF9366
:105AD000DF931F921F92CDB7DEB7109103011170B3
